{
	"contracts/DonationWithCrypto.sol": {
		"DonationWithCrypto": {
			"abi": [
				{
					"inputs": [
						{
							"internalType": "uint256",
							"name": "id",
							"type": "uint256"
						}
					],
					"name": "closeRequest",
					"outputs": [],
					"stateMutability": "nonpayable",
					"type": "function"
				},
				{
					"inputs": [
						{
							"internalType": "uint256",
							"name": "id",
							"type": "uint256"
						}
					],
					"name": "donate",
					"outputs": [],
					"stateMutability": "payable",
					"type": "function"
				},
				{
					"inputs": [
						{
							"internalType": "uint256",
							"name": "startId",
							"type": "uint256"
						},
						{
							"internalType": "uint256",
							"name": "quantity",
							"type": "uint256"
						}
					],
					"name": "getOpenRequests",
					"outputs": [
						{
							"components": [
								{
									"internalType": "uint256",
									"name": "id",
									"type": "uint256"
								},
								{
									"internalType": "address",
									"name": "author",
									"type": "address"
								},
								{
									"internalType": "string",
									"name": "title",
									"type": "string"
								},
								{
									"internalType": "string",
									"name": "description",
									"type": "string"
								},
								{
									"internalType": "string",
									"name": "contact",
									"type": "string"
								},
								{
									"internalType": "uint256",
									"name": "timestamp",
									"type": "uint256"
								},
								{
									"internalType": "uint256",
									"name": "goal",
									"type": "uint256"
								},
								{
									"internalType": "uint256",
									"name": "balance",
									"type": "uint256"
								},
								{
									"internalType": "bool",
									"name": "open",
									"type": "bool"
								}
							],
							"internalType": "struct Request[]",
							"name": "",
							"type": "tuple[]"
						}
					],
					"stateMutability": "view",
					"type": "function"
				},
				{
					"inputs": [],
					"name": "lastId",
					"outputs": [
						{
							"internalType": "uint256",
							"name": "",
							"type": "uint256"
						}
					],
					"stateMutability": "view",
					"type": "function"
				},
				{
					"inputs": [
						{
							"internalType": "string",
							"name": "title",
							"type": "string"
						},
						{
							"internalType": "string",
							"name": "description",
							"type": "string"
						},
						{
							"internalType": "string",
							"name": "contact",
							"type": "string"
						},
						{
							"internalType": "uint256",
							"name": "goal",
							"type": "uint256"
						}
					],
					"name": "openRequest",
					"outputs": [],
					"stateMutability": "nonpayable",
					"type": "function"
				},
				{
					"inputs": [
						{
							"internalType": "uint256",
							"name": "",
							"type": "uint256"
						}
					],
					"name": "requests",
					"outputs": [
						{
							"internalType": "uint256",
							"name": "id",
							"type": "uint256"
						},
						{
							"internalType": "address",
							"name": "author",
							"type": "address"
						},
						{
							"internalType": "string",
							"name": "title",
							"type": "string"
						},
						{
							"internalType": "string",
							"name": "description",
							"type": "string"
						},
						{
							"internalType": "string",
							"name": "contact",
							"type": "string"
						},
						{
							"internalType": "uint256",
							"name": "timestamp",
							"type": "uint256"
						},
						{
							"internalType": "uint256",
							"name": "goal",
							"type": "uint256"
						},
						{
							"internalType": "uint256",
							"name": "balance",
							"type": "uint256"
						},
						{
							"internalType": "bool",
							"name": "open",
							"type": "bool"
						}
					],
					"stateMutability": "view",
					"type": "function"
				}
			],
			"devdoc": {
				"kind": "dev",
				"methods": {},
				"version": 1
			},
			"evm": {
				"assembly": "    /* \"contracts/DonationWithCrypto.sol\":242:1884  contract DonationWithCrypto {... */\n  mstore(0x40, 0x80)\n    /* \"contracts/DonationWithCrypto.sol\":298:299  0 */\n  0x00\n    /* \"contracts/DonationWithCrypto.sol\":277:299  uint public lastId = 0 */\n  dup1\n  sstore\n    /* \"contracts/DonationWithCrypto.sol\":242:1884  contract DonationWithCrypto {... */\n  callvalue\n  dup1\n  iszero\n  tag_1\n  jumpi\n  0x00\n  dup1\n  revert\ntag_1:\n  pop\n  dataSize(sub_0)\n  dup1\n  dataOffset(sub_0)\n  0x00\n  codecopy\n  0x00\n  return\nstop\n\nsub_0: assembly {\n        /* \"contracts/DonationWithCrypto.sol\":242:1884  contract DonationWithCrypto {... */\n      mstore(0x40, 0x80)\n      jumpi(tag_1, lt(calldatasize, 0x04))\n      shr(0xe0, calldataload(0x00))\n      dup1\n      0x81d12c58\n      eq\n      tag_2\n      jumpi\n      dup1\n      0x82209689\n      eq\n      tag_3\n      jumpi\n      dup1\n      0xb45243dc\n      eq\n      tag_4\n      jumpi\n      dup1\n      0xc1292cc3\n      eq\n      tag_5\n      jumpi\n      dup1\n      0xf0282b7f\n      eq\n      tag_6\n      jumpi\n      dup1\n      0xf14faf6f\n      eq\n      tag_7\n      jumpi\n    tag_1:\n      0x00\n      dup1\n      revert\n        /* \"contracts/DonationWithCrypto.sol\":305:346  mapping (uint => Request) public requests */\n    tag_2:\n      callvalue\n      dup1\n      iszero\n      tag_8\n      jumpi\n      0x00\n      dup1\n      revert\n    tag_8:\n      pop\n      tag_9\n      0x04\n      dup1\n      calldatasize\n      sub\n      dup2\n      add\n      swap1\n      tag_10\n      swap2\n      swap1\n      tag_11\n      jump\t// in\n    tag_10:\n      tag_12\n      jump\t// in\n    tag_9:\n      mload(0x40)\n      tag_13\n      swap10\n      swap9\n      swap8\n      swap7\n      swap6\n      swap5\n      swap4\n      swap3\n      swap2\n      swap1\n      tag_14\n      jump\t// in\n    tag_13:\n      mload(0x40)\n      dup1\n      swap2\n      sub\n      swap1\n      return\n        /* \"contracts/DonationWithCrypto.sol\":353:798  function openRequest(string memory title, string memory description, string memory contact, uint goal) public {... */\n    tag_3:\n      callvalue\n      dup1\n      iszero\n      tag_15\n      jumpi\n      0x00\n      dup1\n      revert\n    tag_15:\n      pop\n      tag_16\n      0x04\n      dup1\n      calldatasize\n      sub\n      dup2\n      add\n      swap1\n      tag_17\n      swap2\n      swap1\n      tag_18\n      jump\t// in\n    tag_17:\n      tag_19\n      jump\t// in\n    tag_16:\n      stop\n        /* \"contracts/DonationWithCrypto.sol\":1432:1881  function getOpenRequests(uint startId, uint quantity) public view returns (Request[] memory) {... */\n    tag_4:\n      callvalue\n      dup1\n      iszero\n      tag_20\n      jumpi\n      0x00\n      dup1\n      revert\n    tag_20:\n      pop\n      tag_21\n      0x04\n      dup1\n      calldatasize\n      sub\n      dup2\n      add\n      swap1\n      tag_22\n      swap2\n      swap1\n      tag_23\n      jump\t// in\n    tag_22:\n      tag_24\n      jump\t// in\n    tag_21:\n      mload(0x40)\n      tag_25\n      swap2\n      swap1\n      tag_26\n      jump\t// in\n    tag_25:\n      mload(0x40)\n      dup1\n      swap2\n      sub\n      swap1\n      return\n        /* \"contracts/DonationWithCrypto.sol\":277:299  uint public lastId = 0 */\n    tag_5:\n      callvalue\n      dup1\n      iszero\n      tag_27\n      jumpi\n      0x00\n      dup1\n      revert\n    tag_27:\n      pop\n      tag_28\n      tag_29\n      jump\t// in\n    tag_28:\n      mload(0x40)\n      tag_30\n      swap2\n      swap1\n      tag_31\n      jump\t// in\n    tag_30:\n      mload(0x40)\n      dup1\n      swap2\n      sub\n      swap1\n      return\n        /* \"contracts/DonationWithCrypto.sol\":804:1257  function closeRequest(uint id) public {... */\n    tag_6:\n      callvalue\n      dup1\n      iszero\n      tag_32\n      jumpi\n      0x00\n      dup1\n      revert\n    tag_32:\n      pop\n      tag_33\n      0x04\n      dup1\n      calldatasize\n      sub\n      dup2\n      add\n      swap1\n      tag_34\n      swap2\n      swap1\n      tag_11\n      jump\t// in\n    tag_34:\n      tag_35\n      jump\t// in\n    tag_33:\n      stop\n        /* \"contracts/DonationWithCrypto.sol\":1263:1426  function donate(uint id) public payable {... */\n    tag_7:\n      tag_36\n      0x04\n      dup1\n      calldatasize\n      sub\n      dup2\n      add\n      swap1\n      tag_37\n      swap2\n      swap1\n      tag_11\n      jump\t// in\n    tag_37:\n      tag_38\n      jump\t// in\n    tag_36:\n      stop\n        /* \"contracts/DonationWithCrypto.sol\":305:346  mapping (uint => Request) public requests */\n    tag_12:\n      mstore(0x20, 0x01)\n      dup1\n      0x00\n      mstore\n      keccak256(0x00, 0x40)\n      0x00\n      swap2\n      pop\n      swap1\n      pop\n      dup1\n      0x00\n      add\n      sload\n      swap1\n      dup1\n      0x01\n      add\n      0x00\n      swap1\n      sload\n      swap1\n      0x0100\n      exp\n      swap1\n      div\n      0xffffffffffffffffffffffffffffffffffffffff\n      and\n      swap1\n      dup1\n      0x02\n      add\n      dup1\n      sload\n      tag_39\n      swap1\n      tag_40\n      jump\t// in\n    tag_39:\n      dup1\n      0x1f\n      add\n      0x20\n      dup1\n      swap2\n      div\n      mul\n      0x20\n      add\n      mload(0x40)\n      swap1\n      dup2\n      add\n      0x40\n      mstore\n      dup1\n      swap3\n      swap2\n      swap1\n      dup2\n      dup2\n      mstore\n      0x20\n      add\n      dup3\n      dup1\n      sload\n      tag_41\n      swap1\n      tag_40\n      jump\t// in\n    tag_41:\n      dup1\n      iszero\n      tag_42\n      jumpi\n      dup1\n      0x1f\n      lt\n      tag_43\n      jumpi\n      0x0100\n      dup1\n      dup4\n      sload\n      div\n      mul\n      dup4\n      mstore\n      swap2\n      0x20\n      add\n      swap2\n      jump(tag_42)\n    tag_43:\n      dup3\n      add\n      swap2\n      swap1\n      0x00\n      mstore\n      keccak256(0x00, 0x20)\n      swap1\n    tag_44:\n      dup2\n      sload\n      dup2\n      mstore\n      swap1\n      0x01\n      add\n      swap1\n      0x20\n      add\n      dup1\n      dup4\n      gt\n      tag_44\n      jumpi\n      dup3\n      swap1\n      sub\n      0x1f\n      and\n      dup3\n      add\n      swap2\n    tag_42:\n      pop\n      pop\n      pop\n      pop\n      pop\n      swap1\n      dup1\n      0x03\n      add\n      dup1\n      sload\n      tag_45\n      swap1\n      tag_40\n      jump\t// in\n    tag_45:\n      dup1\n      0x1f\n      add\n      0x20\n      dup1\n      swap2\n      div\n      mul\n      0x20\n      add\n      mload(0x40)\n      swap1\n      dup2\n      add\n      0x40\n      mstore\n      dup1\n      swap3\n      swap2\n      swap1\n      dup2\n      dup2\n      mstore\n      0x20\n      add\n      dup3\n      dup1\n      sload\n      tag_46\n      swap1\n      tag_40\n      jump\t// in\n    tag_46:\n      dup1\n      iszero\n      tag_47\n      jumpi\n      dup1\n      0x1f\n      lt\n      tag_48\n      jumpi\n      0x0100\n      dup1\n      dup4\n      sload\n      div\n      mul\n      dup4\n      mstore\n      swap2\n      0x20\n      add\n      swap2\n      jump(tag_47)\n    tag_48:\n      dup3\n      add\n      swap2\n      swap1\n      0x00\n      mstore\n      keccak256(0x00, 0x20)\n      swap1\n    tag_49:\n      dup2\n      sload\n      dup2\n      mstore\n      swap1\n      0x01\n      add\n      swap1\n      0x20\n      add\n      dup1\n      dup4\n      gt\n      tag_49\n      jumpi\n      dup3\n      swap1\n      sub\n      0x1f\n      and\n      dup3\n      add\n      swap2\n    tag_47:\n      pop\n      pop\n      pop\n      pop\n      pop\n      swap1\n      dup1\n      0x04\n      add\n      dup1\n      sload\n      tag_50\n      swap1\n      tag_40\n      jump\t// in\n    tag_50:\n      dup1\n      0x1f\n      add\n      0x20\n      dup1\n      swap2\n      div\n      mul\n      0x20\n      add\n      mload(0x40)\n      swap1\n      dup2\n      add\n      0x40\n      mstore\n      dup1\n      swap3\n      swap2\n      swap1\n      dup2\n      dup2\n      mstore\n      0x20\n      add\n      dup3\n      dup1\n      sload\n      tag_51\n      swap1\n      tag_40\n      jump\t// in\n    tag_51:\n      dup1\n      iszero\n      tag_52\n      jumpi\n      dup1\n      0x1f\n      lt\n      tag_53\n      jumpi\n      0x0100\n      dup1\n      dup4\n      sload\n      div\n      mul\n      dup4\n      mstore\n      swap2\n      0x20\n      add\n      swap2\n      jump(tag_52)\n    tag_53:\n      dup3\n      add\n      swap2\n      swap1\n      0x00\n      mstore\n      keccak256(0x00, 0x20)\n      swap1\n    tag_54:\n      dup2\n      sload\n      dup2\n      mstore\n      swap1\n      0x01\n      add\n      swap1\n      0x20\n      add\n      dup1\n      dup4\n      gt\n      tag_54\n      jumpi\n      dup3\n      swap1\n      sub\n      0x1f\n      and\n      dup3\n      add\n      swap2\n    tag_52:\n      pop\n      pop\n      pop\n      pop\n      pop\n      swap1\n      dup1\n      0x05\n      add\n      sload\n      swap1\n      dup1\n      0x06\n      add\n      sload\n      swap1\n      dup1\n      0x07\n      add\n      sload\n      swap1\n      dup1\n      0x08\n      add\n      0x00\n      swap1\n      sload\n      swap1\n      0x0100\n      exp\n      swap1\n      div\n      0xff\n      and\n      swap1\n      pop\n      dup10\n      jump\t// out\n        /* \"contracts/DonationWithCrypto.sol\":353:798  function openRequest(string memory title, string memory description, string memory contact, uint goal) public {... */\n    tag_19:\n        /* \"contracts/DonationWithCrypto.sol\":473:479  lastId */\n      0x00\n      dup1\n        /* \"contracts/DonationWithCrypto.sol\":473:481  lastId++ */\n      dup2\n      sload\n      dup1\n      swap3\n      swap2\n      swap1\n      tag_56\n      swap1\n      tag_57\n      jump\t// in\n    tag_56:\n      swap2\n      swap1\n      pop\n      sstore\n      pop\n        /* \"contracts/DonationWithCrypto.sol\":510:791  Request({... */\n      mload(0x40)\n      dup1\n      0x0120\n      add\n      0x40\n      mstore\n      dup1\n        /* \"contracts/DonationWithCrypto.sol\":536:542  lastId */\n      sload(0x00)\n        /* \"contracts/DonationWithCrypto.sol\":510:791  Request({... */\n      dup2\n      mstore\n      0x20\n      add\n        /* \"contracts/DonationWithCrypto.sol\":746:756  msg.sender */\n      caller\n        /* \"contracts/DonationWithCrypto.sol\":510:791  Request({... */\n      0xffffffffffffffffffffffffffffffffffffffff\n      and\n      dup2\n      mstore\n      0x20\n      add\n        /* \"contracts/DonationWithCrypto.sol\":563:568  title */\n      dup6\n        /* \"contracts/DonationWithCrypto.sol\":510:791  Request({... */\n      dup2\n      mstore\n      0x20\n      add\n        /* \"contracts/DonationWithCrypto.sol\":595:606  description */\n      dup5\n        /* \"contracts/DonationWithCrypto.sol\":510:791  Request({... */\n      dup2\n      mstore\n      0x20\n      add\n        /* \"contracts/DonationWithCrypto.sol\":629:636  contact */\n      dup4\n        /* \"contracts/DonationWithCrypto.sol\":510:791  Request({... */\n      dup2\n      mstore\n      0x20\n      add\n        /* \"contracts/DonationWithCrypto.sol\":709:724  block.timestamp */\n      timestamp\n        /* \"contracts/DonationWithCrypto.sol\":510:791  Request({... */\n      dup2\n      mstore\n      0x20\n      add\n        /* \"contracts/DonationWithCrypto.sol\":656:660  goal */\n      dup3\n        /* \"contracts/DonationWithCrypto.sol\":510:791  Request({... */\n      dup2\n      mstore\n      0x20\n      add\n        /* \"contracts/DonationWithCrypto.sol\":683:684  0 */\n      0x00\n        /* \"contracts/DonationWithCrypto.sol\":510:791  Request({... */\n      dup2\n      mstore\n      0x20\n      add\n        /* \"contracts/DonationWithCrypto.sol\":776:780  true */\n      0x01\n        /* \"contracts/DonationWithCrypto.sol\":510:791  Request({... */\n      iszero\n      iszero\n      dup2\n      mstore\n      pop\n        /* \"contracts/DonationWithCrypto.sol\":491:499  requests */\n      0x01\n        /* \"contracts/DonationWithCrypto.sol\":491:507  requests[lastId] */\n      0x00\n        /* \"contracts/DonationWithCrypto.sol\":500:506  lastId */\n      dup1\n      sload\n        /* \"contracts/DonationWithCrypto.sol\":491:507  requests[lastId] */\n      dup2\n      mstore\n      0x20\n      add\n      swap1\n      dup2\n      mstore\n      0x20\n      add\n      0x00\n      keccak256\n        /* \"contracts/DonationWithCrypto.sol\":491:791  requests[lastId] = Request({... */\n      0x00\n      dup3\n      add\n      mload\n      dup2\n      0x00\n      add\n      sstore\n      0x20\n      dup3\n      add\n      mload\n      dup2\n      0x01\n      add\n      exp(0x0100, 0x00)\n      dup2\n      sload\n      dup2\n      0xffffffffffffffffffffffffffffffffffffffff\n      mul\n      not\n      and\n      swap1\n      dup4\n      0xffffffffffffffffffffffffffffffffffffffff\n      and\n      mul\n      or\n      swap1\n      sstore\n      pop\n      0x40\n      dup3\n      add\n      mload\n      dup2\n      0x02\n      add\n      swap1\n      dup2\n      tag_58\n      swap2\n      swap1\n      tag_59\n      jump\t// in\n    tag_58:\n      pop\n      0x60\n      dup3\n      add\n      mload\n      dup2\n      0x03\n      add\n      swap1\n      dup2\n      tag_60\n      swap2\n      swap1\n      tag_59\n      jump\t// in\n    tag_60:\n      pop\n      0x80\n      dup3\n      add\n      mload\n      dup2\n      0x04\n      add\n      swap1\n      dup2\n      tag_61\n      swap2\n      swap1\n      tag_59\n      jump\t// in\n    tag_61:\n      pop\n      0xa0\n      dup3\n      add\n      mload\n      dup2\n      0x05\n      add\n      sstore\n      0xc0\n      dup3\n      add\n      mload\n      dup2\n      0x06\n      add\n      sstore\n      0xe0\n      dup3\n      add\n      mload\n      dup2\n      0x07\n      add\n      sstore\n      0x0100\n      dup3\n      add\n      mload\n      dup2\n      0x08\n      add\n      exp(0x0100, 0x00)\n      dup2\n      sload\n      dup2\n      0xff\n      mul\n      not\n      and\n      swap1\n      dup4\n      iszero\n      iszero\n      mul\n      or\n      swap1\n      sstore\n      pop\n      swap1\n      pop\n      pop\n        /* \"contracts/DonationWithCrypto.sol\":353:798  function openRequest(string memory title, string memory description, string memory contact, uint goal) public {... */\n      pop\n      pop\n      pop\n      pop\n      jump\t// out\n        /* \"contracts/DonationWithCrypto.sol\":1432:1881  function getOpenRequests(uint startId, uint quantity) public view returns (Request[] memory) {... */\n    tag_24:\n        /* \"contracts/DonationWithCrypto.sol\":1507:1523  Request[] memory */\n      0x60\n        /* \"contracts/DonationWithCrypto.sol\":1535:1558  Request[] memory result */\n      0x00\n        /* \"contracts/DonationWithCrypto.sol\":1575:1583  quantity */\n      dup3\n        /* \"contracts/DonationWithCrypto.sol\":1561:1584  new Request[](quantity) */\n      0xffffffffffffffff\n      dup2\n      gt\n      iszero\n      tag_63\n      jumpi\n      tag_64\n      tag_65\n      jump\t// in\n    tag_64:\n    tag_63:\n      mload(0x40)\n      swap1\n      dup1\n      dup3\n      mstore\n      dup1\n      0x20\n      mul\n      0x20\n      add\n      dup3\n      add\n      0x40\n      mstore\n      dup1\n      iszero\n      tag_66\n      jumpi\n      dup2\n      0x20\n      add\n    tag_67:\n      tag_68\n      tag_69\n      jump\t// in\n    tag_68:\n      dup2\n      mstore\n      0x20\n      add\n      swap1\n      0x01\n      swap1\n      sub\n      swap1\n      dup2\n      tag_67\n      jumpi\n      swap1\n      pop\n    tag_66:\n      pop\n        /* \"contracts/DonationWithCrypto.sol\":1535:1584  Request[] memory result = new Request[](quantity) */\n      swap1\n      pop\n        /* \"contracts/DonationWithCrypto.sol\":1594:1601  uint id */\n      0x00\n        /* \"contracts/DonationWithCrypto.sol\":1604:1611  startId */\n      dup5\n        /* \"contracts/DonationWithCrypto.sol\":1594:1611  uint id = startId */\n      swap1\n      pop\n        /* \"contracts/DonationWithCrypto.sol\":1621:1631  uint count */\n      0x00\n        /* \"contracts/DonationWithCrypto.sol\":1646:1851  do {... */\n    tag_70:\n        /* \"contracts/DonationWithCrypto.sol\":1667:1675  requests */\n      0x01\n        /* \"contracts/DonationWithCrypto.sol\":1667:1679  requests[id] */\n      0x00\n        /* \"contracts/DonationWithCrypto.sol\":1676:1678  id */\n      dup4\n        /* \"contracts/DonationWithCrypto.sol\":1667:1679  requests[id] */\n      dup2\n      mstore\n      0x20\n      add\n      swap1\n      dup2\n      mstore\n      0x20\n      add\n      0x00\n      keccak256\n        /* \"contracts/DonationWithCrypto.sol\":1667:1684  requests[id].open */\n      0x08\n      add\n      0x00\n      swap1\n      sload\n      swap1\n      0x0100\n      exp\n      swap1\n      div\n      0xff\n      and\n        /* \"contracts/DonationWithCrypto.sol\":1663:1772  if (requests[id].open) {... */\n      iszero\n      tag_73\n      jumpi\n        /* \"contracts/DonationWithCrypto.sol\":1720:1728  requests */\n      0x01\n        /* \"contracts/DonationWithCrypto.sol\":1720:1732  requests[id] */\n      0x00\n        /* \"contracts/DonationWithCrypto.sol\":1729:1731  id */\n      dup4\n        /* \"contracts/DonationWithCrypto.sol\":1720:1732  requests[id] */\n      dup2\n      mstore\n      0x20\n      add\n      swap1\n      dup2\n      mstore\n      0x20\n      add\n      0x00\n      keccak256\n        /* \"contracts/DonationWithCrypto.sol\":1704:1732  result[count] = requests[id] */\n      mload(0x40)\n      dup1\n      0x0120\n      add\n      0x40\n      mstore\n      swap1\n      dup2\n      0x00\n      dup3\n      add\n      sload\n      dup2\n      mstore\n      0x20\n      add\n      0x01\n      dup3\n      add\n      0x00\n      swap1\n      sload\n      swap1\n      0x0100\n      exp\n      swap1\n      div\n      0xffffffffffffffffffffffffffffffffffffffff\n      and\n      0xffffffffffffffffffffffffffffffffffffffff\n      and\n      0xffffffffffffffffffffffffffffffffffffffff\n      and\n      dup2\n      mstore\n      0x20\n      add\n      0x02\n      dup3\n      add\n      dup1\n      sload\n      tag_74\n      swap1\n      tag_40\n      jump\t// in\n    tag_74:\n      dup1\n      0x1f\n      add\n      0x20\n      dup1\n      swap2\n      div\n      mul\n      0x20\n      add\n      mload(0x40)\n      swap1\n      dup2\n      add\n      0x40\n      mstore\n      dup1\n      swap3\n      swap2\n      swap1\n      dup2\n      dup2\n      mstore\n      0x20\n      add\n      dup3\n      dup1\n      sload\n      tag_75\n      swap1\n      tag_40\n      jump\t// in\n    tag_75:\n      dup1\n      iszero\n      tag_76\n      jumpi\n      dup1\n      0x1f\n      lt\n      tag_77\n      jumpi\n      0x0100\n      dup1\n      dup4\n      sload\n      div\n      mul\n      dup4\n      mstore\n      swap2\n      0x20\n      add\n      swap2\n      jump(tag_76)\n    tag_77:\n      dup3\n      add\n      swap2\n      swap1\n      0x00\n      mstore\n      keccak256(0x00, 0x20)\n      swap1\n    tag_78:\n      dup2\n      sload\n      dup2\n      mstore\n      swap1\n      0x01\n      add\n      swap1\n      0x20\n      add\n      dup1\n      dup4\n      gt\n      tag_78\n      jumpi\n      dup3\n      swap1\n      sub\n      0x1f\n      and\n      dup3\n      add\n      swap2\n    tag_76:\n      pop\n      pop\n      pop\n      pop\n      pop\n      dup2\n      mstore\n      0x20\n      add\n      0x03\n      dup3\n      add\n      dup1\n      sload\n      tag_79\n      swap1\n      tag_40\n      jump\t// in\n    tag_79:\n      dup1\n      0x1f\n      add\n      0x20\n      dup1\n      swap2\n      div\n      mul\n      0x20\n      add\n      mload(0x40)\n      swap1\n      dup2\n      add\n      0x40\n      mstore\n      dup1\n      swap3\n      swap2\n      swap1\n      dup2\n      dup2\n      mstore\n      0x20\n      add\n      dup3\n      dup1\n      sload\n      tag_80\n      swap1\n      tag_40\n      jump\t// in\n    tag_80:\n      dup1\n      iszero\n      tag_81\n      jumpi\n      dup1\n      0x1f\n      lt\n      tag_82\n      jumpi\n      0x0100\n      dup1\n      dup4\n      sload\n      div\n      mul\n      dup4\n      mstore\n      swap2\n      0x20\n      add\n      swap2\n      jump(tag_81)\n    tag_82:\n      dup3\n      add\n      swap2\n      swap1\n      0x00\n      mstore\n      keccak256(0x00, 0x20)\n      swap1\n    tag_83:\n      dup2\n      sload\n      dup2\n      mstore\n      swap1\n      0x01\n      add\n      swap1\n      0x20\n      add\n      dup1\n      dup4\n      gt\n      tag_83\n      jumpi\n      dup3\n      swap1\n      sub\n      0x1f\n      and\n      dup3\n      add\n      swap2\n    tag_81:\n      pop\n      pop\n      pop\n      pop\n      pop\n      dup2\n      mstore\n      0x20\n      add\n      0x04\n      dup3\n      add\n      dup1\n      sload\n      tag_84\n      swap1\n      tag_40\n      jump\t// in\n    tag_84:\n      dup1\n      0x1f\n      add\n      0x20\n      dup1\n      swap2\n      div\n      mul\n      0x20\n      add\n      mload(0x40)\n      swap1\n      dup2\n      add\n      0x40\n      mstore\n      dup1\n      swap3\n      swap2\n      swap1\n      dup2\n      dup2\n      mstore\n      0x20\n      add\n      dup3\n      dup1\n      sload\n      tag_85\n      swap1\n      tag_40\n      jump\t// in\n    tag_85:\n      dup1\n      iszero\n      tag_86\n      jumpi\n      dup1\n      0x1f\n      lt\n      tag_87\n      jumpi\n      0x0100\n      dup1\n      dup4\n      sload\n      div\n      mul\n      dup4\n      mstore\n      swap2\n      0x20\n      add\n      swap2\n      jump(tag_86)\n    tag_87:\n      dup3\n      add\n      swap2\n      swap1\n      0x00\n      mstore\n      keccak256(0x00, 0x20)\n      swap1\n    tag_88:\n      dup2\n      sload\n      dup2\n      mstore\n      swap1\n      0x01\n      add\n      swap1\n      0x20\n      add\n      dup1\n      dup4\n      gt\n      tag_88\n      jumpi\n      dup3\n      swap1\n      sub\n      0x1f\n      and\n      dup3\n      add\n      swap2\n    tag_86:\n      pop\n      pop\n      pop\n      pop\n      pop\n      dup2\n      mstore\n      0x20\n      add\n      0x05\n      dup3\n      add\n      sload\n      dup2\n      mstore\n      0x20\n      add\n      0x06\n      dup3\n      add\n      sload\n      dup2\n      mstore\n      0x20\n      add\n      0x07\n      dup3\n      add\n      sload\n      dup2\n      mstore\n      0x20\n      add\n      0x08\n      dup3\n      add\n      0x00\n      swap1\n      sload\n      swap1\n      0x0100\n      exp\n      swap1\n      div\n      0xff\n      and\n      iszero\n      iszero\n      iszero\n      iszero\n      dup2\n      mstore\n      pop\n      pop\n        /* \"contracts/DonationWithCrypto.sol\":1704:1710  result */\n      dup4\n        /* \"contracts/DonationWithCrypto.sol\":1711:1716  count */\n      dup3\n        /* \"contracts/DonationWithCrypto.sol\":1704:1717  result[count] */\n      dup2\n      mload\n      dup2\n      lt\n      tag_89\n      jumpi\n      tag_90\n      tag_91\n      jump\t// in\n    tag_90:\n    tag_89:\n      0x20\n      mul\n      0x20\n      add\n      add\n        /* \"contracts/DonationWithCrypto.sol\":1704:1732  result[count] = requests[id] */\n      dup2\n      swap1\n      mstore\n      pop\n        /* \"contracts/DonationWithCrypto.sol\":1750:1757  count++ */\n      dup1\n      dup1\n      tag_92\n      swap1\n      tag_57\n      jump\t// in\n    tag_92:\n      swap2\n      pop\n      pop\n        /* \"contracts/DonationWithCrypto.sol\":1663:1772  if (requests[id].open) {... */\n    tag_73:\n        /* \"contracts/DonationWithCrypto.sol\":1786:1790  id++ */\n      dup2\n      dup1\n      tag_93\n      swap1\n      tag_57\n      jump\t// in\n    tag_93:\n      swap3\n      pop\n      pop\n        /* \"contracts/DonationWithCrypto.sol\":1825:1833  quantity */\n      dup5\n        /* \"contracts/DonationWithCrypto.sol\":1817:1822  count */\n      dup2\n        /* \"contracts/DonationWithCrypto.sol\":1817:1833  count < quantity */\n      lt\n        /* \"contracts/DonationWithCrypto.sol\":1817:1849  count < quantity && id <= lastId */\n      dup1\n      iszero\n      tag_94\n      jumpi\n      pop\n        /* \"contracts/DonationWithCrypto.sol\":1843:1849  lastId */\n      sload(0x00)\n        /* \"contracts/DonationWithCrypto.sol\":1837:1839  id */\n      dup3\n        /* \"contracts/DonationWithCrypto.sol\":1837:1849  id <= lastId */\n      gt\n      iszero\n        /* \"contracts/DonationWithCrypto.sol\":1817:1849  count < quantity && id <= lastId */\n    tag_94:\n        /* \"contracts/DonationWithCrypto.sol\":1646:1851  do {... */\n      tag_70\n      jumpi\n        /* \"contracts/DonationWithCrypto.sol\":1868:1874  result */\n      dup3\n        /* \"contracts/DonationWithCrypto.sol\":1861:1874  return result */\n      swap4\n      pop\n      pop\n      pop\n      pop\n        /* \"contracts/DonationWithCrypto.sol\":1432:1881  function getOpenRequests(uint startId, uint quantity) public view returns (Request[] memory) {... */\n      swap3\n      swap2\n      pop\n      pop\n      jump\t// out\n        /* \"contracts/DonationWithCrypto.sol\":277:299  uint public lastId = 0 */\n    tag_29:\n      sload(0x00)\n      dup2\n      jump\t// out\n        /* \"contracts/DonationWithCrypto.sol\":804:1257  function closeRequest(uint id) public {... */\n    tag_35:\n        /* \"contracts/DonationWithCrypto.sol\":852:866  address author */\n      0x00\n        /* \"contracts/DonationWithCrypto.sol\":869:877  requests */\n      0x01\n        /* \"contracts/DonationWithCrypto.sol\":869:881  requests[id] */\n      0x00\n        /* \"contracts/DonationWithCrypto.sol\":878:880  id */\n      dup4\n        /* \"contracts/DonationWithCrypto.sol\":869:881  requests[id] */\n      dup2\n      mstore\n      0x20\n      add\n      swap1\n      dup2\n      mstore\n      0x20\n      add\n      0x00\n      keccak256\n        /* \"contracts/DonationWithCrypto.sol\":869:888  requests[id].author */\n      0x01\n      add\n      0x00\n      swap1\n      sload\n      swap1\n      0x0100\n      exp\n      swap1\n      div\n      0xffffffffffffffffffffffffffffffffffffffff\n      and\n        /* \"contracts/DonationWithCrypto.sol\":852:888  address author = requests[id].author */\n      swap1\n      pop\n        /* \"contracts/DonationWithCrypto.sol\":898:910  uint balance */\n      0x00\n        /* \"contracts/DonationWithCrypto.sol\":913:921  requests */\n      0x01\n        /* \"contracts/DonationWithCrypto.sol\":913:925  requests[id] */\n      0x00\n        /* \"contracts/DonationWithCrypto.sol\":922:924  id */\n      dup5\n        /* \"contracts/DonationWithCrypto.sol\":913:925  requests[id] */\n      dup2\n      mstore\n      0x20\n      add\n      swap1\n      dup2\n      mstore\n      0x20\n      add\n      0x00\n      keccak256\n        /* \"contracts/DonationWithCrypto.sol\":913:933  requests[id].balance */\n      0x07\n      add\n      sload\n        /* \"contracts/DonationWithCrypto.sol\":898:933  uint balance = requests[id].balance */\n      swap1\n      pop\n        /* \"contracts/DonationWithCrypto.sol\":943:952  uint goal */\n      0x00\n        /* \"contracts/DonationWithCrypto.sol\":955:963  requests */\n      0x01\n        /* \"contracts/DonationWithCrypto.sol\":955:967  requests[id] */\n      0x00\n        /* \"contracts/DonationWithCrypto.sol\":964:966  id */\n      dup6\n        /* \"contracts/DonationWithCrypto.sol\":955:967  requests[id] */\n      dup2\n      mstore\n      0x20\n      add\n      swap1\n      dup2\n      mstore\n      0x20\n      add\n      0x00\n      keccak256\n        /* \"contracts/DonationWithCrypto.sol\":955:972  requests[id].goal */\n      0x06\n      add\n      sload\n        /* \"contracts/DonationWithCrypto.sol\":943:972  uint goal = requests[id].goal */\n      swap1\n      pop\n        /* \"contracts/DonationWithCrypto.sol\":1011:1015  true */\n      0x01\n        /* \"contracts/DonationWithCrypto.sol\":990:1015  requests[id].open == true */\n      iszero\n      iszero\n        /* \"contracts/DonationWithCrypto.sol\":990:998  requests */\n      0x01\n        /* \"contracts/DonationWithCrypto.sol\":990:1002  requests[id] */\n      0x00\n        /* \"contracts/DonationWithCrypto.sol\":999:1001  id */\n      dup7\n        /* \"contracts/DonationWithCrypto.sol\":990:1002  requests[id] */\n      dup2\n      mstore\n      0x20\n      add\n      swap1\n      dup2\n      mstore\n      0x20\n      add\n      0x00\n      keccak256\n        /* \"contracts/DonationWithCrypto.sol\":990:1007  requests[id].open */\n      0x08\n      add\n      0x00\n      swap1\n      sload\n      swap1\n      0x0100\n      exp\n      swap1\n      div\n      0xff\n      and\n        /* \"contracts/DonationWithCrypto.sol\":990:1015  requests[id].open == true */\n      iszero\n      iszero\n      eq\n        /* \"contracts/DonationWithCrypto.sol\":990:1039  requests[id].open == true && msg.sender == author */\n      dup1\n      iszero\n      tag_96\n      jumpi\n      pop\n        /* \"contracts/DonationWithCrypto.sol\":1033:1039  author */\n      dup3\n        /* \"contracts/DonationWithCrypto.sol\":1019:1039  msg.sender == author */\n      0xffffffffffffffffffffffffffffffffffffffff\n      and\n        /* \"contracts/DonationWithCrypto.sol\":1019:1029  msg.sender */\n      caller\n        /* \"contracts/DonationWithCrypto.sol\":1019:1039  msg.sender == author */\n      0xffffffffffffffffffffffffffffffffffffffff\n      and\n      eq\n        /* \"contracts/DonationWithCrypto.sol\":990:1039  requests[id].open == true && msg.sender == author */\n    tag_96:\n        /* \"contracts/DonationWithCrypto.sol\":990:1058  requests[id].open == true && msg.sender == author || balance >= goal */\n      dup1\n      tag_97\n      jumpi\n      pop\n        /* \"contracts/DonationWithCrypto.sol\":1054:1058  goal */\n      dup1\n        /* \"contracts/DonationWithCrypto.sol\":1043:1050  balance */\n      dup3\n        /* \"contracts/DonationWithCrypto.sol\":1043:1058  balance >= goal */\n      lt\n      iszero\n        /* \"contracts/DonationWithCrypto.sol\":990:1058  requests[id].open == true && msg.sender == author || balance >= goal */\n    tag_97:\n        /* \"contracts/DonationWithCrypto.sol\":982:1092  require(requests[id].open == true && msg.sender == author || balance >= goal, \"You cannot close this request\") */\n      tag_98\n      jumpi\n      mload(0x40)\n      0x08c379a000000000000000000000000000000000000000000000000000000000\n      dup2\n      mstore\n      0x04\n      add\n      tag_99\n      swap1\n      tag_100\n      jump\t// in\n    tag_99:\n      mload(0x40)\n      dup1\n      swap2\n      sub\n      swap1\n      revert\n    tag_98:\n        /* \"contracts/DonationWithCrypto.sol\":1123:1128  false */\n      0x00\n        /* \"contracts/DonationWithCrypto.sol\":1103:1111  requests */\n      0x01\n        /* \"contracts/DonationWithCrypto.sol\":1103:1115  requests[id] */\n      0x00\n        /* \"contracts/DonationWithCrypto.sol\":1112:1114  id */\n      dup7\n        /* \"contracts/DonationWithCrypto.sol\":1103:1115  requests[id] */\n      dup2\n      mstore\n      0x20\n      add\n      swap1\n      dup2\n      mstore\n      0x20\n      add\n      0x00\n      keccak256\n        /* \"contracts/DonationWithCrypto.sol\":1103:1120  requests[id].open */\n      0x08\n      add\n      0x00\n        /* \"contracts/DonationWithCrypto.sol\":1103:1128  requests[id].open = false */\n      0x0100\n      exp\n      dup2\n      sload\n      dup2\n      0xff\n      mul\n      not\n      and\n      swap1\n      dup4\n      iszero\n      iszero\n      mul\n      or\n      swap1\n      sstore\n      pop\n        /* \"contracts/DonationWithCrypto.sol\":1152:1153  0 */\n      0x00\n        /* \"contracts/DonationWithCrypto.sol\":1142:1149  balance */\n      dup3\n        /* \"contracts/DonationWithCrypto.sol\":1142:1153  balance > 0 */\n      gt\n        /* \"contracts/DonationWithCrypto.sol\":1139:1251  if(balance > 0) {... */\n      iszero\n      tag_101\n      jumpi\n        /* \"contracts/DonationWithCrypto.sol\":1192:1193  0 */\n      0x00\n        /* \"contracts/DonationWithCrypto.sol\":1169:1177  requests */\n      0x01\n        /* \"contracts/DonationWithCrypto.sol\":1169:1181  requests[id] */\n      0x00\n        /* \"contracts/DonationWithCrypto.sol\":1178:1180  id */\n      dup7\n        /* \"contracts/DonationWithCrypto.sol\":1169:1181  requests[id] */\n      dup2\n      mstore\n      0x20\n      add\n      swap1\n      dup2\n      mstore\n      0x20\n      add\n      0x00\n      keccak256\n        /* \"contracts/DonationWithCrypto.sol\":1169:1189  requests[id].balance */\n      0x07\n      add\n        /* \"contracts/DonationWithCrypto.sol\":1169:1193  requests[id].balance = 0 */\n      dup2\n      swap1\n      sstore\n      pop\n        /* \"contracts/DonationWithCrypto.sol\":1215:1221  author */\n      dup3\n        /* \"contracts/DonationWithCrypto.sol\":1207:1231  payable(author).transfer */\n      0xffffffffffffffffffffffffffffffffffffffff\n      and\n        /* \"contracts/DonationWithCrypto.sol\":1207:1240  payable(author).transfer(balance) */\n      0x08fc\n        /* \"contracts/DonationWithCrypto.sol\":1232:1239  balance */\n      dup4\n        /* \"contracts/DonationWithCrypto.sol\":1207:1240  payable(author).transfer(balance) */\n      swap1\n      dup2\n      iszero\n      mul\n      swap1\n      mload(0x40)\n      0x00\n      mload(0x40)\n      dup1\n      dup4\n      sub\n      dup2\n      dup6\n      dup9\n      dup9\n      call\n      swap4\n      pop\n      pop\n      pop\n      pop\n      iszero\n      dup1\n      iszero\n      tag_103\n      jumpi\n      returndatasize\n      0x00\n      dup1\n      returndatacopy\n      revert(0x00, returndatasize)\n    tag_103:\n      pop\n        /* \"contracts/DonationWithCrypto.sol\":1139:1251  if(balance > 0) {... */\n    tag_101:\n        /* \"contracts/DonationWithCrypto.sol\":842:1257  {... */\n      pop\n      pop\n      pop\n        /* \"contracts/DonationWithCrypto.sol\":804:1257  function closeRequest(uint id) public {... */\n      pop\n      jump\t// out\n        /* \"contracts/DonationWithCrypto.sol\":1263:1426  function donate(uint id) public payable {... */\n    tag_38:\n        /* \"contracts/DonationWithCrypto.sol\":1337:1346  msg.value */\n      callvalue\n        /* \"contracts/DonationWithCrypto.sol\":1313:1321  requests */\n      0x01\n        /* \"contracts/DonationWithCrypto.sol\":1313:1325  requests[id] */\n      0x00\n        /* \"contracts/DonationWithCrypto.sol\":1322:1324  id */\n      dup4\n        /* \"contracts/DonationWithCrypto.sol\":1313:1325  requests[id] */\n      dup2\n      mstore\n      0x20\n      add\n      swap1\n      dup2\n      mstore\n      0x20\n      add\n      0x00\n      keccak256\n        /* \"contracts/DonationWithCrypto.sol\":1313:1333  requests[id].balance */\n      0x07\n      add\n      0x00\n        /* \"contracts/DonationWithCrypto.sol\":1313:1346  requests[id].balance += msg.value */\n      dup3\n      dup3\n      sload\n      tag_105\n      swap2\n      swap1\n      tag_106\n      jump\t// in\n    tag_105:\n      swap3\n      pop\n      pop\n      dup2\n      swap1\n      sstore\n      pop\n        /* \"contracts/DonationWithCrypto.sol\":1384:1392  requests */\n      0x01\n        /* \"contracts/DonationWithCrypto.sol\":1384:1396  requests[id] */\n      0x00\n        /* \"contracts/DonationWithCrypto.sol\":1393:1395  id */\n      dup3\n        /* \"contracts/DonationWithCrypto.sol\":1384:1396  requests[id] */\n      dup2\n      mstore\n      0x20\n      add\n      swap1\n      dup2\n      mstore\n      0x20\n      add\n      0x00\n      keccak256\n        /* \"contracts/DonationWithCrypto.sol\":1384:1401  requests[id].goal */\n      0x06\n      add\n      sload\n        /* \"contracts/DonationWithCrypto.sol\":1360:1368  requests */\n      0x01\n        /* \"contracts/DonationWithCrypto.sol\":1360:1372  requests[id] */\n      0x00\n        /* \"contracts/DonationWithCrypto.sol\":1369:1371  id */\n      dup4\n        /* \"contracts/DonationWithCrypto.sol\":1360:1372  requests[id] */\n      dup2\n      mstore\n      0x20\n      add\n      swap1\n      dup2\n      mstore\n      0x20\n      add\n      0x00\n      keccak256\n        /* \"contracts/DonationWithCrypto.sol\":1360:1380  requests[id].balance */\n      0x07\n      add\n      sload\n        /* \"contracts/DonationWithCrypto.sol\":1360:1401  requests[id].balance >= requests[id].goal */\n      lt\n        /* \"contracts/DonationWithCrypto.sol\":1357:1419  if(requests[id].balance >= requests[id].goal) closeRequest(id) */\n      tag_107\n      jumpi\n        /* \"contracts/DonationWithCrypto.sol\":1403:1419  closeRequest(id) */\n      tag_108\n        /* \"contracts/DonationWithCrypto.sol\":1416:1418  id */\n      dup2\n        /* \"contracts/DonationWithCrypto.sol\":1403:1415  closeRequest */\n      tag_35\n        /* \"contracts/DonationWithCrypto.sol\":1403:1419  closeRequest(id) */\n      jump\t// in\n    tag_108:\n        /* \"contracts/DonationWithCrypto.sol\":1357:1419  if(requests[id].balance >= requests[id].goal) closeRequest(id) */\n    tag_107:\n        /* \"contracts/DonationWithCrypto.sol\":1263:1426  function donate(uint id) public payable {... */\n      pop\n      jump\t// out\n    tag_69:\n      mload(0x40)\n      dup1\n      0x0120\n      add\n      0x40\n      mstore\n      dup1\n      0x00\n      dup2\n      mstore\n      0x20\n      add\n      and(0xffffffffffffffffffffffffffffffffffffffff, 0x00)\n      dup2\n      mstore\n      0x20\n      add\n      0x60\n      dup2\n      mstore\n      0x20\n      add\n      0x60\n      dup2\n      mstore\n      0x20\n      add\n      0x60\n      dup2\n      mstore\n      0x20\n      add\n      0x00\n      dup2\n      mstore\n      0x20\n      add\n      0x00\n      dup2\n      mstore\n      0x20\n      add\n      0x00\n      dup2\n      mstore\n      0x20\n      add\n      iszero(iszero(0x00))\n      dup2\n      mstore\n      pop\n      swap1\n      jump\t// out\n        /* \"#utility.yul\":7:82   */\n    tag_109:\n        /* \"#utility.yul\":40:46   */\n      0x00\n        /* \"#utility.yul\":73:75   */\n      0x40\n        /* \"#utility.yul\":67:76   */\n      mload\n        /* \"#utility.yul\":57:76   */\n      swap1\n      pop\n        /* \"#utility.yul\":7:82   */\n      swap1\n      jump\t// out\n        /* \"#utility.yul\":88:205   */\n    tag_110:\n        /* \"#utility.yul\":197:198   */\n      0x00\n        /* \"#utility.yul\":194:195   */\n      dup1\n        /* \"#utility.yul\":187:199   */\n      revert\n        /* \"#utility.yul\":211:328   */\n    tag_111:\n        /* \"#utility.yul\":320:321   */\n      0x00\n        /* \"#utility.yul\":317:318   */\n      dup1\n        /* \"#utility.yul\":310:322   */\n      revert\n        /* \"#utility.yul\":334:411   */\n    tag_112:\n        /* \"#utility.yul\":371:378   */\n      0x00\n        /* \"#utility.yul\":400:405   */\n      dup2\n        /* \"#utility.yul\":389:405   */\n      swap1\n      pop\n        /* \"#utility.yul\":334:411   */\n      swap2\n      swap1\n      pop\n      jump\t// out\n        /* \"#utility.yul\":417:539   */\n    tag_113:\n        /* \"#utility.yul\":490:514   */\n      tag_171\n        /* \"#utility.yul\":508:513   */\n      dup2\n        /* \"#utility.yul\":490:514   */\n      tag_112\n      jump\t// in\n    tag_171:\n        /* \"#utility.yul\":483:488   */\n      dup2\n        /* \"#utility.yul\":480:515   */\n      eq\n        /* \"#utility.yul\":470:533   */\n      tag_172\n      jumpi\n        /* \"#utility.yul\":529:530   */\n      0x00\n        /* \"#utility.yul\":526:527   */\n      dup1\n        /* \"#utility.yul\":519:531   */\n      revert\n        /* \"#utility.yul\":470:533   */\n    tag_172:\n        /* \"#utility.yul\":417:539   */\n      pop\n      jump\t// out\n        /* \"#utility.yul\":545:684   */\n    tag_114:\n        /* \"#utility.yul\":591:596   */\n      0x00\n        /* \"#utility.yul\":629:635   */\n      dup2\n        /* \"#utility.yul\":616:636   */\n      calldataload\n        /* \"#utility.yul\":607:636   */\n      swap1\n      pop\n        /* \"#utility.yul\":645:678   */\n      tag_174\n        /* \"#utility.yul\":672:677   */\n      dup2\n        /* \"#utility.yul\":645:678   */\n      tag_113\n      jump\t// in\n    tag_174:\n        /* \"#utility.yul\":545:684   */\n      swap3\n      swap2\n      pop\n      pop\n      jump\t// out\n        /* \"#utility.yul\":690:1019   */\n    tag_11:\n        /* \"#utility.yul\":749:755   */\n      0x00\n        /* \"#utility.yul\":798:800   */\n      0x20\n        /* \"#utility.yul\":786:795   */\n      dup3\n        /* \"#utility.yul\":777:784   */\n      dup5\n        /* \"#utility.yul\":773:796   */\n      sub\n        /* \"#utility.yul\":769:801   */\n      slt\n        /* \"#utility.yul\":766:885   */\n      iszero\n      tag_176\n      jumpi\n        /* \"#utility.yul\":804:883   */\n      tag_177\n      tag_110\n      jump\t// in\n    tag_177:\n        /* \"#utility.yul\":766:885   */\n    tag_176:\n        /* \"#utility.yul\":924:925   */\n      0x00\n        /* \"#utility.yul\":949:1002   */\n      tag_178\n        /* \"#utility.yul\":994:1001   */\n      dup5\n        /* \"#utility.yul\":985:991   */\n      dup3\n        /* \"#utility.yul\":974:983   */\n      dup6\n        /* \"#utility.yul\":970:992   */\n      add\n        /* \"#utility.yul\":949:1002   */\n      tag_114\n      jump\t// in\n    tag_178:\n        /* \"#utility.yul\":939:1002   */\n      swap2\n      pop\n        /* \"#utility.yul\":895:1012   */\n      pop\n        /* \"#utility.yul\":690:1019   */\n      swap3\n      swap2\n      pop\n      pop\n      jump\t// out\n        /* \"#utility.yul\":1025:1143   */\n    tag_115:\n        /* \"#utility.yul\":1112:1136   */\n      tag_180\n        /* \"#utility.yul\":1130:1135   */\n      dup2\n        /* \"#utility.yul\":1112:1136   */\n      tag_112\n      jump\t// in\n    tag_180:\n        /* \"#utility.yul\":1107:1110   */\n      dup3\n        /* \"#utility.yul\":1100:1137   */\n      mstore\n        /* \"#utility.yul\":1025:1143   */\n      pop\n      pop\n      jump\t// out\n        /* \"#utility.yul\":1149:1275   */\n    tag_116:\n        /* \"#utility.yul\":1186:1193   */\n      0x00\n        /* \"#utility.yul\":1226:1268   */\n      0xffffffffffffffffffffffffffffffffffffffff\n        /* \"#utility.yul\":1219:1224   */\n      dup3\n        /* \"#utility.yul\":1215:1269   */\n      and\n        /* \"#utility.yul\":1204:1269   */\n      swap1\n      pop\n        /* \"#utility.yul\":1149:1275   */\n      swap2\n      swap1\n      pop\n      jump\t// out\n        /* \"#utility.yul\":1281:1377   */\n    tag_117:\n        /* \"#utility.yul\":1318:1325   */\n      0x00\n        /* \"#utility.yul\":1347:1371   */\n      tag_183\n        /* \"#utility.yul\":1365:1370   */\n      dup3\n        /* \"#utility.yul\":1347:1371   */\n      tag_116\n      jump\t// in\n    tag_183:\n        /* \"#utility.yul\":1336:1371   */\n      swap1\n      pop\n        /* \"#utility.yul\":1281:1377   */\n      swap2\n      swap1\n      pop\n      jump\t// out\n        /* \"#utility.yul\":1383:1501   */\n    tag_118:\n        /* \"#utility.yul\":1470:1494   */\n      tag_185\n        /* \"#utility.yul\":1488:1493   */\n      dup2\n        /* \"#utility.yul\":1470:1494   */\n      tag_117\n      jump\t// in\n    tag_185:\n        /* \"#utility.yul\":1465:1468   */\n      dup3\n        /* \"#utility.yul\":1458:1495   */\n      mstore\n        /* \"#utility.yul\":1383:1501   */\n      pop\n      pop\n      jump\t// out\n        /* \"#utility.yul\":1507:1606   */\n    tag_119:\n        /* \"#utility.yul\":1559:1565   */\n      0x00\n        /* \"#utility.yul\":1593:1598   */\n      dup2\n        /* \"#utility.yul\":1587:1599   */\n      mload\n        /* \"#utility.yul\":1577:1599   */\n      swap1\n      pop\n        /* \"#utility.yul\":1507:1606   */\n      swap2\n      swap1\n      pop\n      jump\t// out\n        /* \"#utility.yul\":1612:1781   */\n    tag_120:\n        /* \"#utility.yul\":1696:1707   */\n      0x00\n        /* \"#utility.yul\":1730:1736   */\n      dup3\n        /* \"#utility.yul\":1725:1728   */\n      dup3\n        /* \"#utility.yul\":1718:1737   */\n      mstore\n        /* \"#utility.yul\":1770:1774   */\n      0x20\n        /* \"#utility.yul\":1765:1768   */\n      dup3\n        /* \"#utility.yul\":1761:1775   */\n      add\n        /* \"#utility.yul\":1746:1775   */\n      swap1\n      pop\n        /* \"#utility.yul\":1612:1781   */\n      swap3\n      swap2\n      pop\n      pop\n      jump\t// out\n        /* \"#utility.yul\":1787:1926   */\n    tag_121:\n        /* \"#utility.yul\":1876:1882   */\n      dup3\n        /* \"#utility.yul\":1871:1874   */\n      dup2\n        /* \"#utility.yul\":1866:1869   */\n      dup4\n        /* \"#utility.yul\":1860:1883   */\n      mcopy\n        /* \"#utility.yul\":1917:1918   */\n      0x00\n        /* \"#utility.yul\":1908:1914   */\n      dup4\n        /* \"#utility.yul\":1903:1906   */\n      dup4\n        /* \"#utility.yul\":1899:1915   */\n      add\n        /* \"#utility.yul\":1892:1919   */\n      mstore\n        /* \"#utility.yul\":1787:1926   */\n      pop\n      pop\n      pop\n      jump\t// out\n        /* \"#utility.yul\":1932:2034   */\n    tag_122:\n        /* \"#utility.yul\":1973:1979   */\n      0x00\n        /* \"#utility.yul\":2024:2026   */\n      0x1f\n        /* \"#utility.yul\":2020:2027   */\n      not\n        /* \"#utility.yul\":2015:2017   */\n      0x1f\n        /* \"#utility.yul\":2008:2013   */\n      dup4\n        /* \"#utility.yul\":2004:2018   */\n      add\n        /* \"#utility.yul\":2000:2028   */\n      and\n        /* \"#utility.yul\":1990:2028   */\n      swap1\n      pop\n        /* \"#utility.yul\":1932:2034   */\n      swap2\n      swap1\n      pop\n      jump\t// out\n        /* \"#utility.yul\":2040:2417   */\n    tag_123:\n        /* \"#utility.yul\":2128:2131   */\n      0x00\n        /* \"#utility.yul\":2156:2195   */\n      tag_191\n        /* \"#utility.yul\":2189:2194   */\n      dup3\n        /* \"#utility.yul\":2156:2195   */\n      tag_119\n      jump\t// in\n    tag_191:\n        /* \"#utility.yul\":2211:2282   */\n      tag_192\n        /* \"#utility.yul\":2275:2281   */\n      dup2\n        /* \"#utility.yul\":2270:2273   */\n      dup6\n        /* \"#utility.yul\":2211:2282   */\n      tag_120\n      jump\t// in\n    tag_192:\n        /* \"#utility.yul\":2204:2282   */\n      swap4\n      pop\n        /* \"#utility.yul\":2291:2356   */\n      tag_193\n        /* \"#utility.yul\":2349:2355   */\n      dup2\n        /* \"#utility.yul\":2344:2347   */\n      dup6\n        /* \"#utility.yul\":2337:2341   */\n      0x20\n        /* \"#utility.yul\":2330:2335   */\n      dup7\n        /* \"#utility.yul\":2326:2342   */\n      add\n        /* \"#utility.yul\":2291:2356   */\n      tag_121\n      jump\t// in\n    tag_193:\n        /* \"#utility.yul\":2381:2410   */\n      tag_194\n        /* \"#utility.yul\":2403:2409   */\n      dup2\n        /* \"#utility.yul\":2381:2410   */\n      tag_122\n      jump\t// in\n    tag_194:\n        /* \"#utility.yul\":2376:2379   */\n      dup5\n        /* \"#utility.yul\":2372:2411   */\n      add\n        /* \"#utility.yul\":2365:2411   */\n      swap2\n      pop\n        /* \"#utility.yul\":2132:2417   */\n      pop\n        /* \"#utility.yul\":2040:2417   */\n      swap3\n      swap2\n      pop\n      pop\n      jump\t// out\n        /* \"#utility.yul\":2423:2513   */\n    tag_124:\n        /* \"#utility.yul\":2457:2464   */\n      0x00\n        /* \"#utility.yul\":2500:2505   */\n      dup2\n        /* \"#utility.yul\":2493:2506   */\n      iszero\n        /* \"#utility.yul\":2486:2507   */\n      iszero\n        /* \"#utility.yul\":2475:2507   */\n      swap1\n      pop\n        /* \"#utility.yul\":2423:2513   */\n      swap2\n      swap1\n      pop\n      jump\t// out\n        /* \"#utility.yul\":2519:2628   */\n    tag_125:\n        /* \"#utility.yul\":2600:2621   */\n      tag_197\n        /* \"#utility.yul\":2615:2620   */\n      dup2\n        /* \"#utility.yul\":2600:2621   */\n      tag_124\n      jump\t// in\n    tag_197:\n        /* \"#utility.yul\":2595:2598   */\n      dup3\n        /* \"#utility.yul\":2588:2622   */\n      mstore\n        /* \"#utility.yul\":2519:2628   */\n      pop\n      pop\n      jump\t// out\n        /* \"#utility.yul\":2634:4003   */\n    tag_14:\n        /* \"#utility.yul\":3005:3009   */\n      0x00\n        /* \"#utility.yul\":3043:3046   */\n      0x0120\n        /* \"#utility.yul\":3032:3041   */\n      dup3\n        /* \"#utility.yul\":3028:3047   */\n      add\n        /* \"#utility.yul\":3020:3047   */\n      swap1\n      pop\n        /* \"#utility.yul\":3057:3128   */\n      tag_199\n        /* \"#utility.yul\":3125:3126   */\n      0x00\n        /* \"#utility.yul\":3114:3123   */\n      dup4\n        /* \"#utility.yul\":3110:3127   */\n      add\n        /* \"#utility.yul\":3101:3107   */\n      dup13\n        /* \"#utility.yul\":3057:3128   */\n      tag_115\n      jump\t// in\n    tag_199:\n        /* \"#utility.yul\":3138:3210   */\n      tag_200\n        /* \"#utility.yul\":3206:3208   */\n      0x20\n        /* \"#utility.yul\":3195:3204   */\n      dup4\n        /* \"#utility.yul\":3191:3209   */\n      add\n        /* \"#utility.yul\":3182:3188   */\n      dup12\n        /* \"#utility.yul\":3138:3210   */\n      tag_118\n      jump\t// in\n    tag_200:\n        /* \"#utility.yul\":3257:3266   */\n      dup2\n        /* \"#utility.yul\":3251:3255   */\n      dup2\n        /* \"#utility.yul\":3247:3267   */\n      sub\n        /* \"#utility.yul\":3242:3244   */\n      0x40\n        /* \"#utility.yul\":3231:3240   */\n      dup4\n        /* \"#utility.yul\":3227:3245   */\n      add\n        /* \"#utility.yul\":3220:3268   */\n      mstore\n        /* \"#utility.yul\":3285:3363   */\n      tag_201\n        /* \"#utility.yul\":3358:3362   */\n      dup2\n        /* \"#utility.yul\":3349:3355   */\n      dup11\n        /* \"#utility.yul\":3285:3363   */\n      tag_123\n      jump\t// in\n    tag_201:\n        /* \"#utility.yul\":3277:3363   */\n      swap1\n      pop\n        /* \"#utility.yul\":3410:3419   */\n      dup2\n        /* \"#utility.yul\":3404:3408   */\n      dup2\n        /* \"#utility.yul\":3400:3420   */\n      sub\n        /* \"#utility.yul\":3395:3397   */\n      0x60\n        /* \"#utility.yul\":3384:3393   */\n      dup4\n        /* \"#utility.yul\":3380:3398   */\n      add\n        /* \"#utility.yul\":3373:3421   */\n      mstore\n        /* \"#utility.yul\":3438:3516   */\n      tag_202\n        /* \"#utility.yul\":3511:3515   */\n      dup2\n        /* \"#utility.yul\":3502:3508   */\n      dup10\n        /* \"#utility.yul\":3438:3516   */\n      tag_123\n      jump\t// in\n    tag_202:\n        /* \"#utility.yul\":3430:3516   */\n      swap1\n      pop\n        /* \"#utility.yul\":3564:3573   */\n      dup2\n        /* \"#utility.yul\":3558:3562   */\n      dup2\n        /* \"#utility.yul\":3554:3574   */\n      sub\n        /* \"#utility.yul\":3548:3551   */\n      0x80\n        /* \"#utility.yul\":3537:3546   */\n      dup4\n        /* \"#utility.yul\":3533:3552   */\n      add\n        /* \"#utility.yul\":3526:3575   */\n      mstore\n        /* \"#utility.yul\":3592:3670   */\n      tag_203\n        /* \"#utility.yul\":3665:3669   */\n      dup2\n        /* \"#utility.yul\":3656:3662   */\n      dup9\n        /* \"#utility.yul\":3592:3670   */\n      tag_123\n      jump\t// in\n    tag_203:\n        /* \"#utility.yul\":3584:3670   */\n      swap1\n      pop\n        /* \"#utility.yul\":3680:3753   */\n      tag_204\n        /* \"#utility.yul\":3748:3751   */\n      0xa0\n        /* \"#utility.yul\":3737:3746   */\n      dup4\n        /* \"#utility.yul\":3733:3752   */\n      add\n        /* \"#utility.yul\":3724:3730   */\n      dup8\n        /* \"#utility.yul\":3680:3753   */\n      tag_115\n      jump\t// in\n    tag_204:\n        /* \"#utility.yul\":3763:3836   */\n      tag_205\n        /* \"#utility.yul\":3831:3834   */\n      0xc0\n        /* \"#utility.yul\":3820:3829   */\n      dup4\n        /* \"#utility.yul\":3816:3835   */\n      add\n        /* \"#utility.yul\":3807:3813   */\n      dup7\n        /* \"#utility.yul\":3763:3836   */\n      tag_115\n      jump\t// in\n    tag_205:\n        /* \"#utility.yul\":3846:3919   */\n      tag_206\n        /* \"#utility.yul\":3914:3917   */\n      0xe0\n        /* \"#utility.yul\":3903:3912   */\n      dup4\n        /* \"#utility.yul\":3899:3918   */\n      add\n        /* \"#utility.yul\":3890:3896   */\n      dup6\n        /* \"#utility.yul\":3846:3919   */\n      tag_115\n      jump\t// in\n    tag_206:\n        /* \"#utility.yul\":3929:3996   */\n      tag_207\n        /* \"#utility.yul\":3991:3994   */\n      0x0100\n        /* \"#utility.yul\":3980:3989   */\n      dup4\n        /* \"#utility.yul\":3976:3995   */\n      add\n        /* \"#utility.yul\":3967:3973   */\n      dup5\n        /* \"#utility.yul\":3929:3996   */\n      tag_125\n      jump\t// in\n    tag_207:\n        /* \"#utility.yul\":2634:4003   */\n      swap11\n      swap10\n      pop\n      pop\n      pop\n      pop\n      pop\n      pop\n      pop\n      pop\n      pop\n      pop\n      jump\t// out\n        /* \"#utility.yul\":4009:4126   */\n    tag_126:\n        /* \"#utility.yul\":4118:4119   */\n      0x00\n        /* \"#utility.yul\":4115:4116   */\n      dup1\n        /* \"#utility.yul\":4108:4120   */\n      revert\n        /* \"#utility.yul\":4132:4249   */\n    tag_127:\n        /* \"#utility.yul\":4241:4242   */\n      0x00\n        /* \"#utility.yul\":4238:4239   */\n      dup1\n        /* \"#utility.yul\":4231:4243   */\n      revert\n        /* \"#utility.yul\":4255:4435   */\n    tag_65:\n        /* \"#utility.yul\":4303:4380   */\n      0x4e487b7100000000000000000000000000000000000000000000000000000000\n        /* \"#utility.yul\":4300:4301   */\n      0x00\n        /* \"#utility.yul\":4293:4381   */\n      mstore\n        /* \"#utility.yul\":4400:4404   */\n      0x41\n        /* \"#utility.yul\":4397:4398   */\n      0x04\n        /* \"#utility.yul\":4390:4405   */\n      mstore\n        /* \"#utility.yul\":4424:4428   */\n      0x24\n        /* \"#utility.yul\":4421:4422   */\n      0x00\n        /* \"#utility.yul\":4414:4429   */\n      revert\n        /* \"#utility.yul\":4441:4722   */\n    tag_128:\n        /* \"#utility.yul\":4524:4551   */\n      tag_212\n        /* \"#utility.yul\":4546:4550   */\n      dup3\n        /* \"#utility.yul\":4524:4551   */\n      tag_122\n      jump\t// in\n    tag_212:\n        /* \"#utility.yul\":4516:4522   */\n      dup2\n        /* \"#utility.yul\":4512:4552   */\n      add\n        /* \"#utility.yul\":4654:4660   */\n      dup2\n        /* \"#utility.yul\":4642:4652   */\n      dup2\n        /* \"#utility.yul\":4639:4661   */\n      lt\n        /* \"#utility.yul\":4618:4636   */\n      0xffffffffffffffff\n        /* \"#utility.yul\":4606:4616   */\n      dup3\n        /* \"#utility.yul\":4603:4637   */\n      gt\n        /* \"#utility.yul\":4600:4662   */\n      or\n        /* \"#utility.yul\":4597:4685   */\n      iszero\n      tag_213\n      jumpi\n        /* \"#utility.yul\":4665:4683   */\n      tag_214\n      tag_65\n      jump\t// in\n    tag_214:\n        /* \"#utility.yul\":4597:4685   */\n    tag_213:\n        /* \"#utility.yul\":4705:4715   */\n      dup1\n        /* \"#utility.yul\":4701:4703   */\n      0x40\n        /* \"#utility.yul\":4694:4716   */\n      mstore\n        /* \"#utility.yul\":4484:4722   */\n      pop\n        /* \"#utility.yul\":4441:4722   */\n      pop\n      pop\n      jump\t// out\n        /* \"#utility.yul\":4728:4857   */\n    tag_129:\n        /* \"#utility.yul\":4762:4768   */\n      0x00\n        /* \"#utility.yul\":4789:4809   */\n      tag_216\n      tag_109\n      jump\t// in\n    tag_216:\n        /* \"#utility.yul\":4779:4809   */\n      swap1\n      pop\n        /* \"#utility.yul\":4818:4851   */\n      tag_217\n        /* \"#utility.yul\":4846:4850   */\n      dup3\n        /* \"#utility.yul\":4838:4844   */\n      dup3\n        /* \"#utility.yul\":4818:4851   */\n      tag_128\n      jump\t// in\n    tag_217:\n        /* \"#utility.yul\":4728:4857   */\n      swap2\n      swap1\n      pop\n      jump\t// out\n        /* \"#utility.yul\":4863:5171   */\n    tag_130:\n        /* \"#utility.yul\":4925:4929   */\n      0x00\n        /* \"#utility.yul\":5015:5033   */\n      0xffffffffffffffff\n        /* \"#utility.yul\":5007:5013   */\n      dup3\n        /* \"#utility.yul\":5004:5034   */\n      gt\n        /* \"#utility.yul\":5001:5057   */\n      iszero\n      tag_219\n      jumpi\n        /* \"#utility.yul\":5037:5055   */\n      tag_220\n      tag_65\n      jump\t// in\n    tag_220:\n        /* \"#utility.yul\":5001:5057   */\n    tag_219:\n        /* \"#utility.yul\":5075:5104   */\n      tag_221\n        /* \"#utility.yul\":5097:5103   */\n      dup3\n        /* \"#utility.yul\":5075:5104   */\n      tag_122\n      jump\t// in\n    tag_221:\n        /* \"#utility.yul\":5067:5104   */\n      swap1\n      pop\n        /* \"#utility.yul\":5159:5163   */\n      0x20\n        /* \"#utility.yul\":5153:5157   */\n      dup2\n        /* \"#utility.yul\":5149:5164   */\n      add\n        /* \"#utility.yul\":5141:5164   */\n      swap1\n      pop\n        /* \"#utility.yul\":4863:5171   */\n      swap2\n      swap1\n      pop\n      jump\t// out\n        /* \"#utility.yul\":5177:5325   */\n    tag_131:\n        /* \"#utility.yul\":5275:5281   */\n      dup3\n        /* \"#utility.yul\":5270:5273   */\n      dup2\n        /* \"#utility.yul\":5265:5268   */\n      dup4\n        /* \"#utility.yul\":5252:5282   */\n      calldatacopy\n        /* \"#utility.yul\":5316:5317   */\n      0x00\n        /* \"#utility.yul\":5307:5313   */\n      dup4\n        /* \"#utility.yul\":5302:5305   */\n      dup4\n        /* \"#utility.yul\":5298:5314   */\n      add\n        /* \"#utility.yul\":5291:5318   */\n      mstore\n        /* \"#utility.yul\":5177:5325   */\n      pop\n      pop\n      pop\n      jump\t// out\n        /* \"#utility.yul\":5331:5756   */\n    tag_132:\n        /* \"#utility.yul\":5409:5414   */\n      0x00\n        /* \"#utility.yul\":5434:5500   */\n      tag_224\n        /* \"#utility.yul\":5450:5499   */\n      tag_225\n        /* \"#utility.yul\":5492:5498   */\n      dup5\n        /* \"#utility.yul\":5450:5499   */\n      tag_130\n      jump\t// in\n    tag_225:\n        /* \"#utility.yul\":5434:5500   */\n      tag_129\n      jump\t// in\n    tag_224:\n        /* \"#utility.yul\":5425:5500   */\n      swap1\n      pop\n        /* \"#utility.yul\":5523:5529   */\n      dup3\n        /* \"#utility.yul\":5516:5521   */\n      dup2\n        /* \"#utility.yul\":5509:5530   */\n      mstore\n        /* \"#utility.yul\":5561:5565   */\n      0x20\n        /* \"#utility.yul\":5554:5559   */\n      dup2\n        /* \"#utility.yul\":5550:5566   */\n      add\n        /* \"#utility.yul\":5599:5602   */\n      dup5\n        /* \"#utility.yul\":5590:5596   */\n      dup5\n        /* \"#utility.yul\":5585:5588   */\n      dup5\n        /* \"#utility.yul\":5581:5597   */\n      add\n        /* \"#utility.yul\":5578:5603   */\n      gt\n        /* \"#utility.yul\":5575:5687   */\n      iszero\n      tag_226\n      jumpi\n        /* \"#utility.yul\":5606:5685   */\n      tag_227\n      tag_127\n      jump\t// in\n    tag_227:\n        /* \"#utility.yul\":5575:5687   */\n    tag_226:\n        /* \"#utility.yul\":5696:5750   */\n      tag_228\n        /* \"#utility.yul\":5743:5749   */\n      dup5\n        /* \"#utility.yul\":5738:5741   */\n      dup3\n        /* \"#utility.yul\":5733:5736   */\n      dup6\n        /* \"#utility.yul\":5696:5750   */\n      tag_131\n      jump\t// in\n    tag_228:\n        /* \"#utility.yul\":5415:5756   */\n      pop\n        /* \"#utility.yul\":5331:5756   */\n      swap4\n      swap3\n      pop\n      pop\n      pop\n      jump\t// out\n        /* \"#utility.yul\":5776:6116   */\n    tag_133:\n        /* \"#utility.yul\":5832:5837   */\n      0x00\n        /* \"#utility.yul\":5881:5884   */\n      dup3\n        /* \"#utility.yul\":5874:5878   */\n      0x1f\n        /* \"#utility.yul\":5866:5872   */\n      dup4\n        /* \"#utility.yul\":5862:5879   */\n      add\n        /* \"#utility.yul\":5858:5885   */\n      slt\n        /* \"#utility.yul\":5848:5970   */\n      tag_230\n      jumpi\n        /* \"#utility.yul\":5889:5968   */\n      tag_231\n      tag_126\n      jump\t// in\n    tag_231:\n        /* \"#utility.yul\":5848:5970   */\n    tag_230:\n        /* \"#utility.yul\":6006:6012   */\n      dup2\n        /* \"#utility.yul\":5993:6013   */\n      calldataload\n        /* \"#utility.yul\":6031:6110   */\n      tag_232\n        /* \"#utility.yul\":6106:6109   */\n      dup5\n        /* \"#utility.yul\":6098:6104   */\n      dup3\n        /* \"#utility.yul\":6091:6095   */\n      0x20\n        /* \"#utility.yul\":6083:6089   */\n      dup7\n        /* \"#utility.yul\":6079:6096   */\n      add\n        /* \"#utility.yul\":6031:6110   */\n      tag_132\n      jump\t// in\n    tag_232:\n        /* \"#utility.yul\":6022:6110   */\n      swap2\n      pop\n        /* \"#utility.yul\":5838:6116   */\n      pop\n        /* \"#utility.yul\":5776:6116   */\n      swap3\n      swap2\n      pop\n      pop\n      jump\t// out\n        /* \"#utility.yul\":6122:7427   */\n    tag_18:\n        /* \"#utility.yul\":6238:6244   */\n      0x00\n        /* \"#utility.yul\":6246:6252   */\n      dup1\n        /* \"#utility.yul\":6254:6260   */\n      0x00\n        /* \"#utility.yul\":6262:6268   */\n      dup1\n        /* \"#utility.yul\":6311:6314   */\n      0x80\n        /* \"#utility.yul\":6299:6308   */\n      dup6\n        /* \"#utility.yul\":6290:6297   */\n      dup8\n        /* \"#utility.yul\":6286:6309   */\n      sub\n        /* \"#utility.yul\":6282:6315   */\n      slt\n        /* \"#utility.yul\":6279:6399   */\n      iszero\n      tag_234\n      jumpi\n        /* \"#utility.yul\":6318:6397   */\n      tag_235\n      tag_110\n      jump\t// in\n    tag_235:\n        /* \"#utility.yul\":6279:6399   */\n    tag_234:\n        /* \"#utility.yul\":6466:6467   */\n      0x00\n        /* \"#utility.yul\":6455:6464   */\n      dup6\n        /* \"#utility.yul\":6451:6468   */\n      add\n        /* \"#utility.yul\":6438:6469   */\n      calldataload\n        /* \"#utility.yul\":6496:6514   */\n      0xffffffffffffffff\n        /* \"#utility.yul\":6488:6494   */\n      dup2\n        /* \"#utility.yul\":6485:6515   */\n      gt\n        /* \"#utility.yul\":6482:6599   */\n      iszero\n      tag_236\n      jumpi\n        /* \"#utility.yul\":6518:6597   */\n      tag_237\n      tag_111\n      jump\t// in\n    tag_237:\n        /* \"#utility.yul\":6482:6599   */\n    tag_236:\n        /* \"#utility.yul\":6623:6686   */\n      tag_238\n        /* \"#utility.yul\":6678:6685   */\n      dup8\n        /* \"#utility.yul\":6669:6675   */\n      dup3\n        /* \"#utility.yul\":6658:6667   */\n      dup9\n        /* \"#utility.yul\":6654:6676   */\n      add\n        /* \"#utility.yul\":6623:6686   */\n      tag_133\n      jump\t// in\n    tag_238:\n        /* \"#utility.yul\":6613:6686   */\n      swap5\n      pop\n        /* \"#utility.yul\":6409:6696   */\n      pop\n        /* \"#utility.yul\":6763:6765   */\n      0x20\n        /* \"#utility.yul\":6752:6761   */\n      dup6\n        /* \"#utility.yul\":6748:6766   */\n      add\n        /* \"#utility.yul\":6735:6767   */\n      calldataload\n        /* \"#utility.yul\":6794:6812   */\n      0xffffffffffffffff\n        /* \"#utility.yul\":6786:6792   */\n      dup2\n        /* \"#utility.yul\":6783:6813   */\n      gt\n        /* \"#utility.yul\":6780:6897   */\n      iszero\n      tag_239\n      jumpi\n        /* \"#utility.yul\":6816:6895   */\n      tag_240\n      tag_111\n      jump\t// in\n    tag_240:\n        /* \"#utility.yul\":6780:6897   */\n    tag_239:\n        /* \"#utility.yul\":6921:6984   */\n      tag_241\n        /* \"#utility.yul\":6976:6983   */\n      dup8\n        /* \"#utility.yul\":6967:6973   */\n      dup3\n        /* \"#utility.yul\":6956:6965   */\n      dup9\n        /* \"#utility.yul\":6952:6974   */\n      add\n        /* \"#utility.yul\":6921:6984   */\n      tag_133\n      jump\t// in\n    tag_241:\n        /* \"#utility.yul\":6911:6984   */\n      swap4\n      pop\n        /* \"#utility.yul\":6706:6994   */\n      pop\n        /* \"#utility.yul\":7061:7063   */\n      0x40\n        /* \"#utility.yul\":7050:7059   */\n      dup6\n        /* \"#utility.yul\":7046:7064   */\n      add\n        /* \"#utility.yul\":7033:7065   */\n      calldataload\n        /* \"#utility.yul\":7092:7110   */\n      0xffffffffffffffff\n        /* \"#utility.yul\":7084:7090   */\n      dup2\n        /* \"#utility.yul\":7081:7111   */\n      gt\n        /* \"#utility.yul\":7078:7195   */\n      iszero\n      tag_242\n      jumpi\n        /* \"#utility.yul\":7114:7193   */\n      tag_243\n      tag_111\n      jump\t// in\n    tag_243:\n        /* \"#utility.yul\":7078:7195   */\n    tag_242:\n        /* \"#utility.yul\":7219:7282   */\n      tag_244\n        /* \"#utility.yul\":7274:7281   */\n      dup8\n        /* \"#utility.yul\":7265:7271   */\n      dup3\n        /* \"#utility.yul\":7254:7263   */\n      dup9\n        /* \"#utility.yul\":7250:7272   */\n      add\n        /* \"#utility.yul\":7219:7282   */\n      tag_133\n      jump\t// in\n    tag_244:\n        /* \"#utility.yul\":7209:7282   */\n      swap3\n      pop\n        /* \"#utility.yul\":7004:7292   */\n      pop\n        /* \"#utility.yul\":7331:7333   */\n      0x60\n        /* \"#utility.yul\":7357:7410   */\n      tag_245\n        /* \"#utility.yul\":7402:7409   */\n      dup8\n        /* \"#utility.yul\":7393:7399   */\n      dup3\n        /* \"#utility.yul\":7382:7391   */\n      dup9\n        /* \"#utility.yul\":7378:7400   */\n      add\n        /* \"#utility.yul\":7357:7410   */\n      tag_114\n      jump\t// in\n    tag_245:\n        /* \"#utility.yul\":7347:7410   */\n      swap2\n      pop\n        /* \"#utility.yul\":7302:7420   */\n      pop\n        /* \"#utility.yul\":6122:7427   */\n      swap3\n      swap6\n      swap2\n      swap5\n      pop\n      swap3\n      pop\n      jump\t// out\n        /* \"#utility.yul\":7433:7907   */\n    tag_23:\n        /* \"#utility.yul\":7501:7507   */\n      0x00\n        /* \"#utility.yul\":7509:7515   */\n      dup1\n        /* \"#utility.yul\":7558:7560   */\n      0x40\n        /* \"#utility.yul\":7546:7555   */\n      dup4\n        /* \"#utility.yul\":7537:7544   */\n      dup6\n        /* \"#utility.yul\":7533:7556   */\n      sub\n        /* \"#utility.yul\":7529:7561   */\n      slt\n        /* \"#utility.yul\":7526:7645   */\n      iszero\n      tag_247\n      jumpi\n        /* \"#utility.yul\":7564:7643   */\n      tag_248\n      tag_110\n      jump\t// in\n    tag_248:\n        /* \"#utility.yul\":7526:7645   */\n    tag_247:\n        /* \"#utility.yul\":7684:7685   */\n      0x00\n        /* \"#utility.yul\":7709:7762   */\n      tag_249\n        /* \"#utility.yul\":7754:7761   */\n      dup6\n        /* \"#utility.yul\":7745:7751   */\n      dup3\n        /* \"#utility.yul\":7734:7743   */\n      dup7\n        /* \"#utility.yul\":7730:7752   */\n      add\n        /* \"#utility.yul\":7709:7762   */\n      tag_114\n      jump\t// in\n    tag_249:\n        /* \"#utility.yul\":7699:7762   */\n      swap3\n      pop\n        /* \"#utility.yul\":7655:7772   */\n      pop\n        /* \"#utility.yul\":7811:7813   */\n      0x20\n        /* \"#utility.yul\":7837:7890   */\n      tag_250\n        /* \"#utility.yul\":7882:7889   */\n      dup6\n        /* \"#utility.yul\":7873:7879   */\n      dup3\n        /* \"#utility.yul\":7862:7871   */\n      dup7\n        /* \"#utility.yul\":7858:7880   */\n      add\n        /* \"#utility.yul\":7837:7890   */\n      tag_114\n      jump\t// in\n    tag_250:\n        /* \"#utility.yul\":7827:7890   */\n      swap2\n      pop\n        /* \"#utility.yul\":7782:7900   */\n      pop\n        /* \"#utility.yul\":7433:7907   */\n      swap3\n      pop\n      swap3\n      swap1\n      pop\n      jump\t// out\n        /* \"#utility.yul\":7913:8050   */\n    tag_134:\n        /* \"#utility.yul\":8003:8009   */\n      0x00\n        /* \"#utility.yul\":8037:8042   */\n      dup2\n        /* \"#utility.yul\":8031:8043   */\n      mload\n        /* \"#utility.yul\":8021:8043   */\n      swap1\n      pop\n        /* \"#utility.yul\":7913:8050   */\n      swap2\n      swap1\n      pop\n      jump\t// out\n        /* \"#utility.yul\":8056:8263   */\n    tag_135:\n        /* \"#utility.yul\":8178:8189   */\n      0x00\n        /* \"#utility.yul\":8212:8218   */\n      dup3\n        /* \"#utility.yul\":8207:8210   */\n      dup3\n        /* \"#utility.yul\":8200:8219   */\n      mstore\n        /* \"#utility.yul\":8252:8256   */\n      0x20\n        /* \"#utility.yul\":8247:8250   */\n      dup3\n        /* \"#utility.yul\":8243:8257   */\n      add\n        /* \"#utility.yul\":8228:8257   */\n      swap1\n      pop\n        /* \"#utility.yul\":8056:8263   */\n      swap3\n      swap2\n      pop\n      pop\n      jump\t// out\n        /* \"#utility.yul\":8269:8424   */\n    tag_136:\n        /* \"#utility.yul\":8359:8363   */\n      0x00\n        /* \"#utility.yul\":8382:8385   */\n      dup2\n        /* \"#utility.yul\":8374:8385   */\n      swap1\n      pop\n        /* \"#utility.yul\":8412:8416   */\n      0x20\n        /* \"#utility.yul\":8407:8410   */\n      dup3\n        /* \"#utility.yul\":8403:8417   */\n      add\n        /* \"#utility.yul\":8395:8417   */\n      swap1\n      pop\n        /* \"#utility.yul\":8269:8424   */\n      swap2\n      swap1\n      pop\n      jump\t// out\n        /* \"#utility.yul\":8430:8538   */\n    tag_137:\n        /* \"#utility.yul\":8507:8531   */\n      tag_255\n        /* \"#utility.yul\":8525:8530   */\n      dup2\n        /* \"#utility.yul\":8507:8531   */\n      tag_112\n      jump\t// in\n    tag_255:\n        /* \"#utility.yul\":8502:8505   */\n      dup3\n        /* \"#utility.yul\":8495:8532   */\n      mstore\n        /* \"#utility.yul\":8430:8538   */\n      pop\n      pop\n      jump\t// out\n        /* \"#utility.yul\":8544:8652   */\n    tag_138:\n        /* \"#utility.yul\":8621:8645   */\n      tag_257\n        /* \"#utility.yul\":8639:8644   */\n      dup2\n        /* \"#utility.yul\":8621:8645   */\n      tag_117\n      jump\t// in\n    tag_257:\n        /* \"#utility.yul\":8616:8619   */\n      dup3\n        /* \"#utility.yul\":8609:8646   */\n      mstore\n        /* \"#utility.yul\":8544:8652   */\n      pop\n      pop\n      jump\t// out\n        /* \"#utility.yul\":8658:8817   */\n    tag_139:\n        /* \"#utility.yul\":8732:8743   */\n      0x00\n        /* \"#utility.yul\":8766:8772   */\n      dup3\n        /* \"#utility.yul\":8761:8764   */\n      dup3\n        /* \"#utility.yul\":8754:8773   */\n      mstore\n        /* \"#utility.yul\":8806:8810   */\n      0x20\n        /* \"#utility.yul\":8801:8804   */\n      dup3\n        /* \"#utility.yul\":8797:8811   */\n      add\n        /* \"#utility.yul\":8782:8811   */\n      swap1\n      pop\n        /* \"#utility.yul\":8658:8817   */\n      swap3\n      swap2\n      pop\n      pop\n      jump\t// out\n        /* \"#utility.yul\":8823:9180   */\n    tag_140:\n        /* \"#utility.yul\":8901:8904   */\n      0x00\n        /* \"#utility.yul\":8929:8968   */\n      tag_260\n        /* \"#utility.yul\":8962:8967   */\n      dup3\n        /* \"#utility.yul\":8929:8968   */\n      tag_119\n      jump\t// in\n    tag_260:\n        /* \"#utility.yul\":8984:9045   */\n      tag_261\n        /* \"#utility.yul\":9038:9044   */\n      dup2\n        /* \"#utility.yul\":9033:9036   */\n      dup6\n        /* \"#utility.yul\":8984:9045   */\n      tag_139\n      jump\t// in\n    tag_261:\n        /* \"#utility.yul\":8977:9045   */\n      swap4\n      pop\n        /* \"#utility.yul\":9054:9119   */\n      tag_262\n        /* \"#utility.yul\":9112:9118   */\n      dup2\n        /* \"#utility.yul\":9107:9110   */\n      dup6\n        /* \"#utility.yul\":9100:9104   */\n      0x20\n        /* \"#utility.yul\":9093:9098   */\n      dup7\n        /* \"#utility.yul\":9089:9105   */\n      add\n        /* \"#utility.yul\":9054:9119   */\n      tag_121\n      jump\t// in\n    tag_262:\n        /* \"#utility.yul\":9144:9173   */\n      tag_263\n        /* \"#utility.yul\":9166:9172   */\n      dup2\n        /* \"#utility.yul\":9144:9173   */\n      tag_122\n      jump\t// in\n    tag_263:\n        /* \"#utility.yul\":9139:9142   */\n      dup5\n        /* \"#utility.yul\":9135:9174   */\n      add\n        /* \"#utility.yul\":9128:9174   */\n      swap2\n      pop\n        /* \"#utility.yul\":8905:9180   */\n      pop\n        /* \"#utility.yul\":8823:9180   */\n      swap3\n      swap2\n      pop\n      pop\n      jump\t// out\n        /* \"#utility.yul\":9186:9285   */\n    tag_141:\n        /* \"#utility.yul\":9257:9278   */\n      tag_265\n        /* \"#utility.yul\":9272:9277   */\n      dup2\n        /* \"#utility.yul\":9257:9278   */\n      tag_124\n      jump\t// in\n    tag_265:\n        /* \"#utility.yul\":9252:9255   */\n      dup3\n        /* \"#utility.yul\":9245:9279   */\n      mstore\n        /* \"#utility.yul\":9186:9285   */\n      pop\n      pop\n      jump\t// out\n        /* \"#utility.yul\":9331:11302   */\n    tag_142:\n        /* \"#utility.yul\":9436:9439   */\n      0x00\n        /* \"#utility.yul\":9472:9478   */\n      0x0120\n        /* \"#utility.yul\":9467:9470   */\n      dup4\n        /* \"#utility.yul\":9463:9479   */\n      add\n        /* \"#utility.yul\":9559:9563   */\n      0x00\n        /* \"#utility.yul\":9552:9557   */\n      dup4\n        /* \"#utility.yul\":9548:9564   */\n      add\n        /* \"#utility.yul\":9542:9565   */\n      mload\n        /* \"#utility.yul\":9578:9641   */\n      tag_267\n        /* \"#utility.yul\":9635:9639   */\n      0x00\n        /* \"#utility.yul\":9630:9633   */\n      dup7\n        /* \"#utility.yul\":9626:9640   */\n      add\n        /* \"#utility.yul\":9612:9624   */\n      dup3\n        /* \"#utility.yul\":9578:9641   */\n      tag_137\n      jump\t// in\n    tag_267:\n        /* \"#utility.yul\":9489:9651   */\n      pop\n        /* \"#utility.yul\":9735:9739   */\n      0x20\n        /* \"#utility.yul\":9728:9733   */\n      dup4\n        /* \"#utility.yul\":9724:9740   */\n      add\n        /* \"#utility.yul\":9718:9741   */\n      mload\n        /* \"#utility.yul\":9754:9817   */\n      tag_268\n        /* \"#utility.yul\":9811:9815   */\n      0x20\n        /* \"#utility.yul\":9806:9809   */\n      dup7\n        /* \"#utility.yul\":9802:9816   */\n      add\n        /* \"#utility.yul\":9788:9800   */\n      dup3\n        /* \"#utility.yul\":9754:9817   */\n      tag_138\n      jump\t// in\n    tag_268:\n        /* \"#utility.yul\":9661:9827   */\n      pop\n        /* \"#utility.yul\":9910:9914   */\n      0x40\n        /* \"#utility.yul\":9903:9908   */\n      dup4\n        /* \"#utility.yul\":9899:9915   */\n      add\n        /* \"#utility.yul\":9893:9916   */\n      mload\n        /* \"#utility.yul\":9963:9966   */\n      dup5\n        /* \"#utility.yul\":9957:9961   */\n      dup3\n        /* \"#utility.yul\":9953:9967   */\n      sub\n        /* \"#utility.yul\":9946:9950   */\n      0x40\n        /* \"#utility.yul\":9941:9944   */\n      dup7\n        /* \"#utility.yul\":9937:9951   */\n      add\n        /* \"#utility.yul\":9930:9968   */\n      mstore\n        /* \"#utility.yul\":9989:10062   */\n      tag_269\n        /* \"#utility.yul\":10057:10061   */\n      dup3\n        /* \"#utility.yul\":10043:10055   */\n      dup3\n        /* \"#utility.yul\":9989:10062   */\n      tag_140\n      jump\t// in\n    tag_269:\n        /* \"#utility.yul\":9981:10062   */\n      swap2\n      pop\n        /* \"#utility.yul\":9837:10073   */\n      pop\n        /* \"#utility.yul\":10162:10166   */\n      0x60\n        /* \"#utility.yul\":10155:10160   */\n      dup4\n        /* \"#utility.yul\":10151:10167   */\n      add\n        /* \"#utility.yul\":10145:10168   */\n      mload\n        /* \"#utility.yul\":10215:10218   */\n      dup5\n        /* \"#utility.yul\":10209:10213   */\n      dup3\n        /* \"#utility.yul\":10205:10219   */\n      sub\n        /* \"#utility.yul\":10198:10202   */\n      0x60\n        /* \"#utility.yul\":10193:10196   */\n      dup7\n        /* \"#utility.yul\":10189:10203   */\n      add\n        /* \"#utility.yul\":10182:10220   */\n      mstore\n        /* \"#utility.yul\":10241:10314   */\n      tag_270\n        /* \"#utility.yul\":10309:10313   */\n      dup3\n        /* \"#utility.yul\":10295:10307   */\n      dup3\n        /* \"#utility.yul\":10241:10314   */\n      tag_140\n      jump\t// in\n    tag_270:\n        /* \"#utility.yul\":10233:10314   */\n      swap2\n      pop\n        /* \"#utility.yul\":10083:10325   */\n      pop\n        /* \"#utility.yul\":10410:10414   */\n      0x80\n        /* \"#utility.yul\":10403:10408   */\n      dup4\n        /* \"#utility.yul\":10399:10415   */\n      add\n        /* \"#utility.yul\":10393:10416   */\n      mload\n        /* \"#utility.yul\":10463:10466   */\n      dup5\n        /* \"#utility.yul\":10457:10461   */\n      dup3\n        /* \"#utility.yul\":10453:10467   */\n      sub\n        /* \"#utility.yul\":10446:10450   */\n      0x80\n        /* \"#utility.yul\":10441:10444   */\n      dup7\n        /* \"#utility.yul\":10437:10451   */\n      add\n        /* \"#utility.yul\":10430:10468   */\n      mstore\n        /* \"#utility.yul\":10489:10562   */\n      tag_271\n        /* \"#utility.yul\":10557:10561   */\n      dup3\n        /* \"#utility.yul\":10543:10555   */\n      dup3\n        /* \"#utility.yul\":10489:10562   */\n      tag_140\n      jump\t// in\n    tag_271:\n        /* \"#utility.yul\":10481:10562   */\n      swap2\n      pop\n        /* \"#utility.yul\":10335:10573   */\n      pop\n        /* \"#utility.yul\":10660:10664   */\n      0xa0\n        /* \"#utility.yul\":10653:10658   */\n      dup4\n        /* \"#utility.yul\":10649:10665   */\n      add\n        /* \"#utility.yul\":10643:10666   */\n      mload\n        /* \"#utility.yul\":10679:10742   */\n      tag_272\n        /* \"#utility.yul\":10736:10740   */\n      0xa0\n        /* \"#utility.yul\":10731:10734   */\n      dup7\n        /* \"#utility.yul\":10727:10741   */\n      add\n        /* \"#utility.yul\":10713:10725   */\n      dup3\n        /* \"#utility.yul\":10679:10742   */\n      tag_137\n      jump\t// in\n    tag_272:\n        /* \"#utility.yul\":10583:10752   */\n      pop\n        /* \"#utility.yul\":10834:10838   */\n      0xc0\n        /* \"#utility.yul\":10827:10832   */\n      dup4\n        /* \"#utility.yul\":10823:10839   */\n      add\n        /* \"#utility.yul\":10817:10840   */\n      mload\n        /* \"#utility.yul\":10853:10916   */\n      tag_273\n        /* \"#utility.yul\":10910:10914   */\n      0xc0\n        /* \"#utility.yul\":10905:10908   */\n      dup7\n        /* \"#utility.yul\":10901:10915   */\n      add\n        /* \"#utility.yul\":10887:10899   */\n      dup3\n        /* \"#utility.yul\":10853:10916   */\n      tag_137\n      jump\t// in\n    tag_273:\n        /* \"#utility.yul\":10762:10926   */\n      pop\n        /* \"#utility.yul\":11011:11015   */\n      0xe0\n        /* \"#utility.yul\":11004:11009   */\n      dup4\n        /* \"#utility.yul\":11000:11016   */\n      add\n        /* \"#utility.yul\":10994:11017   */\n      mload\n        /* \"#utility.yul\":11030:11093   */\n      tag_274\n        /* \"#utility.yul\":11087:11091   */\n      0xe0\n        /* \"#utility.yul\":11082:11085   */\n      dup7\n        /* \"#utility.yul\":11078:11092   */\n      add\n        /* \"#utility.yul\":11064:11076   */\n      dup3\n        /* \"#utility.yul\":11030:11093   */\n      tag_137\n      jump\t// in\n    tag_274:\n        /* \"#utility.yul\":10936:11103   */\n      pop\n        /* \"#utility.yul\":11185:11191   */\n      0x0100\n        /* \"#utility.yul\":11178:11183   */\n      dup4\n        /* \"#utility.yul\":11174:11192   */\n      add\n        /* \"#utility.yul\":11168:11193   */\n      mload\n        /* \"#utility.yul\":11206:11265   */\n      tag_275\n        /* \"#utility.yul\":11257:11263   */\n      0x0100\n        /* \"#utility.yul\":11252:11255   */\n      dup7\n        /* \"#utility.yul\":11248:11264   */\n      add\n        /* \"#utility.yul\":11234:11246   */\n      dup3\n        /* \"#utility.yul\":11206:11265   */\n      tag_141\n      jump\t// in\n    tag_275:\n        /* \"#utility.yul\":11113:11275   */\n      pop\n        /* \"#utility.yul\":11292:11296   */\n      dup1\n        /* \"#utility.yul\":11285:11296   */\n      swap2\n      pop\n        /* \"#utility.yul\":9441:11302   */\n      pop\n        /* \"#utility.yul\":9331:11302   */\n      swap3\n      swap2\n      pop\n      pop\n      jump\t// out\n        /* \"#utility.yul\":11308:11556   */\n    tag_143:\n        /* \"#utility.yul\":11423:11433   */\n      0x00\n        /* \"#utility.yul\":11458:11550   */\n      tag_277\n        /* \"#utility.yul\":11546:11549   */\n      dup4\n        /* \"#utility.yul\":11538:11544   */\n      dup4\n        /* \"#utility.yul\":11458:11550   */\n      tag_142\n      jump\t// in\n    tag_277:\n        /* \"#utility.yul\":11444:11550   */\n      swap1\n      pop\n        /* \"#utility.yul\":11308:11556   */\n      swap3\n      swap2\n      pop\n      pop\n      jump\t// out\n        /* \"#utility.yul\":11562:11698   */\n    tag_144:\n        /* \"#utility.yul\":11655:11659   */\n      0x00\n        /* \"#utility.yul\":11687:11691   */\n      0x20\n        /* \"#utility.yul\":11682:11685   */\n      dup3\n        /* \"#utility.yul\":11678:11692   */\n      add\n        /* \"#utility.yul\":11670:11692   */\n      swap1\n      pop\n        /* \"#utility.yul\":11562:11698   */\n      swap2\n      swap1\n      pop\n      jump\t// out\n        /* \"#utility.yul\":11748:12843   */\n    tag_145:\n        /* \"#utility.yul\":11913:11916   */\n      0x00\n        /* \"#utility.yul\":11942:12019   */\n      tag_280\n        /* \"#utility.yul\":12013:12018   */\n      dup3\n        /* \"#utility.yul\":11942:12019   */\n      tag_134\n      jump\t// in\n    tag_280:\n        /* \"#utility.yul\":12035:12144   */\n      tag_281\n        /* \"#utility.yul\":12137:12143   */\n      dup2\n        /* \"#utility.yul\":12132:12135   */\n      dup6\n        /* \"#utility.yul\":12035:12144   */\n      tag_135\n      jump\t// in\n    tag_281:\n        /* \"#utility.yul\":12028:12144   */\n      swap4\n      pop\n        /* \"#utility.yul\":12170:12173   */\n      dup4\n        /* \"#utility.yul\":12215:12219   */\n      0x20\n        /* \"#utility.yul\":12207:12213   */\n      dup3\n        /* \"#utility.yul\":12203:12220   */\n      mul\n        /* \"#utility.yul\":12198:12201   */\n      dup6\n        /* \"#utility.yul\":12194:12221   */\n      add\n        /* \"#utility.yul\":12245:12324   */\n      tag_282\n        /* \"#utility.yul\":12318:12323   */\n      dup6\n        /* \"#utility.yul\":12245:12324   */\n      tag_136\n      jump\t// in\n    tag_282:\n        /* \"#utility.yul\":12347:12354   */\n      dup1\n        /* \"#utility.yul\":12378:12379   */\n      0x00\n        /* \"#utility.yul\":12363:12798   */\n    tag_283:\n        /* \"#utility.yul\":12388:12394   */\n      dup6\n        /* \"#utility.yul\":12385:12386   */\n      dup2\n        /* \"#utility.yul\":12382:12395   */\n      lt\n        /* \"#utility.yul\":12363:12798   */\n      iszero\n      tag_285\n      jumpi\n        /* \"#utility.yul\":12459:12468   */\n      dup5\n        /* \"#utility.yul\":12453:12457   */\n      dup5\n        /* \"#utility.yul\":12449:12469   */\n      sub\n        /* \"#utility.yul\":12444:12447   */\n      dup10\n        /* \"#utility.yul\":12437:12470   */\n      mstore\n        /* \"#utility.yul\":12510:12516   */\n      dup2\n        /* \"#utility.yul\":12504:12517   */\n      mload\n        /* \"#utility.yul\":12538:12648   */\n      tag_286\n        /* \"#utility.yul\":12643:12647   */\n      dup6\n        /* \"#utility.yul\":12628:12641   */\n      dup3\n        /* \"#utility.yul\":12538:12648   */\n      tag_143\n      jump\t// in\n    tag_286:\n        /* \"#utility.yul\":12530:12648   */\n      swap5\n      pop\n        /* \"#utility.yul\":12671:12754   */\n      tag_287\n        /* \"#utility.yul\":12747:12753   */\n      dup4\n        /* \"#utility.yul\":12671:12754   */\n      tag_144\n      jump\t// in\n    tag_287:\n        /* \"#utility.yul\":12661:12754   */\n      swap3\n      pop\n        /* \"#utility.yul\":12783:12787   */\n      0x20\n        /* \"#utility.yul\":12778:12781   */\n      dup11\n        /* \"#utility.yul\":12774:12788   */\n      add\n        /* \"#utility.yul\":12767:12788   */\n      swap10\n      pop\n        /* \"#utility.yul\":12423:12798   */\n      pop\n        /* \"#utility.yul\":12410:12411   */\n      0x01\n        /* \"#utility.yul\":12407:12408   */\n      dup2\n        /* \"#utility.yul\":12403:12412   */\n      add\n        /* \"#utility.yul\":12398:12412   */\n      swap1\n      pop\n        /* \"#utility.yul\":12363:12798   */\n      jump(tag_283)\n    tag_285:\n        /* \"#utility.yul\":12367:12381   */\n      pop\n        /* \"#utility.yul\":12814:12818   */\n      dup3\n        /* \"#utility.yul\":12807:12818   */\n      swap8\n      pop\n        /* \"#utility.yul\":12834:12837   */\n      dup8\n        /* \"#utility.yul\":12827:12837   */\n      swap6\n      pop\n        /* \"#utility.yul\":11918:12843   */\n      pop\n      pop\n      pop\n      pop\n      pop\n        /* \"#utility.yul\":11748:12843   */\n      swap3\n      swap2\n      pop\n      pop\n      jump\t// out\n        /* \"#utility.yul\":12849:13314   */\n    tag_26:\n        /* \"#utility.yul\":13038:13042   */\n      0x00\n        /* \"#utility.yul\":13076:13078   */\n      0x20\n        /* \"#utility.yul\":13065:13074   */\n      dup3\n        /* \"#utility.yul\":13061:13079   */\n      add\n        /* \"#utility.yul\":13053:13079   */\n      swap1\n      pop\n        /* \"#utility.yul\":13125:13134   */\n      dup2\n        /* \"#utility.yul\":13119:13123   */\n      dup2\n        /* \"#utility.yul\":13115:13135   */\n      sub\n        /* \"#utility.yul\":13111:13112   */\n      0x00\n        /* \"#utility.yul\":13100:13109   */\n      dup4\n        /* \"#utility.yul\":13096:13113   */\n      add\n        /* \"#utility.yul\":13089:13136   */\n      mstore\n        /* \"#utility.yul\":13153:13307   */\n      tag_289\n        /* \"#utility.yul\":13302:13306   */\n      dup2\n        /* \"#utility.yul\":13293:13299   */\n      dup5\n        /* \"#utility.yul\":13153:13307   */\n      tag_145\n      jump\t// in\n    tag_289:\n        /* \"#utility.yul\":13145:13307   */\n      swap1\n      pop\n        /* \"#utility.yul\":12849:13314   */\n      swap3\n      swap2\n      pop\n      pop\n      jump\t// out\n        /* \"#utility.yul\":13320:13542   */\n    tag_31:\n        /* \"#utility.yul\":13413:13417   */\n      0x00\n        /* \"#utility.yul\":13451:13453   */\n      0x20\n        /* \"#utility.yul\":13440:13449   */\n      dup3\n        /* \"#utility.yul\":13436:13454   */\n      add\n        /* \"#utility.yul\":13428:13454   */\n      swap1\n      pop\n        /* \"#utility.yul\":13464:13535   */\n      tag_291\n        /* \"#utility.yul\":13532:13533   */\n      0x00\n        /* \"#utility.yul\":13521:13530   */\n      dup4\n        /* \"#utility.yul\":13517:13534   */\n      add\n        /* \"#utility.yul\":13508:13514   */\n      dup5\n        /* \"#utility.yul\":13464:13535   */\n      tag_115\n      jump\t// in\n    tag_291:\n        /* \"#utility.yul\":13320:13542   */\n      swap3\n      swap2\n      pop\n      pop\n      jump\t// out\n        /* \"#utility.yul\":13548:13728   */\n    tag_146:\n        /* \"#utility.yul\":13596:13673   */\n      0x4e487b7100000000000000000000000000000000000000000000000000000000\n        /* \"#utility.yul\":13593:13594   */\n      0x00\n        /* \"#utility.yul\":13586:13674   */\n      mstore\n        /* \"#utility.yul\":13693:13697   */\n      0x22\n        /* \"#utility.yul\":13690:13691   */\n      0x04\n        /* \"#utility.yul\":13683:13698   */\n      mstore\n        /* \"#utility.yul\":13717:13721   */\n      0x24\n        /* \"#utility.yul\":13714:13715   */\n      0x00\n        /* \"#utility.yul\":13707:13722   */\n      revert\n        /* \"#utility.yul\":13734:14054   */\n    tag_40:\n        /* \"#utility.yul\":13778:13784   */\n      0x00\n        /* \"#utility.yul\":13815:13816   */\n      0x02\n        /* \"#utility.yul\":13809:13813   */\n      dup3\n        /* \"#utility.yul\":13805:13817   */\n      div\n        /* \"#utility.yul\":13795:13817   */\n      swap1\n      pop\n        /* \"#utility.yul\":13862:13863   */\n      0x01\n        /* \"#utility.yul\":13856:13860   */\n      dup3\n        /* \"#utility.yul\":13852:13864   */\n      and\n        /* \"#utility.yul\":13883:13901   */\n      dup1\n        /* \"#utility.yul\":13873:13954   */\n      tag_294\n      jumpi\n        /* \"#utility.yul\":13939:13943   */\n      0x7f\n        /* \"#utility.yul\":13931:13937   */\n      dup3\n        /* \"#utility.yul\":13927:13944   */\n      and\n        /* \"#utility.yul\":13917:13944   */\n      swap2\n      pop\n        /* \"#utility.yul\":13873:13954   */\n    tag_294:\n        /* \"#utility.yul\":14001:14003   */\n      0x20\n        /* \"#utility.yul\":13993:13999   */\n      dup3\n        /* \"#utility.yul\":13990:14004   */\n      lt\n        /* \"#utility.yul\":13970:13988   */\n      dup2\n        /* \"#utility.yul\":13967:14005   */\n      sub\n        /* \"#utility.yul\":13964:14048   */\n      tag_295\n      jumpi\n        /* \"#utility.yul\":14020:14038   */\n      tag_296\n      tag_146\n      jump\t// in\n    tag_296:\n        /* \"#utility.yul\":13964:14048   */\n    tag_295:\n        /* \"#utility.yul\":13785:14054   */\n      pop\n        /* \"#utility.yul\":13734:14054   */\n      swap2\n      swap1\n      pop\n      jump\t// out\n        /* \"#utility.yul\":14060:14240   */\n    tag_147:\n        /* \"#utility.yul\":14108:14185   */\n      0x4e487b7100000000000000000000000000000000000000000000000000000000\n        /* \"#utility.yul\":14105:14106   */\n      0x00\n        /* \"#utility.yul\":14098:14186   */\n      mstore\n        /* \"#utility.yul\":14205:14209   */\n      0x11\n        /* \"#utility.yul\":14202:14203   */\n      0x04\n        /* \"#utility.yul\":14195:14210   */\n      mstore\n        /* \"#utility.yul\":14229:14233   */\n      0x24\n        /* \"#utility.yul\":14226:14227   */\n      0x00\n        /* \"#utility.yul\":14219:14234   */\n      revert\n        /* \"#utility.yul\":14246:14479   */\n    tag_57:\n        /* \"#utility.yul\":14285:14288   */\n      0x00\n        /* \"#utility.yul\":14308:14332   */\n      tag_299\n        /* \"#utility.yul\":14326:14331   */\n      dup3\n        /* \"#utility.yul\":14308:14332   */\n      tag_112\n      jump\t// in\n    tag_299:\n        /* \"#utility.yul\":14299:14332   */\n      swap2\n      pop\n        /* \"#utility.yul\":14354:14420   */\n      0xffffffffffffffffffffffffffffffffffffffffffffffffffffffffffffffff\n        /* \"#utility.yul\":14347:14352   */\n      dup3\n        /* \"#utility.yul\":14344:14421   */\n      sub\n        /* \"#utility.yul\":14341:14444   */\n      tag_300\n      jumpi\n        /* \"#utility.yul\":14424:14442   */\n      tag_301\n      tag_147\n      jump\t// in\n    tag_301:\n        /* \"#utility.yul\":14341:14444   */\n    tag_300:\n        /* \"#utility.yul\":14471:14472   */\n      0x01\n        /* \"#utility.yul\":14464:14469   */\n      dup3\n        /* \"#utility.yul\":14460:14473   */\n      add\n        /* \"#utility.yul\":14453:14473   */\n      swap1\n      pop\n        /* \"#utility.yul\":14246:14479   */\n      swap2\n      swap1\n      pop\n      jump\t// out\n        /* \"#utility.yul\":14485:14626   */\n    tag_148:\n        /* \"#utility.yul\":14534:14538   */\n      0x00\n        /* \"#utility.yul\":14557:14560   */\n      dup2\n        /* \"#utility.yul\":14549:14560   */\n      swap1\n      pop\n        /* \"#utility.yul\":14580:14583   */\n      dup2\n        /* \"#utility.yul\":14577:14578   */\n      0x00\n        /* \"#utility.yul\":14570:14584   */\n      mstore\n        /* \"#utility.yul\":14614:14618   */\n      0x20\n        /* \"#utility.yul\":14611:14612   */\n      0x00\n        /* \"#utility.yul\":14601:14619   */\n      keccak256\n        /* \"#utility.yul\":14593:14619   */\n      swap1\n      pop\n        /* \"#utility.yul\":14485:14626   */\n      swap2\n      swap1\n      pop\n      jump\t// out\n        /* \"#utility.yul\":14632:14725   */\n    tag_149:\n        /* \"#utility.yul\":14669:14675   */\n      0x00\n        /* \"#utility.yul\":14716:14718   */\n      0x20\n        /* \"#utility.yul\":14711:14713   */\n      0x1f\n        /* \"#utility.yul\":14704:14709   */\n      dup4\n        /* \"#utility.yul\":14700:14714   */\n      add\n        /* \"#utility.yul\":14696:14719   */\n      div\n        /* \"#utility.yul\":14686:14719   */\n      swap1\n      pop\n        /* \"#utility.yul\":14632:14725   */\n      swap2\n      swap1\n      pop\n      jump\t// out\n        /* \"#utility.yul\":14731:14838   */\n    tag_150:\n        /* \"#utility.yul\":14775:14783   */\n      0x00\n        /* \"#utility.yul\":14825:14830   */\n      dup3\n        /* \"#utility.yul\":14819:14823   */\n      dup3\n        /* \"#utility.yul\":14815:14831   */\n      shl\n        /* \"#utility.yul\":14794:14831   */\n      swap1\n      pop\n        /* \"#utility.yul\":14731:14838   */\n      swap3\n      swap2\n      pop\n      pop\n      jump\t// out\n        /* \"#utility.yul\":14844:15237   */\n    tag_151:\n        /* \"#utility.yul\":14913:14919   */\n      0x00\n        /* \"#utility.yul\":14963:14964   */\n      0x08\n        /* \"#utility.yul\":14951:14961   */\n      dup4\n        /* \"#utility.yul\":14947:14965   */\n      mul\n        /* \"#utility.yul\":14986:15083   */\n      tag_306\n        /* \"#utility.yul\":15016:15082   */\n      0xffffffffffffffffffffffffffffffffffffffffffffffffffffffffffffffff\n        /* \"#utility.yul\":15005:15014   */\n      dup3\n        /* \"#utility.yul\":14986:15083   */\n      tag_150\n      jump\t// in\n    tag_306:\n        /* \"#utility.yul\":15104:15143   */\n      tag_307\n        /* \"#utility.yul\":15134:15142   */\n      dup7\n        /* \"#utility.yul\":15123:15132   */\n      dup4\n        /* \"#utility.yul\":15104:15143   */\n      tag_150\n      jump\t// in\n    tag_307:\n        /* \"#utility.yul\":15092:15143   */\n      swap6\n      pop\n        /* \"#utility.yul\":15176:15180   */\n      dup1\n        /* \"#utility.yul\":15172:15181   */\n      not\n        /* \"#utility.yul\":15165:15170   */\n      dup5\n        /* \"#utility.yul\":15161:15182   */\n      and\n        /* \"#utility.yul\":15152:15182   */\n      swap4\n      pop\n        /* \"#utility.yul\":15225:15229   */\n      dup1\n        /* \"#utility.yul\":15215:15223   */\n      dup7\n        /* \"#utility.yul\":15211:15230   */\n      and\n        /* \"#utility.yul\":15204:15209   */\n      dup5\n        /* \"#utility.yul\":15201:15231   */\n      or\n        /* \"#utility.yul\":15191:15231   */\n      swap3\n      pop\n        /* \"#utility.yul\":14920:15237   */\n      pop\n      pop\n        /* \"#utility.yul\":14844:15237   */\n      swap4\n      swap3\n      pop\n      pop\n      pop\n      jump\t// out\n        /* \"#utility.yul\":15243:15303   */\n    tag_152:\n        /* \"#utility.yul\":15271:15274   */\n      0x00\n        /* \"#utility.yul\":15292:15297   */\n      dup2\n        /* \"#utility.yul\":15285:15297   */\n      swap1\n      pop\n        /* \"#utility.yul\":15243:15303   */\n      swap2\n      swap1\n      pop\n      jump\t// out\n        /* \"#utility.yul\":15309:15451   */\n    tag_153:\n        /* \"#utility.yul\":15359:15368   */\n      0x00\n        /* \"#utility.yul\":15392:15445   */\n      tag_310\n        /* \"#utility.yul\":15410:15444   */\n      tag_311\n        /* \"#utility.yul\":15419:15443   */\n      tag_312\n        /* \"#utility.yul\":15437:15442   */\n      dup5\n        /* \"#utility.yul\":15419:15443   */\n      tag_112\n      jump\t// in\n    tag_312:\n        /* \"#utility.yul\":15410:15444   */\n      tag_152\n      jump\t// in\n    tag_311:\n        /* \"#utility.yul\":15392:15445   */\n      tag_112\n      jump\t// in\n    tag_310:\n        /* \"#utility.yul\":15379:15445   */\n      swap1\n      pop\n        /* \"#utility.yul\":15309:15451   */\n      swap2\n      swap1\n      pop\n      jump\t// out\n        /* \"#utility.yul\":15457:15532   */\n    tag_154:\n        /* \"#utility.yul\":15500:15503   */\n      0x00\n        /* \"#utility.yul\":15521:15526   */\n      dup2\n        /* \"#utility.yul\":15514:15526   */\n      swap1\n      pop\n        /* \"#utility.yul\":15457:15532   */\n      swap2\n      swap1\n      pop\n      jump\t// out\n        /* \"#utility.yul\":15538:15807   */\n    tag_155:\n        /* \"#utility.yul\":15648:15687   */\n      tag_315\n        /* \"#utility.yul\":15679:15686   */\n      dup4\n        /* \"#utility.yul\":15648:15687   */\n      tag_153\n      jump\t// in\n    tag_315:\n        /* \"#utility.yul\":15709:15800   */\n      tag_316\n        /* \"#utility.yul\":15758:15799   */\n      tag_317\n        /* \"#utility.yul\":15782:15798   */\n      dup3\n        /* \"#utility.yul\":15758:15799   */\n      tag_154\n      jump\t// in\n    tag_317:\n        /* \"#utility.yul\":15750:15756   */\n      dup5\n        /* \"#utility.yul\":15743:15747   */\n      dup5\n        /* \"#utility.yul\":15737:15748   */\n      sload\n        /* \"#utility.yul\":15709:15800   */\n      tag_151\n      jump\t// in\n    tag_316:\n        /* \"#utility.yul\":15703:15707   */\n      dup3\n        /* \"#utility.yul\":15696:15801   */\n      sstore\n        /* \"#utility.yul\":15614:15807   */\n      pop\n        /* \"#utility.yul\":15538:15807   */\n      pop\n      pop\n      pop\n      jump\t// out\n        /* \"#utility.yul\":15813:15886   */\n    tag_156:\n        /* \"#utility.yul\":15858:15861   */\n      0x00\n        /* \"#utility.yul\":15813:15886   */\n      swap1\n      jump\t// out\n        /* \"#utility.yul\":15892:16081   */\n    tag_157:\n        /* \"#utility.yul\":15969:16001   */\n      tag_320\n      tag_156\n      jump\t// in\n    tag_320:\n        /* \"#utility.yul\":16010:16075   */\n      tag_321\n        /* \"#utility.yul\":16068:16074   */\n      dup2\n        /* \"#utility.yul\":16060:16066   */\n      dup5\n        /* \"#utility.yul\":16054:16058   */\n      dup5\n        /* \"#utility.yul\":16010:16075   */\n      tag_155\n      jump\t// in\n    tag_321:\n        /* \"#utility.yul\":15945:16081   */\n      pop\n        /* \"#utility.yul\":15892:16081   */\n      pop\n      pop\n      jump\t// out\n        /* \"#utility.yul\":16087:16273   */\n    tag_158:\n        /* \"#utility.yul\":16147:16267   */\n    tag_323:\n        /* \"#utility.yul\":16164:16167   */\n      dup2\n        /* \"#utility.yul\":16157:16162   */\n      dup2\n        /* \"#utility.yul\":16154:16168   */\n      lt\n        /* \"#utility.yul\":16147:16267   */\n      iszero\n      tag_325\n      jumpi\n        /* \"#utility.yul\":16218:16257   */\n      tag_326\n        /* \"#utility.yul\":16255:16256   */\n      0x00\n        /* \"#utility.yul\":16248:16253   */\n      dup3\n        /* \"#utility.yul\":16218:16257   */\n      tag_157\n      jump\t// in\n    tag_326:\n        /* \"#utility.yul\":16191:16192   */\n      0x01\n        /* \"#utility.yul\":16184:16189   */\n      dup2\n        /* \"#utility.yul\":16180:16193   */\n      add\n        /* \"#utility.yul\":16171:16193   */\n      swap1\n      pop\n        /* \"#utility.yul\":16147:16267   */\n      jump(tag_323)\n    tag_325:\n        /* \"#utility.yul\":16087:16273   */\n      pop\n      pop\n      jump\t// out\n        /* \"#utility.yul\":16279:16822   */\n    tag_159:\n        /* \"#utility.yul\":16380:16382   */\n      0x1f\n        /* \"#utility.yul\":16375:16378   */\n      dup3\n        /* \"#utility.yul\":16372:16383   */\n      gt\n        /* \"#utility.yul\":16369:16815   */\n      iszero\n      tag_328\n      jumpi\n        /* \"#utility.yul\":16414:16452   */\n      tag_329\n        /* \"#utility.yul\":16446:16451   */\n      dup2\n        /* \"#utility.yul\":16414:16452   */\n      tag_148\n      jump\t// in\n    tag_329:\n        /* \"#utility.yul\":16498:16527   */\n      tag_330\n        /* \"#utility.yul\":16516:16526   */\n      dup5\n        /* \"#utility.yul\":16498:16527   */\n      tag_149\n      jump\t// in\n    tag_330:\n        /* \"#utility.yul\":16488:16496   */\n      dup2\n        /* \"#utility.yul\":16484:16528   */\n      add\n        /* \"#utility.yul\":16681:16683   */\n      0x20\n        /* \"#utility.yul\":16669:16679   */\n      dup6\n        /* \"#utility.yul\":16666:16684   */\n      lt\n        /* \"#utility.yul\":16663:16712   */\n      iszero\n      tag_331\n      jumpi\n        /* \"#utility.yul\":16702:16710   */\n      dup2\n        /* \"#utility.yul\":16687:16710   */\n      swap1\n      pop\n        /* \"#utility.yul\":16663:16712   */\n    tag_331:\n        /* \"#utility.yul\":16725:16805   */\n      tag_332\n        /* \"#utility.yul\":16781:16803   */\n      tag_333\n        /* \"#utility.yul\":16799:16802   */\n      dup6\n        /* \"#utility.yul\":16781:16803   */\n      tag_149\n      jump\t// in\n    tag_333:\n        /* \"#utility.yul\":16771:16779   */\n      dup4\n        /* \"#utility.yul\":16767:16804   */\n      add\n        /* \"#utility.yul\":16754:16765   */\n      dup3\n        /* \"#utility.yul\":16725:16805   */\n      tag_158\n      jump\t// in\n    tag_332:\n        /* \"#utility.yul\":16384:16815   */\n      pop\n      pop\n        /* \"#utility.yul\":16369:16815   */\n    tag_328:\n        /* \"#utility.yul\":16279:16822   */\n      pop\n      pop\n      pop\n      jump\t// out\n        /* \"#utility.yul\":16828:16945   */\n    tag_160:\n        /* \"#utility.yul\":16882:16890   */\n      0x00\n        /* \"#utility.yul\":16932:16937   */\n      dup3\n        /* \"#utility.yul\":16926:16930   */\n      dup3\n        /* \"#utility.yul\":16922:16938   */\n      shr\n        /* \"#utility.yul\":16901:16938   */\n      swap1\n      pop\n        /* \"#utility.yul\":16828:16945   */\n      swap3\n      swap2\n      pop\n      pop\n      jump\t// out\n        /* \"#utility.yul\":16951:17120   */\n    tag_161:\n        /* \"#utility.yul\":16995:17001   */\n      0x00\n        /* \"#utility.yul\":17028:17079   */\n      tag_336\n        /* \"#utility.yul\":17076:17077   */\n      0x00\n        /* \"#utility.yul\":17072:17078   */\n      not\n        /* \"#utility.yul\":17064:17069   */\n      dup5\n        /* \"#utility.yul\":17061:17062   */\n      0x08\n        /* \"#utility.yul\":17057:17070   */\n      mul\n        /* \"#utility.yul\":17028:17079   */\n      tag_160\n      jump\t// in\n    tag_336:\n        /* \"#utility.yul\":17024:17080   */\n      not\n        /* \"#utility.yul\":17109:17113   */\n      dup1\n        /* \"#utility.yul\":17103:17107   */\n      dup4\n        /* \"#utility.yul\":17099:17114   */\n      and\n        /* \"#utility.yul\":17089:17114   */\n      swap2\n      pop\n        /* \"#utility.yul\":17002:17120   */\n      pop\n        /* \"#utility.yul\":16951:17120   */\n      swap3\n      swap2\n      pop\n      pop\n      jump\t// out\n        /* \"#utility.yul\":17125:17420   */\n    tag_162:\n        /* \"#utility.yul\":17201:17205   */\n      0x00\n        /* \"#utility.yul\":17347:17376   */\n      tag_338\n        /* \"#utility.yul\":17372:17375   */\n      dup4\n        /* \"#utility.yul\":17366:17370   */\n      dup4\n        /* \"#utility.yul\":17347:17376   */\n      tag_161\n      jump\t// in\n    tag_338:\n        /* \"#utility.yul\":17339:17376   */\n      swap2\n      pop\n        /* \"#utility.yul\":17409:17412   */\n      dup3\n        /* \"#utility.yul\":17406:17407   */\n      0x02\n        /* \"#utility.yul\":17402:17413   */\n      mul\n        /* \"#utility.yul\":17396:17400   */\n      dup3\n        /* \"#utility.yul\":17393:17414   */\n      or\n        /* \"#utility.yul\":17385:17414   */\n      swap1\n      pop\n        /* \"#utility.yul\":17125:17420   */\n      swap3\n      swap2\n      pop\n      pop\n      jump\t// out\n        /* \"#utility.yul\":17425:18820   */\n    tag_59:\n        /* \"#utility.yul\":17542:17579   */\n      tag_340\n        /* \"#utility.yul\":17575:17578   */\n      dup3\n        /* \"#utility.yul\":17542:17579   */\n      tag_119\n      jump\t// in\n    tag_340:\n        /* \"#utility.yul\":17644:17662   */\n      0xffffffffffffffff\n        /* \"#utility.yul\":17636:17642   */\n      dup2\n        /* \"#utility.yul\":17633:17663   */\n      gt\n        /* \"#utility.yul\":17630:17686   */\n      iszero\n      tag_341\n      jumpi\n        /* \"#utility.yul\":17666:17684   */\n      tag_342\n      tag_65\n      jump\t// in\n    tag_342:\n        /* \"#utility.yul\":17630:17686   */\n    tag_341:\n        /* \"#utility.yul\":17710:17748   */\n      tag_343\n        /* \"#utility.yul\":17742:17746   */\n      dup3\n        /* \"#utility.yul\":17736:17747   */\n      sload\n        /* \"#utility.yul\":17710:17748   */\n      tag_40\n      jump\t// in\n    tag_343:\n        /* \"#utility.yul\":17795:17862   */\n      tag_344\n        /* \"#utility.yul\":17855:17861   */\n      dup3\n        /* \"#utility.yul\":17847:17853   */\n      dup3\n        /* \"#utility.yul\":17841:17845   */\n      dup6\n        /* \"#utility.yul\":17795:17862   */\n      tag_159\n      jump\t// in\n    tag_344:\n        /* \"#utility.yul\":17889:17890   */\n      0x00\n        /* \"#utility.yul\":17913:17917   */\n      0x20\n        /* \"#utility.yul\":17900:17917   */\n      swap1\n      pop\n        /* \"#utility.yul\":17945:17947   */\n      0x1f\n        /* \"#utility.yul\":17937:17943   */\n      dup4\n        /* \"#utility.yul\":17934:17948   */\n      gt\n        /* \"#utility.yul\":17962:17963   */\n      0x01\n        /* \"#utility.yul\":17957:18575   */\n      dup2\n      eq\n      tag_346\n      jumpi\n        /* \"#utility.yul\":18619:18620   */\n      0x00\n        /* \"#utility.yul\":18636:18642   */\n      dup5\n        /* \"#utility.yul\":18633:18710   */\n      iszero\n      tag_347\n      jumpi\n        /* \"#utility.yul\":18685:18694   */\n      dup3\n        /* \"#utility.yul\":18680:18683   */\n      dup8\n        /* \"#utility.yul\":18676:18695   */\n      add\n        /* \"#utility.yul\":18670:18696   */\n      mload\n        /* \"#utility.yul\":18661:18696   */\n      swap1\n      pop\n        /* \"#utility.yul\":18633:18710   */\n    tag_347:\n        /* \"#utility.yul\":18736:18803   */\n      tag_348\n        /* \"#utility.yul\":18796:18802   */\n      dup6\n        /* \"#utility.yul\":18789:18794   */\n      dup3\n        /* \"#utility.yul\":18736:18803   */\n      tag_162\n      jump\t// in\n    tag_348:\n        /* \"#utility.yul\":18730:18734   */\n      dup7\n        /* \"#utility.yul\":18723:18804   */\n      sstore\n        /* \"#utility.yul\":18592:18814   */\n      pop\n        /* \"#utility.yul\":17927:18814   */\n      jump(tag_345)\n        /* \"#utility.yul\":17957:18575   */\n    tag_346:\n        /* \"#utility.yul\":18009:18013   */\n      0x1f\n        /* \"#utility.yul\":18005:18014   */\n      not\n        /* \"#utility.yul\":17997:18003   */\n      dup5\n        /* \"#utility.yul\":17993:18015   */\n      and\n        /* \"#utility.yul\":18043:18080   */\n      tag_349\n        /* \"#utility.yul\":18075:18079   */\n      dup7\n        /* \"#utility.yul\":18043:18080   */\n      tag_148\n      jump\t// in\n    tag_349:\n        /* \"#utility.yul\":18102:18103   */\n      0x00\n        /* \"#utility.yul\":18116:18324   */\n    tag_350:\n        /* \"#utility.yul\":18130:18137   */\n      dup3\n        /* \"#utility.yul\":18127:18128   */\n      dup2\n        /* \"#utility.yul\":18124:18138   */\n      lt\n        /* \"#utility.yul\":18116:18324   */\n      iszero\n      tag_352\n      jumpi\n        /* \"#utility.yul\":18209:18218   */\n      dup5\n        /* \"#utility.yul\":18204:18207   */\n      dup10\n        /* \"#utility.yul\":18200:18219   */\n      add\n        /* \"#utility.yul\":18194:18220   */\n      mload\n        /* \"#utility.yul\":18186:18192   */\n      dup3\n        /* \"#utility.yul\":18179:18221   */\n      sstore\n        /* \"#utility.yul\":18260:18261   */\n      0x01\n        /* \"#utility.yul\":18252:18258   */\n      dup3\n        /* \"#utility.yul\":18248:18262   */\n      add\n        /* \"#utility.yul\":18238:18262   */\n      swap2\n      pop\n        /* \"#utility.yul\":18307:18309   */\n      0x20\n        /* \"#utility.yul\":18296:18305   */\n      dup6\n        /* \"#utility.yul\":18292:18310   */\n      add\n        /* \"#utility.yul\":18279:18310   */\n      swap5\n      pop\n        /* \"#utility.yul\":18153:18157   */\n      0x20\n        /* \"#utility.yul\":18150:18151   */\n      dup2\n        /* \"#utility.yul\":18146:18158   */\n      add\n        /* \"#utility.yul\":18141:18158   */\n      swap1\n      pop\n        /* \"#utility.yul\":18116:18324   */\n      jump(tag_350)\n    tag_352:\n        /* \"#utility.yul\":18352:18358   */\n      dup7\n        /* \"#utility.yul\":18343:18350   */\n      dup4\n        /* \"#utility.yul\":18340:18359   */\n      lt\n        /* \"#utility.yul\":18337:18516   */\n      iszero\n      tag_353\n      jumpi\n        /* \"#utility.yul\":18410:18419   */\n      dup5\n        /* \"#utility.yul\":18405:18408   */\n      dup10\n        /* \"#utility.yul\":18401:18420   */\n      add\n        /* \"#utility.yul\":18395:18421   */\n      mload\n        /* \"#utility.yul\":18453:18501   */\n      tag_354\n        /* \"#utility.yul\":18495:18499   */\n      0x1f\n        /* \"#utility.yul\":18487:18493   */\n      dup10\n        /* \"#utility.yul\":18483:18500   */\n      and\n        /* \"#utility.yul\":18472:18481   */\n      dup3\n        /* \"#utility.yul\":18453:18501   */\n      tag_161\n      jump\t// in\n    tag_354:\n        /* \"#utility.yul\":18445:18451   */\n      dup4\n        /* \"#utility.yul\":18438:18502   */\n      sstore\n        /* \"#utility.yul\":18360:18516   */\n      pop\n        /* \"#utility.yul\":18337:18516   */\n    tag_353:\n        /* \"#utility.yul\":18562:18563   */\n      0x01\n        /* \"#utility.yul\":18558:18559   */\n      0x02\n        /* \"#utility.yul\":18550:18556   */\n      dup9\n        /* \"#utility.yul\":18546:18560   */\n      mul\n        /* \"#utility.yul\":18542:18564   */\n      add\n        /* \"#utility.yul\":18536:18540   */\n      dup9\n        /* \"#utility.yul\":18529:18565   */\n      sstore\n        /* \"#utility.yul\":17964:18575   */\n      pop\n      pop\n      pop\n        /* \"#utility.yul\":17927:18814   */\n    tag_345:\n      pop\n        /* \"#utility.yul\":17517:18820   */\n      pop\n      pop\n      pop\n        /* \"#utility.yul\":17425:18820   */\n      pop\n      pop\n      jump\t// out\n        /* \"#utility.yul\":18826:19006   */\n    tag_91:\n        /* \"#utility.yul\":18874:18951   */\n      0x4e487b7100000000000000000000000000000000000000000000000000000000\n        /* \"#utility.yul\":18871:18872   */\n      0x00\n        /* \"#utility.yul\":18864:18952   */\n      mstore\n        /* \"#utility.yul\":18971:18975   */\n      0x32\n        /* \"#utility.yul\":18968:18969   */\n      0x04\n        /* \"#utility.yul\":18961:18976   */\n      mstore\n        /* \"#utility.yul\":18995:18999   */\n      0x24\n        /* \"#utility.yul\":18992:18993   */\n      0x00\n        /* \"#utility.yul\":18985:19000   */\n      revert\n        /* \"#utility.yul\":19012:19191   */\n    tag_163:\n        /* \"#utility.yul\":19152:19183   */\n      0x596f752063616e6e6f7420636c6f736520746869732072657175657374000000\n        /* \"#utility.yul\":19148:19149   */\n      0x00\n        /* \"#utility.yul\":19140:19146   */\n      dup3\n        /* \"#utility.yul\":19136:19150   */\n      add\n        /* \"#utility.yul\":19129:19184   */\n      mstore\n        /* \"#utility.yul\":19012:19191   */\n      pop\n      jump\t// out\n        /* \"#utility.yul\":19197:19563   */\n    tag_164:\n        /* \"#utility.yul\":19339:19342   */\n      0x00\n        /* \"#utility.yul\":19360:19427   */\n      tag_358\n        /* \"#utility.yul\":19424:19426   */\n      0x1d\n        /* \"#utility.yul\":19419:19422   */\n      dup4\n        /* \"#utility.yul\":19360:19427   */\n      tag_120\n      jump\t// in\n    tag_358:\n        /* \"#utility.yul\":19353:19427   */\n      swap2\n      pop\n        /* \"#utility.yul\":19436:19529   */\n      tag_359\n        /* \"#utility.yul\":19525:19528   */\n      dup3\n        /* \"#utility.yul\":19436:19529   */\n      tag_163\n      jump\t// in\n    tag_359:\n        /* \"#utility.yul\":19554:19556   */\n      0x20\n        /* \"#utility.yul\":19549:19552   */\n      dup3\n        /* \"#utility.yul\":19545:19557   */\n      add\n        /* \"#utility.yul\":19538:19557   */\n      swap1\n      pop\n        /* \"#utility.yul\":19197:19563   */\n      swap2\n      swap1\n      pop\n      jump\t// out\n        /* \"#utility.yul\":19569:19988   */\n    tag_100:\n        /* \"#utility.yul\":19735:19739   */\n      0x00\n        /* \"#utility.yul\":19773:19775   */\n      0x20\n        /* \"#utility.yul\":19762:19771   */\n      dup3\n        /* \"#utility.yul\":19758:19776   */\n      add\n        /* \"#utility.yul\":19750:19776   */\n      swap1\n      pop\n        /* \"#utility.yul\":19822:19831   */\n      dup2\n        /* \"#utility.yul\":19816:19820   */\n      dup2\n        /* \"#utility.yul\":19812:19832   */\n      sub\n        /* \"#utility.yul\":19808:19809   */\n      0x00\n        /* \"#utility.yul\":19797:19806   */\n      dup4\n        /* \"#utility.yul\":19793:19810   */\n      add\n        /* \"#utility.yul\":19786:19833   */\n      mstore\n        /* \"#utility.yul\":19850:19981   */\n      tag_361\n        /* \"#utility.yul\":19976:19980   */\n      dup2\n        /* \"#utility.yul\":19850:19981   */\n      tag_164\n      jump\t// in\n    tag_361:\n        /* \"#utility.yul\":19842:19981   */\n      swap1\n      pop\n        /* \"#utility.yul\":19569:19988   */\n      swap2\n      swap1\n      pop\n      jump\t// out\n        /* \"#utility.yul\":19994:20185   */\n    tag_106:\n        /* \"#utility.yul\":20034:20037   */\n      0x00\n        /* \"#utility.yul\":20053:20073   */\n      tag_363\n        /* \"#utility.yul\":20071:20072   */\n      dup3\n        /* \"#utility.yul\":20053:20073   */\n      tag_112\n      jump\t// in\n    tag_363:\n        /* \"#utility.yul\":20048:20073   */\n      swap2\n      pop\n        /* \"#utility.yul\":20087:20107   */\n      tag_364\n        /* \"#utility.yul\":20105:20106   */\n      dup4\n        /* \"#utility.yul\":20087:20107   */\n      tag_112\n      jump\t// in\n    tag_364:\n        /* \"#utility.yul\":20082:20107   */\n      swap3\n      pop\n        /* \"#utility.yul\":20130:20131   */\n      dup3\n        /* \"#utility.yul\":20127:20128   */\n      dup3\n        /* \"#utility.yul\":20123:20132   */\n      add\n        /* \"#utility.yul\":20116:20132   */\n      swap1\n      pop\n        /* \"#utility.yul\":20151:20154   */\n      dup1\n        /* \"#utility.yul\":20148:20149   */\n      dup3\n        /* \"#utility.yul\":20145:20155   */\n      gt\n        /* \"#utility.yul\":20142:20178   */\n      iszero\n      tag_365\n      jumpi\n        /* \"#utility.yul\":20158:20176   */\n      tag_366\n      tag_147\n      jump\t// in\n    tag_366:\n        /* \"#utility.yul\":20142:20178   */\n    tag_365:\n        /* \"#utility.yul\":19994:20185   */\n      swap3\n      swap2\n      pop\n      pop\n      jump\t// out\n\n    auxdata: 0xa264697066735822122053ebeab2677bade260e117e4d50c3afbfe9326858bb796fae38c35c947d3dc4964736f6c634300081a0033\n}\n",
				"bytecode": {
					"linkReferences": {},
					"object": "60806040525f80553480156011575f80fd5b506114fe8061001f5f395ff3fe608060405260043610610054575f3560e01c806381d12c5814610058578063822096891461009c578063b45243dc146100c4578063c1292cc314610100578063f0282b7f1461012a578063f14faf6f14610152575b5f80fd5b348015610063575f80fd5b5061007e60048036038101906100799190610ac5565b61016e565b60405161009399989796959493929190610bc8565b60405180910390f35b3480156100a7575f80fd5b506100c260048036038101906100bd9190610d94565b610375565b005b3480156100cf575f80fd5b506100ea60048036038101906100e59190610e4c565b6104ce565b6040516100f7919061108a565b60405180910390f35b34801561010b575f80fd5b50610114610811565b60405161012191906110aa565b60405180910390f35b348015610135575f80fd5b50610150600480360381019061014b9190610ac5565b610816565b005b61016c60048036038101906101679190610ac5565b6109bd565b005b6001602052805f5260405f205f91509050805f015490806001015f9054906101000a900473ffffffffffffffffffffffffffffffffffffffff16908060020180546101b8906110f0565b80601f01602080910402602001604051908101604052809291908181526020018280546101e4906110f0565b801561022f5780601f106102065761010080835404028352916020019161022f565b820191905f5260205f20905b81548152906001019060200180831161021257829003601f168201915b505050505090806003018054610244906110f0565b80601f0160208091040260200160405190810160405280929190818152602001828054610270906110f0565b80156102bb5780601f10610292576101008083540402835291602001916102bb565b820191905f5260205f20905b81548152906001019060200180831161029e57829003601f168201915b5050505050908060040180546102d0906110f0565b80601f01602080910402602001604051908101604052809291908181526020018280546102fc906110f0565b80156103475780601f1061031e57610100808354040283529160200191610347565b820191905f5260205f20905b81548152906001019060200180831161032a57829003601f168201915b505050505090806005015490806006015490806007015490806008015f9054906101000a900460ff16905089565b5f808154809291906103869061114d565b91905055506040518061012001604052805f5481526020013373ffffffffffffffffffffffffffffffffffffffff1681526020018581526020018481526020018381526020014281526020018281526020015f81526020016001151581525060015f805481526020019081526020015f205f820151815f01556020820151816001015f6101000a81548173ffffffffffffffffffffffffffffffffffffffff021916908373ffffffffffffffffffffffffffffffffffffffff160217905550604082015181600201908161045a9190611331565b5060608201518160030190816104709190611331565b5060808201518160040190816104869190611331565b5060a0820151816005015560c0820151816006015560e08201518160070155610100820151816008015f6101000a81548160ff02191690831515021790555090505050505050565b60605f8267ffffffffffffffff8111156104eb576104ea610c70565b5b60405190808252806020026020018201604052801561052457816020015b610511610a23565b8152602001906001900390816105095790505b5090505f8490505f5b60015f8381526020019081526020015f206008015f9054906101000a900460ff16156107e35760015f8381526020019081526020015f20604051806101200160405290815f8201548152602001600182015f9054906101000a900473ffffffffffffffffffffffffffffffffffffffff1673ffffffffffffffffffffffffffffffffffffffff1673ffffffffffffffffffffffffffffffffffffffff1681526020016002820180546105de906110f0565b80601f016020809104026020016040519081016040528092919081815260200182805461060a906110f0565b80156106555780601f1061062c57610100808354040283529160200191610655565b820191905f5260205f20905b81548152906001019060200180831161063857829003601f168201915b5050505050815260200160038201805461066e906110f0565b80601f016020809104026020016040519081016040528092919081815260200182805461069a906110f0565b80156106e55780601f106106bc576101008083540402835291602001916106e5565b820191905f5260205f20905b8154815290600101906020018083116106c857829003601f168201915b505050505081526020016004820180546106fe906110f0565b80601f016020809104026020016040519081016040528092919081815260200182805461072a906110f0565b80156107755780601f1061074c57610100808354040283529160200191610775565b820191905f5260205f20905b81548152906001019060200180831161075857829003601f168201915b50505050508152602001600582015481526020016006820154815260200160078201548152602001600882015f9054906101000a900460ff1615151515815250508382815181106107c9576107c8611400565b5b602002602001018190525080806107df9061114d565b9150505b81806107ee9061114d565b925050848110801561080157505f548211155b61052d5782935050505092915050565b5f5481565b5f60015f8381526020019081526020015f206001015f9054906101000a900473ffffffffffffffffffffffffffffffffffffffff1690505f60015f8481526020019081526020015f206007015490505f60015f8581526020019081526020015f206006015490506001151560015f8681526020019081526020015f206008015f9054906101000a900460ff1615151480156108dc57508273ffffffffffffffffffffffffffffffffffffffff163373ffffffffffffffffffffffffffffffffffffffff16145b806108e75750808210155b610926576040517f08c379a000000000000000000000000000000000000000000000000000000000815260040161091d90611477565b60405180910390fd5b5f60015f8681526020019081526020015f206008015f6101000a81548160ff0219169083151502179055505f8211156109b7575f60015f8681526020019081526020015f20600701819055508273ffffffffffffffffffffffffffffffffffffffff166108fc8390811502906040515f60405180830381858888f193505050501580156109b5573d5f803e3d5ffd5b505b50505050565b3460015f8381526020019081526020015f206007015f8282546109e09190611495565b9250508190555060015f8281526020019081526020015f206006015460015f8381526020019081526020015f206007015410610a2057610a1f81610816565b5b50565b6040518061012001604052805f81526020015f73ffffffffffffffffffffffffffffffffffffffff1681526020016060815260200160608152602001606081526020015f81526020015f81526020015f81526020015f151581525090565b5f604051905090565b5f80fd5b5f80fd5b5f819050919050565b610aa481610a92565b8114610aae575f80fd5b50565b5f81359050610abf81610a9b565b92915050565b5f60208284031215610ada57610ad9610a8a565b5b5f610ae784828501610ab1565b91505092915050565b610af981610a92565b82525050565b5f73ffffffffffffffffffffffffffffffffffffffff82169050919050565b5f610b2882610aff565b9050919050565b610b3881610b1e565b82525050565b5f81519050919050565b5f82825260208201905092915050565b8281835e5f83830152505050565b5f601f19601f8301169050919050565b5f610b8082610b3e565b610b8a8185610b48565b9350610b9a818560208601610b58565b610ba381610b66565b840191505092915050565b5f8115159050919050565b610bc281610bae565b82525050565b5f61012082019050610bdc5f83018c610af0565b610be9602083018b610b2f565b8181036040830152610bfb818a610b76565b90508181036060830152610c0f8189610b76565b90508181036080830152610c238188610b76565b9050610c3260a0830187610af0565b610c3f60c0830186610af0565b610c4c60e0830185610af0565b610c5a610100830184610bb9565b9a9950505050505050505050565b5f80fd5b5f80fd5b7f4e487b71000000000000000000000000000000000000000000000000000000005f52604160045260245ffd5b610ca682610b66565b810181811067ffffffffffffffff82111715610cc557610cc4610c70565b5b80604052505050565b5f610cd7610a81565b9050610ce38282610c9d565b919050565b5f67ffffffffffffffff821115610d0257610d01610c70565b5b610d0b82610b66565b9050602081019050919050565b828183375f83830152505050565b5f610d38610d3384610ce8565b610cce565b905082815260208101848484011115610d5457610d53610c6c565b5b610d5f848285610d18565b509392505050565b5f82601f830112610d7b57610d7a610c68565b5b8135610d8b848260208601610d26565b91505092915050565b5f805f8060808587031215610dac57610dab610a8a565b5b5f85013567ffffffffffffffff811115610dc957610dc8610a8e565b5b610dd587828801610d67565b945050602085013567ffffffffffffffff811115610df657610df5610a8e565b5b610e0287828801610d67565b935050604085013567ffffffffffffffff811115610e2357610e22610a8e565b5b610e2f87828801610d67565b9250506060610e4087828801610ab1565b91505092959194509250565b5f8060408385031215610e6257610e61610a8a565b5b5f610e6f85828601610ab1565b9250506020610e8085828601610ab1565b9150509250929050565b5f81519050919050565b5f82825260208201905092915050565b5f819050602082019050919050565b610ebc81610a92565b82525050565b610ecb81610b1e565b82525050565b5f82825260208201905092915050565b5f610eeb82610b3e565b610ef58185610ed1565b9350610f05818560208601610b58565b610f0e81610b66565b840191505092915050565b610f2281610bae565b82525050565b5f61012083015f830151610f3e5f860182610eb3565b506020830151610f516020860182610ec2565b5060408301518482036040860152610f698282610ee1565b91505060608301518482036060860152610f838282610ee1565b91505060808301518482036080860152610f9d8282610ee1565b91505060a0830151610fb260a0860182610eb3565b5060c0830151610fc560c0860182610eb3565b5060e0830151610fd860e0860182610eb3565b50610100830151610fed610100860182610f19565b508091505092915050565b5f6110038383610f28565b905092915050565b5f602082019050919050565b5f61102182610e8a565b61102b8185610e94565b93508360208202850161103d85610ea4565b805f5b8581101561107857848403895281516110598582610ff8565b94506110648361100b565b925060208a01995050600181019050611040565b50829750879550505050505092915050565b5f6020820190508181035f8301526110a28184611017565b905092915050565b5f6020820190506110bd5f830184610af0565b92915050565b7f4e487b71000000000000000000000000000000000000000000000000000000005f52602260045260245ffd5b5f600282049050600182168061110757607f821691505b60208210810361111a576111196110c3565b5b50919050565b7f4e487b71000000000000000000000000000000000000000000000000000000005f52601160045260245ffd5b5f61115782610a92565b91507fffffffffffffffffffffffffffffffffffffffffffffffffffffffffffffffff820361118957611188611120565b5b600182019050919050565b5f819050815f5260205f209050919050565b5f6020601f8301049050919050565b5f82821b905092915050565b5f600883026111f07fffffffffffffffffffffffffffffffffffffffffffffffffffffffffffffffff826111b5565b6111fa86836111b5565b95508019841693508086168417925050509392505050565b5f819050919050565b5f61123561123061122b84610a92565b611212565b610a92565b9050919050565b5f819050919050565b61124e8361121b565b61126261125a8261123c565b8484546111c1565b825550505050565b5f90565b61127661126a565b611281818484611245565b505050565b5b818110156112a4576112995f8261126e565b600181019050611287565b5050565b601f8211156112e9576112ba81611194565b6112c3846111a6565b810160208510156112d2578190505b6112e66112de856111a6565b830182611286565b50505b505050565b5f82821c905092915050565b5f6113095f19846008026112ee565b1980831691505092915050565b5f61132183836112fa565b9150826002028217905092915050565b61133a82610b3e565b67ffffffffffffffff81111561135357611352610c70565b5b61135d82546110f0565b6113688282856112a8565b5f60209050601f831160018114611399575f8415611387578287015190505b6113918582611316565b8655506113f8565b601f1984166113a786611194565b5f5b828110156113ce578489015182556001820191506020850194506020810190506113a9565b868310156113eb57848901516113e7601f8916826112fa565b8355505b6001600288020188555050505b505050505050565b7f4e487b71000000000000000000000000000000000000000000000000000000005f52603260045260245ffd5b7f596f752063616e6e6f7420636c6f7365207468697320726571756573740000005f82015250565b5f611461601d83610b48565b915061146c8261142d565b602082019050919050565b5f6020820190508181035f83015261148e81611455565b9050919050565b5f61149f82610a92565b91506114aa83610a92565b92508282019050808211156114c2576114c1611120565b5b9291505056fea264697066735822122053ebeab2677bade260e117e4d50c3afbfe9326858bb796fae38c35c947d3dc4964736f6c634300081a0033",
					"opcodes": "PUSH1 0x80 PUSH1 0x40 MSTORE PUSH0 DUP1 SSTORE CALLVALUE DUP1 ISZERO PUSH1 0x11 JUMPI PUSH0 DUP1 REVERT JUMPDEST POP PUSH2 0x14FE DUP1 PUSH2 0x1F PUSH0 CODECOPY PUSH0 RETURN INVALID PUSH1 0x80 PUSH1 0x40 MSTORE PUSH1 0x4 CALLDATASIZE LT PUSH2 0x54 JUMPI PUSH0 CALLDATALOAD PUSH1 0xE0 SHR DUP1 PUSH4 0x81D12C58 EQ PUSH2 0x58 JUMPI DUP1 PUSH4 0x82209689 EQ PUSH2 0x9C JUMPI DUP1 PUSH4 0xB45243DC EQ PUSH2 0xC4 JUMPI DUP1 PUSH4 0xC1292CC3 EQ PUSH2 0x100 JUMPI DUP1 PUSH4 0xF0282B7F EQ PUSH2 0x12A JUMPI DUP1 PUSH4 0xF14FAF6F EQ PUSH2 0x152 JUMPI JUMPDEST PUSH0 DUP1 REVERT JUMPDEST CALLVALUE DUP1 ISZERO PUSH2 0x63 JUMPI PUSH0 DUP1 REVERT JUMPDEST POP PUSH2 0x7E PUSH1 0x4 DUP1 CALLDATASIZE SUB DUP2 ADD SWAP1 PUSH2 0x79 SWAP2 SWAP1 PUSH2 0xAC5 JUMP JUMPDEST PUSH2 0x16E JUMP JUMPDEST PUSH1 0x40 MLOAD PUSH2 0x93 SWAP10 SWAP9 SWAP8 SWAP7 SWAP6 SWAP5 SWAP4 SWAP3 SWAP2 SWAP1 PUSH2 0xBC8 JUMP JUMPDEST PUSH1 0x40 MLOAD DUP1 SWAP2 SUB SWAP1 RETURN JUMPDEST CALLVALUE DUP1 ISZERO PUSH2 0xA7 JUMPI PUSH0 DUP1 REVERT JUMPDEST POP PUSH2 0xC2 PUSH1 0x4 DUP1 CALLDATASIZE SUB DUP2 ADD SWAP1 PUSH2 0xBD SWAP2 SWAP1 PUSH2 0xD94 JUMP JUMPDEST PUSH2 0x375 JUMP JUMPDEST STOP JUMPDEST CALLVALUE DUP1 ISZERO PUSH2 0xCF JUMPI PUSH0 DUP1 REVERT JUMPDEST POP PUSH2 0xEA PUSH1 0x4 DUP1 CALLDATASIZE SUB DUP2 ADD SWAP1 PUSH2 0xE5 SWAP2 SWAP1 PUSH2 0xE4C JUMP JUMPDEST PUSH2 0x4CE JUMP JUMPDEST PUSH1 0x40 MLOAD PUSH2 0xF7 SWAP2 SWAP1 PUSH2 0x108A JUMP JUMPDEST PUSH1 0x40 MLOAD DUP1 SWAP2 SUB SWAP1 RETURN JUMPDEST CALLVALUE DUP1 ISZERO PUSH2 0x10B JUMPI PUSH0 DUP1 REVERT JUMPDEST POP PUSH2 0x114 PUSH2 0x811 JUMP JUMPDEST PUSH1 0x40 MLOAD PUSH2 0x121 SWAP2 SWAP1 PUSH2 0x10AA JUMP JUMPDEST PUSH1 0x40 MLOAD DUP1 SWAP2 SUB SWAP1 RETURN JUMPDEST CALLVALUE DUP1 ISZERO PUSH2 0x135 JUMPI PUSH0 DUP1 REVERT JUMPDEST POP PUSH2 0x150 PUSH1 0x4 DUP1 CALLDATASIZE SUB DUP2 ADD SWAP1 PUSH2 0x14B SWAP2 SWAP1 PUSH2 0xAC5 JUMP JUMPDEST PUSH2 0x816 JUMP JUMPDEST STOP JUMPDEST PUSH2 0x16C PUSH1 0x4 DUP1 CALLDATASIZE SUB DUP2 ADD SWAP1 PUSH2 0x167 SWAP2 SWAP1 PUSH2 0xAC5 JUMP JUMPDEST PUSH2 0x9BD JUMP JUMPDEST STOP JUMPDEST PUSH1 0x1 PUSH1 0x20 MSTORE DUP1 PUSH0 MSTORE PUSH1 0x40 PUSH0 KECCAK256 PUSH0 SWAP2 POP SWAP1 POP DUP1 PUSH0 ADD SLOAD SWAP1 DUP1 PUSH1 0x1 ADD PUSH0 SWAP1 SLOAD SWAP1 PUSH2 0x100 EXP SWAP1 DIV PUSH20 0xFFFFFFFFFFFFFFFFFFFFFFFFFFFFFFFFFFFFFFFF AND SWAP1 DUP1 PUSH1 0x2 ADD DUP1 SLOAD PUSH2 0x1B8 SWAP1 PUSH2 0x10F0 JUMP JUMPDEST DUP1 PUSH1 0x1F ADD PUSH1 0x20 DUP1 SWAP2 DIV MUL PUSH1 0x20 ADD PUSH1 0x40 MLOAD SWAP1 DUP2 ADD PUSH1 0x40 MSTORE DUP1 SWAP3 SWAP2 SWAP1 DUP2 DUP2 MSTORE PUSH1 0x20 ADD DUP3 DUP1 SLOAD PUSH2 0x1E4 SWAP1 PUSH2 0x10F0 JUMP JUMPDEST DUP1 ISZERO PUSH2 0x22F JUMPI DUP1 PUSH1 0x1F LT PUSH2 0x206 JUMPI PUSH2 0x100 DUP1 DUP4 SLOAD DIV MUL DUP4 MSTORE SWAP2 PUSH1 0x20 ADD SWAP2 PUSH2 0x22F JUMP JUMPDEST DUP3 ADD SWAP2 SWAP1 PUSH0 MSTORE PUSH1 0x20 PUSH0 KECCAK256 SWAP1 JUMPDEST DUP2 SLOAD DUP2 MSTORE SWAP1 PUSH1 0x1 ADD SWAP1 PUSH1 0x20 ADD DUP1 DUP4 GT PUSH2 0x212 JUMPI DUP3 SWAP1 SUB PUSH1 0x1F AND DUP3 ADD SWAP2 JUMPDEST POP POP POP POP POP SWAP1 DUP1 PUSH1 0x3 ADD DUP1 SLOAD PUSH2 0x244 SWAP1 PUSH2 0x10F0 JUMP JUMPDEST DUP1 PUSH1 0x1F ADD PUSH1 0x20 DUP1 SWAP2 DIV MUL PUSH1 0x20 ADD PUSH1 0x40 MLOAD SWAP1 DUP2 ADD PUSH1 0x40 MSTORE DUP1 SWAP3 SWAP2 SWAP1 DUP2 DUP2 MSTORE PUSH1 0x20 ADD DUP3 DUP1 SLOAD PUSH2 0x270 SWAP1 PUSH2 0x10F0 JUMP JUMPDEST DUP1 ISZERO PUSH2 0x2BB JUMPI DUP1 PUSH1 0x1F LT PUSH2 0x292 JUMPI PUSH2 0x100 DUP1 DUP4 SLOAD DIV MUL DUP4 MSTORE SWAP2 PUSH1 0x20 ADD SWAP2 PUSH2 0x2BB JUMP JUMPDEST DUP3 ADD SWAP2 SWAP1 PUSH0 MSTORE PUSH1 0x20 PUSH0 KECCAK256 SWAP1 JUMPDEST DUP2 SLOAD DUP2 MSTORE SWAP1 PUSH1 0x1 ADD SWAP1 PUSH1 0x20 ADD DUP1 DUP4 GT PUSH2 0x29E JUMPI DUP3 SWAP1 SUB PUSH1 0x1F AND DUP3 ADD SWAP2 JUMPDEST POP POP POP POP POP SWAP1 DUP1 PUSH1 0x4 ADD DUP1 SLOAD PUSH2 0x2D0 SWAP1 PUSH2 0x10F0 JUMP JUMPDEST DUP1 PUSH1 0x1F ADD PUSH1 0x20 DUP1 SWAP2 DIV MUL PUSH1 0x20 ADD PUSH1 0x40 MLOAD SWAP1 DUP2 ADD PUSH1 0x40 MSTORE DUP1 SWAP3 SWAP2 SWAP1 DUP2 DUP2 MSTORE PUSH1 0x20 ADD DUP3 DUP1 SLOAD PUSH2 0x2FC SWAP1 PUSH2 0x10F0 JUMP JUMPDEST DUP1 ISZERO PUSH2 0x347 JUMPI DUP1 PUSH1 0x1F LT PUSH2 0x31E JUMPI PUSH2 0x100 DUP1 DUP4 SLOAD DIV MUL DUP4 MSTORE SWAP2 PUSH1 0x20 ADD SWAP2 PUSH2 0x347 JUMP JUMPDEST DUP3 ADD SWAP2 SWAP1 PUSH0 MSTORE PUSH1 0x20 PUSH0 KECCAK256 SWAP1 JUMPDEST DUP2 SLOAD DUP2 MSTORE SWAP1 PUSH1 0x1 ADD SWAP1 PUSH1 0x20 ADD DUP1 DUP4 GT PUSH2 0x32A JUMPI DUP3 SWAP1 SUB PUSH1 0x1F AND DUP3 ADD SWAP2 JUMPDEST POP POP POP POP POP SWAP1 DUP1 PUSH1 0x5 ADD SLOAD SWAP1 DUP1 PUSH1 0x6 ADD SLOAD SWAP1 DUP1 PUSH1 0x7 ADD SLOAD SWAP1 DUP1 PUSH1 0x8 ADD PUSH0 SWAP1 SLOAD SWAP1 PUSH2 0x100 EXP SWAP1 DIV PUSH1 0xFF AND SWAP1 POP DUP10 JUMP JUMPDEST PUSH0 DUP1 DUP2 SLOAD DUP1 SWAP3 SWAP2 SWAP1 PUSH2 0x386 SWAP1 PUSH2 0x114D JUMP JUMPDEST SWAP2 SWAP1 POP SSTORE POP PUSH1 0x40 MLOAD DUP1 PUSH2 0x120 ADD PUSH1 0x40 MSTORE DUP1 PUSH0 SLOAD DUP2 MSTORE PUSH1 0x20 ADD CALLER PUSH20 0xFFFFFFFFFFFFFFFFFFFFFFFFFFFFFFFFFFFFFFFF AND DUP2 MSTORE PUSH1 0x20 ADD DUP6 DUP2 MSTORE PUSH1 0x20 ADD DUP5 DUP2 MSTORE PUSH1 0x20 ADD DUP4 DUP2 MSTORE PUSH1 0x20 ADD TIMESTAMP DUP2 MSTORE PUSH1 0x20 ADD DUP3 DUP2 MSTORE PUSH1 0x20 ADD PUSH0 DUP2 MSTORE PUSH1 0x20 ADD PUSH1 0x1 ISZERO ISZERO DUP2 MSTORE POP PUSH1 0x1 PUSH0 DUP1 SLOAD DUP2 MSTORE PUSH1 0x20 ADD SWAP1 DUP2 MSTORE PUSH1 0x20 ADD PUSH0 KECCAK256 PUSH0 DUP3 ADD MLOAD DUP2 PUSH0 ADD SSTORE PUSH1 0x20 DUP3 ADD MLOAD DUP2 PUSH1 0x1 ADD PUSH0 PUSH2 0x100 EXP DUP2 SLOAD DUP2 PUSH20 0xFFFFFFFFFFFFFFFFFFFFFFFFFFFFFFFFFFFFFFFF MUL NOT AND SWAP1 DUP4 PUSH20 0xFFFFFFFFFFFFFFFFFFFFFFFFFFFFFFFFFFFFFFFF AND MUL OR SWAP1 SSTORE POP PUSH1 0x40 DUP3 ADD MLOAD DUP2 PUSH1 0x2 ADD SWAP1 DUP2 PUSH2 0x45A SWAP2 SWAP1 PUSH2 0x1331 JUMP JUMPDEST POP PUSH1 0x60 DUP3 ADD MLOAD DUP2 PUSH1 0x3 ADD SWAP1 DUP2 PUSH2 0x470 SWAP2 SWAP1 PUSH2 0x1331 JUMP JUMPDEST POP PUSH1 0x80 DUP3 ADD MLOAD DUP2 PUSH1 0x4 ADD SWAP1 DUP2 PUSH2 0x486 SWAP2 SWAP1 PUSH2 0x1331 JUMP JUMPDEST POP PUSH1 0xA0 DUP3 ADD MLOAD DUP2 PUSH1 0x5 ADD SSTORE PUSH1 0xC0 DUP3 ADD MLOAD DUP2 PUSH1 0x6 ADD SSTORE PUSH1 0xE0 DUP3 ADD MLOAD DUP2 PUSH1 0x7 ADD SSTORE PUSH2 0x100 DUP3 ADD MLOAD DUP2 PUSH1 0x8 ADD PUSH0 PUSH2 0x100 EXP DUP2 SLOAD DUP2 PUSH1 0xFF MUL NOT AND SWAP1 DUP4 ISZERO ISZERO MUL OR SWAP1 SSTORE POP SWAP1 POP POP POP POP POP POP JUMP JUMPDEST PUSH1 0x60 PUSH0 DUP3 PUSH8 0xFFFFFFFFFFFFFFFF DUP2 GT ISZERO PUSH2 0x4EB JUMPI PUSH2 0x4EA PUSH2 0xC70 JUMP JUMPDEST JUMPDEST PUSH1 0x40 MLOAD SWAP1 DUP1 DUP3 MSTORE DUP1 PUSH1 0x20 MUL PUSH1 0x20 ADD DUP3 ADD PUSH1 0x40 MSTORE DUP1 ISZERO PUSH2 0x524 JUMPI DUP2 PUSH1 0x20 ADD JUMPDEST PUSH2 0x511 PUSH2 0xA23 JUMP JUMPDEST DUP2 MSTORE PUSH1 0x20 ADD SWAP1 PUSH1 0x1 SWAP1 SUB SWAP1 DUP2 PUSH2 0x509 JUMPI SWAP1 POP JUMPDEST POP SWAP1 POP PUSH0 DUP5 SWAP1 POP PUSH0 JUMPDEST PUSH1 0x1 PUSH0 DUP4 DUP2 MSTORE PUSH1 0x20 ADD SWAP1 DUP2 MSTORE PUSH1 0x20 ADD PUSH0 KECCAK256 PUSH1 0x8 ADD PUSH0 SWAP1 SLOAD SWAP1 PUSH2 0x100 EXP SWAP1 DIV PUSH1 0xFF AND ISZERO PUSH2 0x7E3 JUMPI PUSH1 0x1 PUSH0 DUP4 DUP2 MSTORE PUSH1 0x20 ADD SWAP1 DUP2 MSTORE PUSH1 0x20 ADD PUSH0 KECCAK256 PUSH1 0x40 MLOAD DUP1 PUSH2 0x120 ADD PUSH1 0x40 MSTORE SWAP1 DUP2 PUSH0 DUP3 ADD SLOAD DUP2 MSTORE PUSH1 0x20 ADD PUSH1 0x1 DUP3 ADD PUSH0 SWAP1 SLOAD SWAP1 PUSH2 0x100 EXP SWAP1 DIV PUSH20 0xFFFFFFFFFFFFFFFFFFFFFFFFFFFFFFFFFFFFFFFF AND PUSH20 0xFFFFFFFFFFFFFFFFFFFFFFFFFFFFFFFFFFFFFFFF AND PUSH20 0xFFFFFFFFFFFFFFFFFFFFFFFFFFFFFFFFFFFFFFFF AND DUP2 MSTORE PUSH1 0x20 ADD PUSH1 0x2 DUP3 ADD DUP1 SLOAD PUSH2 0x5DE SWAP1 PUSH2 0x10F0 JUMP JUMPDEST DUP1 PUSH1 0x1F ADD PUSH1 0x20 DUP1 SWAP2 DIV MUL PUSH1 0x20 ADD PUSH1 0x40 MLOAD SWAP1 DUP2 ADD PUSH1 0x40 MSTORE DUP1 SWAP3 SWAP2 SWAP1 DUP2 DUP2 MSTORE PUSH1 0x20 ADD DUP3 DUP1 SLOAD PUSH2 0x60A SWAP1 PUSH2 0x10F0 JUMP JUMPDEST DUP1 ISZERO PUSH2 0x655 JUMPI DUP1 PUSH1 0x1F LT PUSH2 0x62C JUMPI PUSH2 0x100 DUP1 DUP4 SLOAD DIV MUL DUP4 MSTORE SWAP2 PUSH1 0x20 ADD SWAP2 PUSH2 0x655 JUMP JUMPDEST DUP3 ADD SWAP2 SWAP1 PUSH0 MSTORE PUSH1 0x20 PUSH0 KECCAK256 SWAP1 JUMPDEST DUP2 SLOAD DUP2 MSTORE SWAP1 PUSH1 0x1 ADD SWAP1 PUSH1 0x20 ADD DUP1 DUP4 GT PUSH2 0x638 JUMPI DUP3 SWAP1 SUB PUSH1 0x1F AND DUP3 ADD SWAP2 JUMPDEST POP POP POP POP POP DUP2 MSTORE PUSH1 0x20 ADD PUSH1 0x3 DUP3 ADD DUP1 SLOAD PUSH2 0x66E SWAP1 PUSH2 0x10F0 JUMP JUMPDEST DUP1 PUSH1 0x1F ADD PUSH1 0x20 DUP1 SWAP2 DIV MUL PUSH1 0x20 ADD PUSH1 0x40 MLOAD SWAP1 DUP2 ADD PUSH1 0x40 MSTORE DUP1 SWAP3 SWAP2 SWAP1 DUP2 DUP2 MSTORE PUSH1 0x20 ADD DUP3 DUP1 SLOAD PUSH2 0x69A SWAP1 PUSH2 0x10F0 JUMP JUMPDEST DUP1 ISZERO PUSH2 0x6E5 JUMPI DUP1 PUSH1 0x1F LT PUSH2 0x6BC JUMPI PUSH2 0x100 DUP1 DUP4 SLOAD DIV MUL DUP4 MSTORE SWAP2 PUSH1 0x20 ADD SWAP2 PUSH2 0x6E5 JUMP JUMPDEST DUP3 ADD SWAP2 SWAP1 PUSH0 MSTORE PUSH1 0x20 PUSH0 KECCAK256 SWAP1 JUMPDEST DUP2 SLOAD DUP2 MSTORE SWAP1 PUSH1 0x1 ADD SWAP1 PUSH1 0x20 ADD DUP1 DUP4 GT PUSH2 0x6C8 JUMPI DUP3 SWAP1 SUB PUSH1 0x1F AND DUP3 ADD SWAP2 JUMPDEST POP POP POP POP POP DUP2 MSTORE PUSH1 0x20 ADD PUSH1 0x4 DUP3 ADD DUP1 SLOAD PUSH2 0x6FE SWAP1 PUSH2 0x10F0 JUMP JUMPDEST DUP1 PUSH1 0x1F ADD PUSH1 0x20 DUP1 SWAP2 DIV MUL PUSH1 0x20 ADD PUSH1 0x40 MLOAD SWAP1 DUP2 ADD PUSH1 0x40 MSTORE DUP1 SWAP3 SWAP2 SWAP1 DUP2 DUP2 MSTORE PUSH1 0x20 ADD DUP3 DUP1 SLOAD PUSH2 0x72A SWAP1 PUSH2 0x10F0 JUMP JUMPDEST DUP1 ISZERO PUSH2 0x775 JUMPI DUP1 PUSH1 0x1F LT PUSH2 0x74C JUMPI PUSH2 0x100 DUP1 DUP4 SLOAD DIV MUL DUP4 MSTORE SWAP2 PUSH1 0x20 ADD SWAP2 PUSH2 0x775 JUMP JUMPDEST DUP3 ADD SWAP2 SWAP1 PUSH0 MSTORE PUSH1 0x20 PUSH0 KECCAK256 SWAP1 JUMPDEST DUP2 SLOAD DUP2 MSTORE SWAP1 PUSH1 0x1 ADD SWAP1 PUSH1 0x20 ADD DUP1 DUP4 GT PUSH2 0x758 JUMPI DUP3 SWAP1 SUB PUSH1 0x1F AND DUP3 ADD SWAP2 JUMPDEST POP POP POP POP POP DUP2 MSTORE PUSH1 0x20 ADD PUSH1 0x5 DUP3 ADD SLOAD DUP2 MSTORE PUSH1 0x20 ADD PUSH1 0x6 DUP3 ADD SLOAD DUP2 MSTORE PUSH1 0x20 ADD PUSH1 0x7 DUP3 ADD SLOAD DUP2 MSTORE PUSH1 0x20 ADD PUSH1 0x8 DUP3 ADD PUSH0 SWAP1 SLOAD SWAP1 PUSH2 0x100 EXP SWAP1 DIV PUSH1 0xFF AND ISZERO ISZERO ISZERO ISZERO DUP2 MSTORE POP POP DUP4 DUP3 DUP2 MLOAD DUP2 LT PUSH2 0x7C9 JUMPI PUSH2 0x7C8 PUSH2 0x1400 JUMP JUMPDEST JUMPDEST PUSH1 0x20 MUL PUSH1 0x20 ADD ADD DUP2 SWAP1 MSTORE POP DUP1 DUP1 PUSH2 0x7DF SWAP1 PUSH2 0x114D JUMP JUMPDEST SWAP2 POP POP JUMPDEST DUP2 DUP1 PUSH2 0x7EE SWAP1 PUSH2 0x114D JUMP JUMPDEST SWAP3 POP POP DUP5 DUP2 LT DUP1 ISZERO PUSH2 0x801 JUMPI POP PUSH0 SLOAD DUP3 GT ISZERO JUMPDEST PUSH2 0x52D JUMPI DUP3 SWAP4 POP POP POP POP SWAP3 SWAP2 POP POP JUMP JUMPDEST PUSH0 SLOAD DUP2 JUMP JUMPDEST PUSH0 PUSH1 0x1 PUSH0 DUP4 DUP2 MSTORE PUSH1 0x20 ADD SWAP1 DUP2 MSTORE PUSH1 0x20 ADD PUSH0 KECCAK256 PUSH1 0x1 ADD PUSH0 SWAP1 SLOAD SWAP1 PUSH2 0x100 EXP SWAP1 DIV PUSH20 0xFFFFFFFFFFFFFFFFFFFFFFFFFFFFFFFFFFFFFFFF AND SWAP1 POP PUSH0 PUSH1 0x1 PUSH0 DUP5 DUP2 MSTORE PUSH1 0x20 ADD SWAP1 DUP2 MSTORE PUSH1 0x20 ADD PUSH0 KECCAK256 PUSH1 0x7 ADD SLOAD SWAP1 POP PUSH0 PUSH1 0x1 PUSH0 DUP6 DUP2 MSTORE PUSH1 0x20 ADD SWAP1 DUP2 MSTORE PUSH1 0x20 ADD PUSH0 KECCAK256 PUSH1 0x6 ADD SLOAD SWAP1 POP PUSH1 0x1 ISZERO ISZERO PUSH1 0x1 PUSH0 DUP7 DUP2 MSTORE PUSH1 0x20 ADD SWAP1 DUP2 MSTORE PUSH1 0x20 ADD PUSH0 KECCAK256 PUSH1 0x8 ADD PUSH0 SWAP1 SLOAD SWAP1 PUSH2 0x100 EXP SWAP1 DIV PUSH1 0xFF AND ISZERO ISZERO EQ DUP1 ISZERO PUSH2 0x8DC JUMPI POP DUP3 PUSH20 0xFFFFFFFFFFFFFFFFFFFFFFFFFFFFFFFFFFFFFFFF AND CALLER PUSH20 0xFFFFFFFFFFFFFFFFFFFFFFFFFFFFFFFFFFFFFFFF AND EQ JUMPDEST DUP1 PUSH2 0x8E7 JUMPI POP DUP1 DUP3 LT ISZERO JUMPDEST PUSH2 0x926 JUMPI PUSH1 0x40 MLOAD PUSH32 0x8C379A000000000000000000000000000000000000000000000000000000000 DUP2 MSTORE PUSH1 0x4 ADD PUSH2 0x91D SWAP1 PUSH2 0x1477 JUMP JUMPDEST PUSH1 0x40 MLOAD DUP1 SWAP2 SUB SWAP1 REVERT JUMPDEST PUSH0 PUSH1 0x1 PUSH0 DUP7 DUP2 MSTORE PUSH1 0x20 ADD SWAP1 DUP2 MSTORE PUSH1 0x20 ADD PUSH0 KECCAK256 PUSH1 0x8 ADD PUSH0 PUSH2 0x100 EXP DUP2 SLOAD DUP2 PUSH1 0xFF MUL NOT AND SWAP1 DUP4 ISZERO ISZERO MUL OR SWAP1 SSTORE POP PUSH0 DUP3 GT ISZERO PUSH2 0x9B7 JUMPI PUSH0 PUSH1 0x1 PUSH0 DUP7 DUP2 MSTORE PUSH1 0x20 ADD SWAP1 DUP2 MSTORE PUSH1 0x20 ADD PUSH0 KECCAK256 PUSH1 0x7 ADD DUP2 SWAP1 SSTORE POP DUP3 PUSH20 0xFFFFFFFFFFFFFFFFFFFFFFFFFFFFFFFFFFFFFFFF AND PUSH2 0x8FC DUP4 SWAP1 DUP2 ISZERO MUL SWAP1 PUSH1 0x40 MLOAD PUSH0 PUSH1 0x40 MLOAD DUP1 DUP4 SUB DUP2 DUP6 DUP9 DUP9 CALL SWAP4 POP POP POP POP ISZERO DUP1 ISZERO PUSH2 0x9B5 JUMPI RETURNDATASIZE PUSH0 DUP1 RETURNDATACOPY RETURNDATASIZE PUSH0 REVERT JUMPDEST POP JUMPDEST POP POP POP POP JUMP JUMPDEST CALLVALUE PUSH1 0x1 PUSH0 DUP4 DUP2 MSTORE PUSH1 0x20 ADD SWAP1 DUP2 MSTORE PUSH1 0x20 ADD PUSH0 KECCAK256 PUSH1 0x7 ADD PUSH0 DUP3 DUP3 SLOAD PUSH2 0x9E0 SWAP2 SWAP1 PUSH2 0x1495 JUMP JUMPDEST SWAP3 POP POP DUP2 SWAP1 SSTORE POP PUSH1 0x1 PUSH0 DUP3 DUP2 MSTORE PUSH1 0x20 ADD SWAP1 DUP2 MSTORE PUSH1 0x20 ADD PUSH0 KECCAK256 PUSH1 0x6 ADD SLOAD PUSH1 0x1 PUSH0 DUP4 DUP2 MSTORE PUSH1 0x20 ADD SWAP1 DUP2 MSTORE PUSH1 0x20 ADD PUSH0 KECCAK256 PUSH1 0x7 ADD SLOAD LT PUSH2 0xA20 JUMPI PUSH2 0xA1F DUP2 PUSH2 0x816 JUMP JUMPDEST JUMPDEST POP JUMP JUMPDEST PUSH1 0x40 MLOAD DUP1 PUSH2 0x120 ADD PUSH1 0x40 MSTORE DUP1 PUSH0 DUP2 MSTORE PUSH1 0x20 ADD PUSH0 PUSH20 0xFFFFFFFFFFFFFFFFFFFFFFFFFFFFFFFFFFFFFFFF AND DUP2 MSTORE PUSH1 0x20 ADD PUSH1 0x60 DUP2 MSTORE PUSH1 0x20 ADD PUSH1 0x60 DUP2 MSTORE PUSH1 0x20 ADD PUSH1 0x60 DUP2 MSTORE PUSH1 0x20 ADD PUSH0 DUP2 MSTORE PUSH1 0x20 ADD PUSH0 DUP2 MSTORE PUSH1 0x20 ADD PUSH0 DUP2 MSTORE PUSH1 0x20 ADD PUSH0 ISZERO ISZERO DUP2 MSTORE POP SWAP1 JUMP JUMPDEST PUSH0 PUSH1 0x40 MLOAD SWAP1 POP SWAP1 JUMP JUMPDEST PUSH0 DUP1 REVERT JUMPDEST PUSH0 DUP1 REVERT JUMPDEST PUSH0 DUP2 SWAP1 POP SWAP2 SWAP1 POP JUMP JUMPDEST PUSH2 0xAA4 DUP2 PUSH2 0xA92 JUMP JUMPDEST DUP2 EQ PUSH2 0xAAE JUMPI PUSH0 DUP1 REVERT JUMPDEST POP JUMP JUMPDEST PUSH0 DUP2 CALLDATALOAD SWAP1 POP PUSH2 0xABF DUP2 PUSH2 0xA9B JUMP JUMPDEST SWAP3 SWAP2 POP POP JUMP JUMPDEST PUSH0 PUSH1 0x20 DUP3 DUP5 SUB SLT ISZERO PUSH2 0xADA JUMPI PUSH2 0xAD9 PUSH2 0xA8A JUMP JUMPDEST JUMPDEST PUSH0 PUSH2 0xAE7 DUP5 DUP3 DUP6 ADD PUSH2 0xAB1 JUMP JUMPDEST SWAP2 POP POP SWAP3 SWAP2 POP POP JUMP JUMPDEST PUSH2 0xAF9 DUP2 PUSH2 0xA92 JUMP JUMPDEST DUP3 MSTORE POP POP JUMP JUMPDEST PUSH0 PUSH20 0xFFFFFFFFFFFFFFFFFFFFFFFFFFFFFFFFFFFFFFFF DUP3 AND SWAP1 POP SWAP2 SWAP1 POP JUMP JUMPDEST PUSH0 PUSH2 0xB28 DUP3 PUSH2 0xAFF JUMP JUMPDEST SWAP1 POP SWAP2 SWAP1 POP JUMP JUMPDEST PUSH2 0xB38 DUP2 PUSH2 0xB1E JUMP JUMPDEST DUP3 MSTORE POP POP JUMP JUMPDEST PUSH0 DUP2 MLOAD SWAP1 POP SWAP2 SWAP1 POP JUMP JUMPDEST PUSH0 DUP3 DUP3 MSTORE PUSH1 0x20 DUP3 ADD SWAP1 POP SWAP3 SWAP2 POP POP JUMP JUMPDEST DUP3 DUP2 DUP4 MCOPY PUSH0 DUP4 DUP4 ADD MSTORE POP POP POP JUMP JUMPDEST PUSH0 PUSH1 0x1F NOT PUSH1 0x1F DUP4 ADD AND SWAP1 POP SWAP2 SWAP1 POP JUMP JUMPDEST PUSH0 PUSH2 0xB80 DUP3 PUSH2 0xB3E JUMP JUMPDEST PUSH2 0xB8A DUP2 DUP6 PUSH2 0xB48 JUMP JUMPDEST SWAP4 POP PUSH2 0xB9A DUP2 DUP6 PUSH1 0x20 DUP7 ADD PUSH2 0xB58 JUMP JUMPDEST PUSH2 0xBA3 DUP2 PUSH2 0xB66 JUMP JUMPDEST DUP5 ADD SWAP2 POP POP SWAP3 SWAP2 POP POP JUMP JUMPDEST PUSH0 DUP2 ISZERO ISZERO SWAP1 POP SWAP2 SWAP1 POP JUMP JUMPDEST PUSH2 0xBC2 DUP2 PUSH2 0xBAE JUMP JUMPDEST DUP3 MSTORE POP POP JUMP JUMPDEST PUSH0 PUSH2 0x120 DUP3 ADD SWAP1 POP PUSH2 0xBDC PUSH0 DUP4 ADD DUP13 PUSH2 0xAF0 JUMP JUMPDEST PUSH2 0xBE9 PUSH1 0x20 DUP4 ADD DUP12 PUSH2 0xB2F JUMP JUMPDEST DUP2 DUP2 SUB PUSH1 0x40 DUP4 ADD MSTORE PUSH2 0xBFB DUP2 DUP11 PUSH2 0xB76 JUMP JUMPDEST SWAP1 POP DUP2 DUP2 SUB PUSH1 0x60 DUP4 ADD MSTORE PUSH2 0xC0F DUP2 DUP10 PUSH2 0xB76 JUMP JUMPDEST SWAP1 POP DUP2 DUP2 SUB PUSH1 0x80 DUP4 ADD MSTORE PUSH2 0xC23 DUP2 DUP9 PUSH2 0xB76 JUMP JUMPDEST SWAP1 POP PUSH2 0xC32 PUSH1 0xA0 DUP4 ADD DUP8 PUSH2 0xAF0 JUMP JUMPDEST PUSH2 0xC3F PUSH1 0xC0 DUP4 ADD DUP7 PUSH2 0xAF0 JUMP JUMPDEST PUSH2 0xC4C PUSH1 0xE0 DUP4 ADD DUP6 PUSH2 0xAF0 JUMP JUMPDEST PUSH2 0xC5A PUSH2 0x100 DUP4 ADD DUP5 PUSH2 0xBB9 JUMP JUMPDEST SWAP11 SWAP10 POP POP POP POP POP POP POP POP POP POP JUMP JUMPDEST PUSH0 DUP1 REVERT JUMPDEST PUSH0 DUP1 REVERT JUMPDEST PUSH32 0x4E487B7100000000000000000000000000000000000000000000000000000000 PUSH0 MSTORE PUSH1 0x41 PUSH1 0x4 MSTORE PUSH1 0x24 PUSH0 REVERT JUMPDEST PUSH2 0xCA6 DUP3 PUSH2 0xB66 JUMP JUMPDEST DUP2 ADD DUP2 DUP2 LT PUSH8 0xFFFFFFFFFFFFFFFF DUP3 GT OR ISZERO PUSH2 0xCC5 JUMPI PUSH2 0xCC4 PUSH2 0xC70 JUMP JUMPDEST JUMPDEST DUP1 PUSH1 0x40 MSTORE POP POP POP JUMP JUMPDEST PUSH0 PUSH2 0xCD7 PUSH2 0xA81 JUMP JUMPDEST SWAP1 POP PUSH2 0xCE3 DUP3 DUP3 PUSH2 0xC9D JUMP JUMPDEST SWAP2 SWAP1 POP JUMP JUMPDEST PUSH0 PUSH8 0xFFFFFFFFFFFFFFFF DUP3 GT ISZERO PUSH2 0xD02 JUMPI PUSH2 0xD01 PUSH2 0xC70 JUMP JUMPDEST JUMPDEST PUSH2 0xD0B DUP3 PUSH2 0xB66 JUMP JUMPDEST SWAP1 POP PUSH1 0x20 DUP2 ADD SWAP1 POP SWAP2 SWAP1 POP JUMP JUMPDEST DUP3 DUP2 DUP4 CALLDATACOPY PUSH0 DUP4 DUP4 ADD MSTORE POP POP POP JUMP JUMPDEST PUSH0 PUSH2 0xD38 PUSH2 0xD33 DUP5 PUSH2 0xCE8 JUMP JUMPDEST PUSH2 0xCCE JUMP JUMPDEST SWAP1 POP DUP3 DUP2 MSTORE PUSH1 0x20 DUP2 ADD DUP5 DUP5 DUP5 ADD GT ISZERO PUSH2 0xD54 JUMPI PUSH2 0xD53 PUSH2 0xC6C JUMP JUMPDEST JUMPDEST PUSH2 0xD5F DUP5 DUP3 DUP6 PUSH2 0xD18 JUMP JUMPDEST POP SWAP4 SWAP3 POP POP POP JUMP JUMPDEST PUSH0 DUP3 PUSH1 0x1F DUP4 ADD SLT PUSH2 0xD7B JUMPI PUSH2 0xD7A PUSH2 0xC68 JUMP JUMPDEST JUMPDEST DUP2 CALLDATALOAD PUSH2 0xD8B DUP5 DUP3 PUSH1 0x20 DUP7 ADD PUSH2 0xD26 JUMP JUMPDEST SWAP2 POP POP SWAP3 SWAP2 POP POP JUMP JUMPDEST PUSH0 DUP1 PUSH0 DUP1 PUSH1 0x80 DUP6 DUP8 SUB SLT ISZERO PUSH2 0xDAC JUMPI PUSH2 0xDAB PUSH2 0xA8A JUMP JUMPDEST JUMPDEST PUSH0 DUP6 ADD CALLDATALOAD PUSH8 0xFFFFFFFFFFFFFFFF DUP2 GT ISZERO PUSH2 0xDC9 JUMPI PUSH2 0xDC8 PUSH2 0xA8E JUMP JUMPDEST JUMPDEST PUSH2 0xDD5 DUP8 DUP3 DUP9 ADD PUSH2 0xD67 JUMP JUMPDEST SWAP5 POP POP PUSH1 0x20 DUP6 ADD CALLDATALOAD PUSH8 0xFFFFFFFFFFFFFFFF DUP2 GT ISZERO PUSH2 0xDF6 JUMPI PUSH2 0xDF5 PUSH2 0xA8E JUMP JUMPDEST JUMPDEST PUSH2 0xE02 DUP8 DUP3 DUP9 ADD PUSH2 0xD67 JUMP JUMPDEST SWAP4 POP POP PUSH1 0x40 DUP6 ADD CALLDATALOAD PUSH8 0xFFFFFFFFFFFFFFFF DUP2 GT ISZERO PUSH2 0xE23 JUMPI PUSH2 0xE22 PUSH2 0xA8E JUMP JUMPDEST JUMPDEST PUSH2 0xE2F DUP8 DUP3 DUP9 ADD PUSH2 0xD67 JUMP JUMPDEST SWAP3 POP POP PUSH1 0x60 PUSH2 0xE40 DUP8 DUP3 DUP9 ADD PUSH2 0xAB1 JUMP JUMPDEST SWAP2 POP POP SWAP3 SWAP6 SWAP2 SWAP5 POP SWAP3 POP JUMP JUMPDEST PUSH0 DUP1 PUSH1 0x40 DUP4 DUP6 SUB SLT ISZERO PUSH2 0xE62 JUMPI PUSH2 0xE61 PUSH2 0xA8A JUMP JUMPDEST JUMPDEST PUSH0 PUSH2 0xE6F DUP6 DUP3 DUP7 ADD PUSH2 0xAB1 JUMP JUMPDEST SWAP3 POP POP PUSH1 0x20 PUSH2 0xE80 DUP6 DUP3 DUP7 ADD PUSH2 0xAB1 JUMP JUMPDEST SWAP2 POP POP SWAP3 POP SWAP3 SWAP1 POP JUMP JUMPDEST PUSH0 DUP2 MLOAD SWAP1 POP SWAP2 SWAP1 POP JUMP JUMPDEST PUSH0 DUP3 DUP3 MSTORE PUSH1 0x20 DUP3 ADD SWAP1 POP SWAP3 SWAP2 POP POP JUMP JUMPDEST PUSH0 DUP2 SWAP1 POP PUSH1 0x20 DUP3 ADD SWAP1 POP SWAP2 SWAP1 POP JUMP JUMPDEST PUSH2 0xEBC DUP2 PUSH2 0xA92 JUMP JUMPDEST DUP3 MSTORE POP POP JUMP JUMPDEST PUSH2 0xECB DUP2 PUSH2 0xB1E JUMP JUMPDEST DUP3 MSTORE POP POP JUMP JUMPDEST PUSH0 DUP3 DUP3 MSTORE PUSH1 0x20 DUP3 ADD SWAP1 POP SWAP3 SWAP2 POP POP JUMP JUMPDEST PUSH0 PUSH2 0xEEB DUP3 PUSH2 0xB3E JUMP JUMPDEST PUSH2 0xEF5 DUP2 DUP6 PUSH2 0xED1 JUMP JUMPDEST SWAP4 POP PUSH2 0xF05 DUP2 DUP6 PUSH1 0x20 DUP7 ADD PUSH2 0xB58 JUMP JUMPDEST PUSH2 0xF0E DUP2 PUSH2 0xB66 JUMP JUMPDEST DUP5 ADD SWAP2 POP POP SWAP3 SWAP2 POP POP JUMP JUMPDEST PUSH2 0xF22 DUP2 PUSH2 0xBAE JUMP JUMPDEST DUP3 MSTORE POP POP JUMP JUMPDEST PUSH0 PUSH2 0x120 DUP4 ADD PUSH0 DUP4 ADD MLOAD PUSH2 0xF3E PUSH0 DUP7 ADD DUP3 PUSH2 0xEB3 JUMP JUMPDEST POP PUSH1 0x20 DUP4 ADD MLOAD PUSH2 0xF51 PUSH1 0x20 DUP7 ADD DUP3 PUSH2 0xEC2 JUMP JUMPDEST POP PUSH1 0x40 DUP4 ADD MLOAD DUP5 DUP3 SUB PUSH1 0x40 DUP7 ADD MSTORE PUSH2 0xF69 DUP3 DUP3 PUSH2 0xEE1 JUMP JUMPDEST SWAP2 POP POP PUSH1 0x60 DUP4 ADD MLOAD DUP5 DUP3 SUB PUSH1 0x60 DUP7 ADD MSTORE PUSH2 0xF83 DUP3 DUP3 PUSH2 0xEE1 JUMP JUMPDEST SWAP2 POP POP PUSH1 0x80 DUP4 ADD MLOAD DUP5 DUP3 SUB PUSH1 0x80 DUP7 ADD MSTORE PUSH2 0xF9D DUP3 DUP3 PUSH2 0xEE1 JUMP JUMPDEST SWAP2 POP POP PUSH1 0xA0 DUP4 ADD MLOAD PUSH2 0xFB2 PUSH1 0xA0 DUP7 ADD DUP3 PUSH2 0xEB3 JUMP JUMPDEST POP PUSH1 0xC0 DUP4 ADD MLOAD PUSH2 0xFC5 PUSH1 0xC0 DUP7 ADD DUP3 PUSH2 0xEB3 JUMP JUMPDEST POP PUSH1 0xE0 DUP4 ADD MLOAD PUSH2 0xFD8 PUSH1 0xE0 DUP7 ADD DUP3 PUSH2 0xEB3 JUMP JUMPDEST POP PUSH2 0x100 DUP4 ADD MLOAD PUSH2 0xFED PUSH2 0x100 DUP7 ADD DUP3 PUSH2 0xF19 JUMP JUMPDEST POP DUP1 SWAP2 POP POP SWAP3 SWAP2 POP POP JUMP JUMPDEST PUSH0 PUSH2 0x1003 DUP4 DUP4 PUSH2 0xF28 JUMP JUMPDEST SWAP1 POP SWAP3 SWAP2 POP POP JUMP JUMPDEST PUSH0 PUSH1 0x20 DUP3 ADD SWAP1 POP SWAP2 SWAP1 POP JUMP JUMPDEST PUSH0 PUSH2 0x1021 DUP3 PUSH2 0xE8A JUMP JUMPDEST PUSH2 0x102B DUP2 DUP6 PUSH2 0xE94 JUMP JUMPDEST SWAP4 POP DUP4 PUSH1 0x20 DUP3 MUL DUP6 ADD PUSH2 0x103D DUP6 PUSH2 0xEA4 JUMP JUMPDEST DUP1 PUSH0 JUMPDEST DUP6 DUP2 LT ISZERO PUSH2 0x1078 JUMPI DUP5 DUP5 SUB DUP10 MSTORE DUP2 MLOAD PUSH2 0x1059 DUP6 DUP3 PUSH2 0xFF8 JUMP JUMPDEST SWAP5 POP PUSH2 0x1064 DUP4 PUSH2 0x100B JUMP JUMPDEST SWAP3 POP PUSH1 0x20 DUP11 ADD SWAP10 POP POP PUSH1 0x1 DUP2 ADD SWAP1 POP PUSH2 0x1040 JUMP JUMPDEST POP DUP3 SWAP8 POP DUP8 SWAP6 POP POP POP POP POP POP SWAP3 SWAP2 POP POP JUMP JUMPDEST PUSH0 PUSH1 0x20 DUP3 ADD SWAP1 POP DUP2 DUP2 SUB PUSH0 DUP4 ADD MSTORE PUSH2 0x10A2 DUP2 DUP5 PUSH2 0x1017 JUMP JUMPDEST SWAP1 POP SWAP3 SWAP2 POP POP JUMP JUMPDEST PUSH0 PUSH1 0x20 DUP3 ADD SWAP1 POP PUSH2 0x10BD PUSH0 DUP4 ADD DUP5 PUSH2 0xAF0 JUMP JUMPDEST SWAP3 SWAP2 POP POP JUMP JUMPDEST PUSH32 0x4E487B7100000000000000000000000000000000000000000000000000000000 PUSH0 MSTORE PUSH1 0x22 PUSH1 0x4 MSTORE PUSH1 0x24 PUSH0 REVERT JUMPDEST PUSH0 PUSH1 0x2 DUP3 DIV SWAP1 POP PUSH1 0x1 DUP3 AND DUP1 PUSH2 0x1107 JUMPI PUSH1 0x7F DUP3 AND SWAP2 POP JUMPDEST PUSH1 0x20 DUP3 LT DUP2 SUB PUSH2 0x111A JUMPI PUSH2 0x1119 PUSH2 0x10C3 JUMP JUMPDEST JUMPDEST POP SWAP2 SWAP1 POP JUMP JUMPDEST PUSH32 0x4E487B7100000000000000000000000000000000000000000000000000000000 PUSH0 MSTORE PUSH1 0x11 PUSH1 0x4 MSTORE PUSH1 0x24 PUSH0 REVERT JUMPDEST PUSH0 PUSH2 0x1157 DUP3 PUSH2 0xA92 JUMP JUMPDEST SWAP2 POP PUSH32 0xFFFFFFFFFFFFFFFFFFFFFFFFFFFFFFFFFFFFFFFFFFFFFFFFFFFFFFFFFFFFFFFF DUP3 SUB PUSH2 0x1189 JUMPI PUSH2 0x1188 PUSH2 0x1120 JUMP JUMPDEST JUMPDEST PUSH1 0x1 DUP3 ADD SWAP1 POP SWAP2 SWAP1 POP JUMP JUMPDEST PUSH0 DUP2 SWAP1 POP DUP2 PUSH0 MSTORE PUSH1 0x20 PUSH0 KECCAK256 SWAP1 POP SWAP2 SWAP1 POP JUMP JUMPDEST PUSH0 PUSH1 0x20 PUSH1 0x1F DUP4 ADD DIV SWAP1 POP SWAP2 SWAP1 POP JUMP JUMPDEST PUSH0 DUP3 DUP3 SHL SWAP1 POP SWAP3 SWAP2 POP POP JUMP JUMPDEST PUSH0 PUSH1 0x8 DUP4 MUL PUSH2 0x11F0 PUSH32 0xFFFFFFFFFFFFFFFFFFFFFFFFFFFFFFFFFFFFFFFFFFFFFFFFFFFFFFFFFFFFFFFF DUP3 PUSH2 0x11B5 JUMP JUMPDEST PUSH2 0x11FA DUP7 DUP4 PUSH2 0x11B5 JUMP JUMPDEST SWAP6 POP DUP1 NOT DUP5 AND SWAP4 POP DUP1 DUP7 AND DUP5 OR SWAP3 POP POP POP SWAP4 SWAP3 POP POP POP JUMP JUMPDEST PUSH0 DUP2 SWAP1 POP SWAP2 SWAP1 POP JUMP JUMPDEST PUSH0 PUSH2 0x1235 PUSH2 0x1230 PUSH2 0x122B DUP5 PUSH2 0xA92 JUMP JUMPDEST PUSH2 0x1212 JUMP JUMPDEST PUSH2 0xA92 JUMP JUMPDEST SWAP1 POP SWAP2 SWAP1 POP JUMP JUMPDEST PUSH0 DUP2 SWAP1 POP SWAP2 SWAP1 POP JUMP JUMPDEST PUSH2 0x124E DUP4 PUSH2 0x121B JUMP JUMPDEST PUSH2 0x1262 PUSH2 0x125A DUP3 PUSH2 0x123C JUMP JUMPDEST DUP5 DUP5 SLOAD PUSH2 0x11C1 JUMP JUMPDEST DUP3 SSTORE POP POP POP POP JUMP JUMPDEST PUSH0 SWAP1 JUMP JUMPDEST PUSH2 0x1276 PUSH2 0x126A JUMP JUMPDEST PUSH2 0x1281 DUP2 DUP5 DUP5 PUSH2 0x1245 JUMP JUMPDEST POP POP POP JUMP JUMPDEST JUMPDEST DUP2 DUP2 LT ISZERO PUSH2 0x12A4 JUMPI PUSH2 0x1299 PUSH0 DUP3 PUSH2 0x126E JUMP JUMPDEST PUSH1 0x1 DUP2 ADD SWAP1 POP PUSH2 0x1287 JUMP JUMPDEST POP POP JUMP JUMPDEST PUSH1 0x1F DUP3 GT ISZERO PUSH2 0x12E9 JUMPI PUSH2 0x12BA DUP2 PUSH2 0x1194 JUMP JUMPDEST PUSH2 0x12C3 DUP5 PUSH2 0x11A6 JUMP JUMPDEST DUP2 ADD PUSH1 0x20 DUP6 LT ISZERO PUSH2 0x12D2 JUMPI DUP2 SWAP1 POP JUMPDEST PUSH2 0x12E6 PUSH2 0x12DE DUP6 PUSH2 0x11A6 JUMP JUMPDEST DUP4 ADD DUP3 PUSH2 0x1286 JUMP JUMPDEST POP POP JUMPDEST POP POP POP JUMP JUMPDEST PUSH0 DUP3 DUP3 SHR SWAP1 POP SWAP3 SWAP2 POP POP JUMP JUMPDEST PUSH0 PUSH2 0x1309 PUSH0 NOT DUP5 PUSH1 0x8 MUL PUSH2 0x12EE JUMP JUMPDEST NOT DUP1 DUP4 AND SWAP2 POP POP SWAP3 SWAP2 POP POP JUMP JUMPDEST PUSH0 PUSH2 0x1321 DUP4 DUP4 PUSH2 0x12FA JUMP JUMPDEST SWAP2 POP DUP3 PUSH1 0x2 MUL DUP3 OR SWAP1 POP SWAP3 SWAP2 POP POP JUMP JUMPDEST PUSH2 0x133A DUP3 PUSH2 0xB3E JUMP JUMPDEST PUSH8 0xFFFFFFFFFFFFFFFF DUP2 GT ISZERO PUSH2 0x1353 JUMPI PUSH2 0x1352 PUSH2 0xC70 JUMP JUMPDEST JUMPDEST PUSH2 0x135D DUP3 SLOAD PUSH2 0x10F0 JUMP JUMPDEST PUSH2 0x1368 DUP3 DUP3 DUP6 PUSH2 0x12A8 JUMP JUMPDEST PUSH0 PUSH1 0x20 SWAP1 POP PUSH1 0x1F DUP4 GT PUSH1 0x1 DUP2 EQ PUSH2 0x1399 JUMPI PUSH0 DUP5 ISZERO PUSH2 0x1387 JUMPI DUP3 DUP8 ADD MLOAD SWAP1 POP JUMPDEST PUSH2 0x1391 DUP6 DUP3 PUSH2 0x1316 JUMP JUMPDEST DUP7 SSTORE POP PUSH2 0x13F8 JUMP JUMPDEST PUSH1 0x1F NOT DUP5 AND PUSH2 0x13A7 DUP7 PUSH2 0x1194 JUMP JUMPDEST PUSH0 JUMPDEST DUP3 DUP2 LT ISZERO PUSH2 0x13CE JUMPI DUP5 DUP10 ADD MLOAD DUP3 SSTORE PUSH1 0x1 DUP3 ADD SWAP2 POP PUSH1 0x20 DUP6 ADD SWAP5 POP PUSH1 0x20 DUP2 ADD SWAP1 POP PUSH2 0x13A9 JUMP JUMPDEST DUP7 DUP4 LT ISZERO PUSH2 0x13EB JUMPI DUP5 DUP10 ADD MLOAD PUSH2 0x13E7 PUSH1 0x1F DUP10 AND DUP3 PUSH2 0x12FA JUMP JUMPDEST DUP4 SSTORE POP JUMPDEST PUSH1 0x1 PUSH1 0x2 DUP9 MUL ADD DUP9 SSTORE POP POP POP JUMPDEST POP POP POP POP POP POP JUMP JUMPDEST PUSH32 0x4E487B7100000000000000000000000000000000000000000000000000000000 PUSH0 MSTORE PUSH1 0x32 PUSH1 0x4 MSTORE PUSH1 0x24 PUSH0 REVERT JUMPDEST PUSH32 0x596F752063616E6E6F7420636C6F736520746869732072657175657374000000 PUSH0 DUP3 ADD MSTORE POP JUMP JUMPDEST PUSH0 PUSH2 0x1461 PUSH1 0x1D DUP4 PUSH2 0xB48 JUMP JUMPDEST SWAP2 POP PUSH2 0x146C DUP3 PUSH2 0x142D JUMP JUMPDEST PUSH1 0x20 DUP3 ADD SWAP1 POP SWAP2 SWAP1 POP JUMP JUMPDEST PUSH0 PUSH1 0x20 DUP3 ADD SWAP1 POP DUP2 DUP2 SUB PUSH0 DUP4 ADD MSTORE PUSH2 0x148E DUP2 PUSH2 0x1455 JUMP JUMPDEST SWAP1 POP SWAP2 SWAP1 POP JUMP JUMPDEST PUSH0 PUSH2 0x149F DUP3 PUSH2 0xA92 JUMP JUMPDEST SWAP2 POP PUSH2 0x14AA DUP4 PUSH2 0xA92 JUMP JUMPDEST SWAP3 POP DUP3 DUP3 ADD SWAP1 POP DUP1 DUP3 GT ISZERO PUSH2 0x14C2 JUMPI PUSH2 0x14C1 PUSH2 0x1120 JUMP JUMPDEST JUMPDEST SWAP3 SWAP2 POP POP JUMP INVALID LOG2 PUSH5 0x6970667358 0x22 SLT KECCAK256 MSTORE8 0xEB 0xEA 0xB2 PUSH8 0x7BADE260E117E4D5 0xC GASPRICE 0xFB INVALID SWAP4 0x26 DUP6 DUP12 0xB7 SWAP7 STATICCALL 0xE3 DUP13 CALLDATALOAD 0xC9 SELFBALANCE 0xD3 0xDC BLOBHASH PUSH5 0x736F6C6343 STOP ADDMOD BYTE STOP CALLER "
				},
				"gasEstimates": {
					"creation": {
						"codeDepositCost": "1074800",
						"executionCost": "6117",
						"totalCost": "1080917"
					},
					"external": {
						"closeRequest(uint256)": "infinite",
						"donate(uint256)": "infinite",
						"getOpenRequests(uint256,uint256)": "infinite",
						"lastId()": "2468",
						"openRequest(string,string,string,uint256)": "infinite",
						"requests(uint256)": "infinite"
					}
				},
				"methodIdentifiers": {
					"closeRequest(uint256)": "f0282b7f",
					"donate(uint256)": "f14faf6f",
					"getOpenRequests(uint256,uint256)": "b45243dc",
					"lastId()": "c1292cc3",
					"openRequest(string,string,string,uint256)": "82209689",
					"requests(uint256)": "81d12c58"
				}
			},
			"storageLayout": {
				"storage": [
					{
						"astId": 23,
						"contract": "contracts/DonationWithCrypto.sol:DonationWithCrypto",
						"label": "lastId",
						"offset": 0,
						"slot": "0",
						"type": "t_uint256"
					},
					{
						"astId": 28,
						"contract": "contracts/DonationWithCrypto.sol:DonationWithCrypto",
						"label": "requests",
						"offset": 0,
						"slot": "1",
						"type": "t_mapping(t_uint256,t_struct(Request)20_storage)"
					}
				],
				"types": {
					"t_address": {
						"encoding": "inplace",
						"label": "address",
						"numberOfBytes": "20"
					},
					"t_bool": {
						"encoding": "inplace",
						"label": "bool",
						"numberOfBytes": "1"
					},
					"t_mapping(t_uint256,t_struct(Request)20_storage)": {
						"encoding": "mapping",
						"key": "t_uint256",
						"label": "mapping(uint256 => struct Request)",
						"numberOfBytes": "32",
						"value": "t_struct(Request)20_storage"
					},
					"t_string_storage": {
						"encoding": "bytes",
						"label": "string",
						"numberOfBytes": "32"
					},
					"t_struct(Request)20_storage": {
						"encoding": "inplace",
						"label": "struct Request",
						"members": [
							{
								"astId": 3,
								"contract": "contracts/DonationWithCrypto.sol:DonationWithCrypto",
								"label": "id",
								"offset": 0,
								"slot": "0",
								"type": "t_uint256"
							},
							{
								"astId": 5,
								"contract": "contracts/DonationWithCrypto.sol:DonationWithCrypto",
								"label": "author",
								"offset": 0,
								"slot": "1",
								"type": "t_address"
							},
							{
								"astId": 7,
								"contract": "contracts/DonationWithCrypto.sol:DonationWithCrypto",
								"label": "title",
								"offset": 0,
								"slot": "2",
								"type": "t_string_storage"
							},
							{
								"astId": 9,
								"contract": "contracts/DonationWithCrypto.sol:DonationWithCrypto",
								"label": "description",
								"offset": 0,
								"slot": "3",
								"type": "t_string_storage"
							},
							{
								"astId": 11,
								"contract": "contracts/DonationWithCrypto.sol:DonationWithCrypto",
								"label": "contact",
								"offset": 0,
								"slot": "4",
								"type": "t_string_storage"
							},
							{
								"astId": 13,
								"contract": "contracts/DonationWithCrypto.sol:DonationWithCrypto",
								"label": "timestamp",
								"offset": 0,
								"slot": "5",
								"type": "t_uint256"
							},
							{
								"astId": 15,
								"contract": "contracts/DonationWithCrypto.sol:DonationWithCrypto",
								"label": "goal",
								"offset": 0,
								"slot": "6",
								"type": "t_uint256"
							},
							{
								"astId": 17,
								"contract": "contracts/DonationWithCrypto.sol:DonationWithCrypto",
								"label": "balance",
								"offset": 0,
								"slot": "7",
								"type": "t_uint256"
							},
							{
								"astId": 19,
								"contract": "contracts/DonationWithCrypto.sol:DonationWithCrypto",
								"label": "open",
								"offset": 0,
								"slot": "8",
								"type": "t_bool"
							}
						],
						"numberOfBytes": "288"
					},
					"t_uint256": {
						"encoding": "inplace",
						"label": "uint256",
						"numberOfBytes": "32"
					}
				}
			},
			"userdoc": {
				"kind": "user",
				"methods": {},
				"version": 1
			}
		}
	}
}